{
  "contractName": "PlagiarismContract",
  "abi": [
    {
      "inputs": [],
      "stateMutability": "nonpayable",
      "type": "constructor"
    },
    {
      "anonymous": false,
      "inputs": [
        {
          "indexed": true,
          "internalType": "bytes32",
          "name": "id",
          "type": "bytes32"
        }
      ],
      "name": "ChainlinkCancelled",
      "type": "event"
    },
    {
      "anonymous": false,
      "inputs": [
        {
          "indexed": true,
          "internalType": "bytes32",
          "name": "id",
          "type": "bytes32"
        }
      ],
      "name": "ChainlinkFulfilled",
      "type": "event"
    },
    {
      "anonymous": false,
      "inputs": [
        {
          "indexed": true,
          "internalType": "bytes32",
          "name": "id",
          "type": "bytes32"
        }
      ],
      "name": "ChainlinkRequested",
      "type": "event"
    },
    {
      "anonymous": false,
      "inputs": [
        {
          "indexed": false,
          "internalType": "uint256",
          "name": "fileId",
          "type": "uint256"
        },
        {
          "indexed": false,
          "internalType": "uint256",
          "name": "fileSize",
          "type": "uint256"
        },
        {
          "indexed": false,
          "internalType": "string",
          "name": "fileIPFSHash",
          "type": "string"
        },
        {
          "indexed": false,
          "internalType": "string",
          "name": "fileName",
          "type": "string"
        },
        {
          "indexed": false,
          "internalType": "string",
          "name": "fileDescription",
          "type": "string"
        },
        {
          "indexed": false,
          "internalType": "address",
          "name": "codeAuthor",
          "type": "address"
        },
        {
          "indexed": false,
          "internalType": "uint256",
          "name": "timeUploaded",
          "type": "uint256"
        },
        {
          "indexed": false,
          "internalType": "string",
          "name": "codeFingerPrint",
          "type": "string"
        },
        {
          "indexed": false,
          "internalType": "string[]",
          "name": "hashSet",
          "type": "string[]"
        }
      ],
      "name": "CodeFileUploadEvent",
      "type": "event"
    },
    {
      "anonymous": false,
      "inputs": [
        {
          "indexed": false,
          "internalType": "string",
          "name": "_res",
          "type": "string"
        }
      ],
      "name": "LogNewProvableQuery",
      "type": "event"
    },
    {
      "anonymous": false,
      "inputs": [
        {
          "indexed": false,
          "internalType": "bool",
          "name": "plagiarisedResult",
          "type": "bool"
        }
      ],
      "name": "PlagiarismResult",
      "type": "event"
    },
    {
      "inputs": [],
      "name": "fileCount",
      "outputs": [
        {
          "internalType": "uint256",
          "name": "",
          "type": "uint256"
        }
      ],
      "stateMutability": "view",
      "type": "function"
    },
    {
      "inputs": [
        {
          "internalType": "uint256",
          "name": "",
          "type": "uint256"
        }
      ],
      "name": "filesMap",
      "outputs": [
        {
          "internalType": "uint256",
          "name": "fileId",
          "type": "uint256"
        },
        {
          "internalType": "uint256",
          "name": "fileSize",
          "type": "uint256"
        },
        {
          "internalType": "string",
          "name": "fileIPFSHash",
          "type": "string"
        },
        {
          "internalType": "string",
          "name": "fileName",
          "type": "string"
        },
        {
          "internalType": "string",
          "name": "fileDescription",
          "type": "string"
        },
        {
          "internalType": "address",
          "name": "codeAuthor",
          "type": "address"
        },
        {
          "internalType": "uint256",
          "name": "timeUploaded",
          "type": "uint256"
        },
        {
          "internalType": "string",
          "name": "codeFingerPrint",
          "type": "string"
        }
      ],
      "stateMutability": "view",
      "type": "function"
    },
    {
      "inputs": [],
      "name": "volume",
      "outputs": [
        {
          "internalType": "uint256",
          "name": "",
          "type": "uint256"
        }
      ],
      "stateMutability": "view",
      "type": "function"
    },
    {
      "inputs": [],
      "name": "Test",
      "outputs": [
        {
          "internalType": "bytes32",
          "name": "requestId",
          "type": "bytes32"
        }
      ],
      "stateMutability": "nonpayable",
      "type": "function"
    },
    {
      "inputs": [
        {
          "internalType": "bytes32",
          "name": "_requestId",
          "type": "bytes32"
        },
        {
          "internalType": "uint256",
          "name": "_volume",
          "type": "uint256"
        }
      ],
      "name": "fulfill",
      "outputs": [],
      "stateMutability": "nonpayable",
      "type": "function"
    },
    {
      "inputs": [
        {
          "internalType": "uint256",
          "name": "_fileSize",
          "type": "uint256"
        },
        {
          "internalType": "string",
          "name": "_fileIPFSHash",
          "type": "string"
        },
        {
          "internalType": "string",
          "name": "_fileName",
          "type": "string"
        },
        {
          "internalType": "string",
          "name": "_fileDescription",
          "type": "string"
        },
        {
          "internalType": "string",
          "name": "_codeFingerPrint",
          "type": "string"
        },
        {
          "internalType": "string[]",
          "name": "_hashSet",
          "type": "string[]"
        }
      ],
      "name": "uploadFile",
      "outputs": [],
      "stateMutability": "nonpayable",
      "type": "function"
    },
    {
      "inputs": [
        {
          "internalType": "uint256",
          "name": "_fileIndex",
          "type": "uint256"
        }
      ],
      "name": "getFileByIndex",
      "outputs": [
        {
          "components": [
            {
              "internalType": "uint256",
              "name": "fileId",
              "type": "uint256"
            },
            {
              "internalType": "uint256",
              "name": "fileSize",
              "type": "uint256"
            },
            {
              "internalType": "string",
              "name": "fileIPFSHash",
              "type": "string"
            },
            {
              "internalType": "string",
              "name": "fileName",
              "type": "string"
            },
            {
              "internalType": "string",
              "name": "fileDescription",
              "type": "string"
            },
            {
              "internalType": "address",
              "name": "codeAuthor",
              "type": "address"
            },
            {
              "internalType": "uint256",
              "name": "timeUploaded",
              "type": "uint256"
            },
            {
              "internalType": "string",
              "name": "codeFingerPrint",
              "type": "string"
            },
            {
              "internalType": "string[]",
              "name": "hashSet",
              "type": "string[]"
            }
          ],
          "internalType": "struct PlagiarismContract.CodeFile",
          "name": "records",
          "type": "tuple"
        }
      ],
      "stateMutability": "view",
      "type": "function"
    },
    {
      "inputs": [
        {
          "internalType": "string",
          "name": "a",
          "type": "string"
        },
        {
          "internalType": "string",
          "name": "b",
          "type": "string"
        }
      ],
      "name": "compareStrings",
      "outputs": [
        {
          "internalType": "bool",
          "name": "",
          "type": "bool"
        }
      ],
      "stateMutability": "pure",
      "type": "function"
    },
    {
      "inputs": [
        {
          "internalType": "string[]",
          "name": "list1",
          "type": "string[]"
        },
        {
          "internalType": "string[]",
          "name": "list2",
          "type": "string[]"
        },
        {
          "internalType": "uint256",
          "name": "setLength1",
          "type": "uint256"
        },
        {
          "internalType": "uint256",
          "name": "setLength2",
          "type": "uint256"
        }
      ],
      "name": "getCommonElementsCount",
      "outputs": [
        {
          "internalType": "uint256",
          "name": "",
          "type": "uint256"
        }
      ],
      "stateMutability": "pure",
      "type": "function"
    },
    {
      "inputs": [
        {
          "internalType": "string[]",
          "name": "l1",
          "type": "string[]"
        },
        {
          "internalType": "string[]",
          "name": "l2",
          "type": "string[]"
        }
      ],
      "name": "calculateSimilarityScore",
      "outputs": [
        {
          "internalType": "uint256",
          "name": "",
          "type": "uint256"
        }
      ],
      "stateMutability": "pure",
      "type": "function"
    }
  ],
  "bytecode": "0x6080604052600160045560006009553480156200001b57600080fd5b506200002c620000bb60201b60201c565b7319f7f3bf88cb208b0c422cc2b8e2bd23ee461dd1600660006101000a81548173ffffffffffffffffffffffffffffffffffffffff021916908373ffffffffffffffffffffffffffffffffffffffff1602179055507f3962333234343266353564373433363262323663363038633665396262383063600781905550655af3107a400060088190555062000233565b6200015173c89bd4e1632d3a43cb03aaad5262cbe4038bc57173ffffffffffffffffffffffffffffffffffffffff166338cc48316040518163ffffffff1660e01b8152600401602060405180830381865afa1580156200011f573d6000803e3d6000fd5b505050506040513d601f19601f8201168201806040525081019062000145919062000201565b6200015360201b60201c565b565b80600260006101000a81548173ffffffffffffffffffffffffffffffffffffffff021916908373ffffffffffffffffffffffffffffffffffffffff16021790555050565b600080fd5b600073ffffffffffffffffffffffffffffffffffffffff82169050919050565b6000620001c9826200019c565b9050919050565b620001db81620001bc565b8114620001e757600080fd5b50565b600081519050620001fb81620001d0565b92915050565b6000602082840312156200021a576200021962000197565b5b60006200022a84828501620001ea565b91505092915050565b61355b80620002436000396000f3fe608060405234801561001057600080fd5b506004361061009e5760003560e01c8063790ad0db11610066578063790ad0db14610159578063a163a62414610189578063bed34bba146101a7578063c618a1e4146101d7578063c93bcd91146101f55761009e565b8063097694e1146100a35780631320b2e5146100d3578063254f7d2d146101035780634357855e1461011f578063439535191461013b575b600080fd5b6100bd60048036038101906100b89190611fc4565b61022c565b6040516100ca919061227d565b60405180910390f35b6100ed60048036038101906100e891906124ba565b6105ef565b6040516100fa9190612541565b60405180910390f35b61011d6004803603810190610118919061255c565b61080a565b005b610139600480360381019061013491906126ab565b610b35565b005b610143610c46565b6040516101509190612541565b60405180910390f35b610173600480360381019061016e91906126eb565b610c4c565b6040516101809190612541565b60405180910390f35b610191610cf3565b60405161019e9190612799565b60405180910390f35b6101c160048036038101906101bc91906127b4565b610e7a565b6040516101ce9190612847565b60405180910390f35b6101df610ed3565b6040516101ec9190612541565b60405180910390f35b61020f600480360381019061020a9190611fc4565b610ed9565b6040516102239897969594939291906128bb565b60405180910390f35b610234611d2a565b600a600083815260200190815260200160002060405180610120016040529081600082015481526020016001820154815260200160028201805461027790612984565b80601f01602080910402602001604051908101604052809291908181526020018280546102a390612984565b80156102f05780601f106102c5576101008083540402835291602001916102f0565b820191906000526020600020905b8154815290600101906020018083116102d357829003601f168201915b5050505050815260200160038201805461030990612984565b80601f016020809104026020016040519081016040528092919081815260200182805461033590612984565b80156103825780601f1061035757610100808354040283529160200191610382565b820191906000526020600020905b81548152906001019060200180831161036557829003601f168201915b5050505050815260200160048201805461039b90612984565b80601f01602080910402602001604051908101604052809291908181526020018280546103c790612984565b80156104145780601f106103e957610100808354040283529160200191610414565b820191906000526020600020905b8154815290600101906020018083116103f757829003601f168201915b505050505081526020016005820160009054906101000a900473ffffffffffffffffffffffffffffffffffffffff1673ffffffffffffffffffffffffffffffffffffffff1673ffffffffffffffffffffffffffffffffffffffff1681526020016006820154815260200160078201805461048d90612984565b80601f01602080910402602001604051908101604052809291908181526020018280546104b990612984565b80156105065780601f106104db57610100808354040283529160200191610506565b820191906000526020600020905b8154815290600101906020018083116104e957829003601f168201915b5050505050815260200160088201805480602002602001604051908101604052809291908181526020016000905b828210156105e057838290600052602060002001805461055390612984565b80601f016020809104026020016040519081016040528092919081815260200182805461057f90612984565b80156105cc5780601f106105a1576101008083540402835291602001916105cc565b820191906000526020600020905b8154815290600101906020018083116105af57829003601f168201915b505050505081526020019060010190610534565b50505050815250509050919050565b600080835167ffffffffffffffff81111561060d5761060c6122a4565b5b60405190808252806020026020018201604052801561064057816020015b606081526020019060019003908161062b5790505b5090506000835167ffffffffffffffff8111156106605761065f6122a4565b5b60405190808252806020026020018201604052801561069357816020015b606081526020019060019003908161067e5790505b50905060008060005b8751811015610728576106c9858983815181106106bc576106bb6129b6565b5b6020026020010151611161565b610715578781815181106106e0576106df6129b6565b5b60200260200101518584815181106106fb576106fa6129b6565b5b6020026020010181905250828061071190612a14565b9350505b808061072090612a14565b91505061069c565b5060005b86518110156107b8576107598488838151811061074c5761074b6129b6565b5b6020026020010151611161565b6107a5578681815181106107705761076f6129b6565b5b602002602001015184838151811061078b5761078a6129b6565b5b602002602001018190525081806107a190612a14565b9250505b80806107b090612a14565b91505061072c565b5060006107c785858585610c4c565b905060008183856107d89190612a5d565b6107e29190612ab3565b9050806064836107f29190612ae7565b6107fc9190612b70565b965050505050505092915050565b600085511161084e576040517f08c379a000000000000000000000000000000000000000000000000000000000815260040161084590612bed565b60405180910390fd5b6000835111610892576040517f08c379a000000000000000000000000000000000000000000000000000000000815260040161088990612c59565b60405180910390fd5b60008451116108d6576040517f08c379a00000000000000000000000000000000000000000000000000000000081526004016108cd90612cc5565b60405180910390fd5b60008611610919576040517f08c379a000000000000000000000000000000000000000000000000000000000815260040161091090612d31565b60405180910390fd5b610922816111c4565b15610964577f711784307b11c5f98f3bc25170dfd6d229d797a0891cb2dd54b1fd406e60fc6d60016040516109579190612847565b60405180910390a1610b2d565b6009600081548092919061097790612a14565b919050555060405180610120016040528060095481526020018781526020018681526020018581526020018481526020013373ffffffffffffffffffffffffffffffffffffffff16815260200142815260200183815260200182815250600a6000600954815260200190815260200160002060008201518160000155602082015181600101556040820151816002019080519060200190610a19929190611d8c565b506060820151816003019080519060200190610a36929190611d8c565b506080820151816004019080519060200190610a53929190611d8c565b5060a08201518160050160006101000a81548173ffffffffffffffffffffffffffffffffffffffff021916908373ffffffffffffffffffffffffffffffffffffffff16021790555060c0820151816006015560e0820151816007019080519060200190610ac1929190611d8c565b50610100820151816008019080519060200190610adf929190611e12565b509050507f13a353a011afea10f3f02988cf68745c8d65c39e4d9ba5ed33ea73114c76d85b6009548787878733428989604051610b2499989796959493929190612dd7565b60405180910390a15b505050505050565b816005600082815260200190815260200160002060009054906101000a900473ffffffffffffffffffffffffffffffffffffffff1673ffffffffffffffffffffffffffffffffffffffff163373ffffffffffffffffffffffffffffffffffffffff1614610bd7576040517f08c379a0000000000000000000000000000000000000000000000000000000008152600401610bce90612ef9565b60405180910390fd5b6005600082815260200190815260200160002060006101000a81549073ffffffffffffffffffffffffffffffffffffffff0219169055807f7cc135e0cebb02c3480ae5d74d377283180a2601f8f644edf7987b009316c63a60405160405180910390a281600b81905550505050565b60095481565b6000806000905060005b84811015610ce65760005b84811015610cd257610ca7888381518110610c7f57610c7e6129b6565b5b6020026020010151888381518110610c9a57610c996129b6565b5b6020026020010151610e7a565b15610cbf578280610cb790612a14565b935050610cd2565b8080610cca90612a14565b915050610c61565b508080610cde90612a14565b915050610c56565b5080915050949350505050565b600080610d0a60075430634357855e60e01b6111f3565b9050610d6e6040518060400160405280600381526020017f67657400000000000000000000000000000000000000000000000000000000008152506040518060800160405280604981526020016134dd60499139836112249092919063ffffffff16565b610ded6040518060400160405280600481526020017f70617468000000000000000000000000000000000000000000000000000000008152506040518060400160405280601881526020017f5241572e4554482e5553442e564f4c554d453234484f55520000000000000000815250836112249092919063ffffffff16565b6000670de0b6b3a76400009050610e446040518060400160405280600581526020017f74696d657300000000000000000000000000000000000000000000000000000081525082846112579092919063ffffffff16565b610e73600660009054906101000a900473ffffffffffffffffffffffffffffffffffffffff168360085461128a565b9250505090565b600081604051602001610e8d9190612f55565b6040516020818303038152906040528051906020012083604051602001610eb49190612f55565b6040516020818303038152906040528051906020012014905092915050565b600b5481565b600a602052806000526040600020600091509050806000015490806001015490806002018054610f0890612984565b80601f0160208091040260200160405190810160405280929190818152602001828054610f3490612984565b8015610f815780601f10610f5657610100808354040283529160200191610f81565b820191906000526020600020905b815481529060010190602001808311610f6457829003601f168201915b505050505090806003018054610f9690612984565b80601f0160208091040260200160405190810160405280929190818152602001828054610fc290612984565b801561100f5780601f10610fe45761010080835404028352916020019161100f565b820191906000526020600020905b815481529060010190602001808311610ff257829003601f168201915b50505050509080600401805461102490612984565b80601f016020809104026020016040519081016040528092919081815260200182805461105090612984565b801561109d5780601f106110725761010080835404028352916020019161109d565b820191906000526020600020905b81548152906001019060200180831161108057829003601f168201915b5050505050908060050160009054906101000a900473ffffffffffffffffffffffffffffffffffffffff16908060060154908060070180546110de90612984565b80601f016020809104026020016040519081016040528092919081815260200182805461110a90612984565b80156111575780601f1061112c57610100808354040283529160200191611157565b820191906000526020600020905b81548152906001019060200180831161113a57829003601f168201915b5050505050905088565b600080600090505b83518110156111b857611196848281518110611188576111876129b6565b5b602002602001015184610e7a565b156111a55760019150506111be565b80806111b090612a14565b915050611169565b50600090505b92915050565b6000806111d083611356565b90506000808211156111e7576001925050506111ee565b6000925050505b919050565b6111fb611e72565b611203611e72565b61121a858585846113d5909392919063ffffffff16565b9150509392505050565b61123b82846080015161148590919063ffffffff16565b61125281846080015161148590919063ffffffff16565b505050565b61126e82846080015161148590919063ffffffff16565b6112858184608001516114aa90919063ffffffff16565b505050565b600080600454905060018161129f9190612a5d565b6004819055506000634042994660e01b60008087600001513089604001518760018c60800151600001516040516024016112e0989796959493929190612ffc565b604051602081830303815290604052907bffffffffffffffffffffffffffffffffffffffffffffffffffffffff19166020820180517bffffffffffffffffffffffffffffffffffffffffffffffffffffffff8381831617835250505050905061134b86838684611557565b925050509392505050565b60008060009050600080600190505b60095481116113ca576000611379826116ec565b90506000600190505b815181116113b55761139482886105ef565b9350848411156113a2578394505b80806113ad90612a14565b915050611382565b505080806113c290612a14565b915050611365565b508192505050919050565b6113dd611e72565b6113ed85608001516101006117db565b508385600001818152505082856020019073ffffffffffffffffffffffffffffffffffffffff16908173ffffffffffffffffffffffffffffffffffffffff16815250508185604001907bffffffffffffffffffffffffffffffffffffffffffffffffffffffff191690817bffffffffffffffffffffffffffffffffffffffffffffffffffffffff191681525050849050949350505050565b6114928260038351611845565b6114a581836119ca90919063ffffffff16565b505050565b7fffffffffffffffffffffffffffffffffffffffffffffffff00000000000000008112156114e1576114dc82826119ec565b611553565b67ffffffffffffffff811315611500576114fb8282611a63565b611552565b600081126115195761151482600083611845565b611551565b611550826001837fffffffffffffffffffffffffffffffffffffffffffffffffffffffffffffffff61154b919061308b565b611845565b5b5b5b5050565b6000308460405160200161156c9291906131d8565b604051602081830303815290604052805190602001209050846005600083815260200190815260200160002060006101000a81548173ffffffffffffffffffffffffffffffffffffffff021916908373ffffffffffffffffffffffffffffffffffffffff160217905550807fb5e6e01e79f91267dc17b4e6314d5d4d03593d2ceee0fbb452b750bd70ea5af960405160405180910390a2600260009054906101000a900473ffffffffffffffffffffffffffffffffffffffff1673ffffffffffffffffffffffffffffffffffffffff16634000aea08685856040518463ffffffff1660e01b815260040161166293929190613204565b6020604051808303816000875af1158015611681573d6000803e3d6000fd5b505050506040513d601f19601f820116820180604052508101906116a5919061326e565b6116e4576040517f08c379a00000000000000000000000000000000000000000000000000000000081526004016116db9061330d565b60405180910390fd5b949350505050565b6060600a6000838152602001908152602001600020600801805480602002602001604051908101604052809291908181526020016000905b828210156117d057838290600052602060002001805461174390612984565b80601f016020809104026020016040519081016040528092919081815260200182805461176f90612984565b80156117bc5780601f10611791576101008083540402835291602001916117bc565b820191906000526020600020905b81548152906001019060200180831161179f57829003601f168201915b505050505081526020019060010190611724565b505050509050919050565b6117e3611edf565b60006020836117f2919061332d565b1461181e57602082611804919061332d565b60206118109190612ab3565b8261181b9190612a5d565b91505b81836020018181525050604051808452600081528281016020016040525082905092915050565b60178167ffffffffffffffff161161187c576118768160058460ff16901b60ff161784611aaf90919063ffffffff16565b506119c5565b60ff8167ffffffffffffffff16116118d2576118ab601860058460ff16901b1784611aaf90919063ffffffff16565b506118cc8167ffffffffffffffff16600185611acf9092919063ffffffff16565b506119c4565b61ffff8167ffffffffffffffff161161192957611902601960058460ff16901b1784611aaf90919063ffffffff16565b506119238167ffffffffffffffff16600285611acf9092919063ffffffff16565b506119c3565b63ffffffff8167ffffffffffffffff16116119825761195b601a60058460ff16901b1784611aaf90919063ffffffff16565b5061197c8167ffffffffffffffff16600485611acf9092919063ffffffff16565b506119c2565b61199f601b60058460ff16901b1784611aaf90919063ffffffff16565b506119c08167ffffffffffffffff16600885611acf9092919063ffffffff16565b505b5b5b5b505050565b6119d2611edf565b6119e483846000015151848551611af1565b905092915050565b611a0a60036005600660ff16901b1783611aaf90919063ffffffff16565b50611a5f82827fffffffffffffffffffffffffffffffffffffffffffffffffffffffffffffffff611a3b919061308b565b604051602001611a4b9190612541565b604051602081830303815290604052611be0565b5050565b611a8160026005600660ff16901b1783611aaf90919063ffffffff16565b50611aab8282604051602001611a979190612541565b604051602081830303815290604052611be0565b5050565b611ab7611edf565b611ac78384600001515184611c05565b905092915050565b611ad7611edf565b611ae8848560000151518585611c5c565b90509392505050565b611af9611edf565b8251821115611b0757600080fd5b84602001518285611b189190612a5d565b1115611b4d57611b4c856002611b3d88602001518887611b389190612a5d565b611cea565b611b479190612ae7565b611d06565b5b600080865180518760208301019350808887011115611b6c5787860182525b60208701925050505b60208410611bb35780518252602082611b8e9190612a5d565b9150602081611b9d9190612a5d565b9050602084611bac9190612ab3565b9350611b75565b60006001856020036101000a03905080198251168184511681811785525050508692505050949350505050565b611bed8260028351611845565b611c0081836119ca90919063ffffffff16565b505050565b611c0d611edf565b83602001518310611c3357611c328460028660200151611c2d9190612ae7565b611d06565b5b8351805160208583010184815381861415611c4f576001820183525b5050508390509392505050565b611c64611edf565b84602001518483611c759190612a5d565b1115611c9d57611c9c8560028685611c8d9190612a5d565b611c979190612ae7565b611d06565b5b6000600183610100611caf9190613491565b611cb99190612ab3565b90508551838682010185831982511617815281518588011115611cdc5784870182525b505085915050949350505050565b600081831115611cfc57829050611d00565b8190505b92915050565b600082600001519050611d1983836117db565b50611d2483826119ca565b50505050565b6040518061012001604052806000815260200160008152602001606081526020016060815260200160608152602001600073ffffffffffffffffffffffffffffffffffffffff1681526020016000815260200160608152602001606081525090565b828054611d9890612984565b90600052602060002090601f016020900481019282611dba5760008555611e01565b82601f10611dd357805160ff1916838001178555611e01565b82800160010185558215611e01579182015b82811115611e00578251825591602001919060010190611de5565b5b509050611e0e9190611ef9565b5090565b828054828255906000526020600020908101928215611e61579160200282015b82811115611e60578251829080519060200190611e50929190611d8c565b5091602001919060010190611e32565b5b509050611e6e9190611f16565b5090565b6040518060a0016040528060008019168152602001600073ffffffffffffffffffffffffffffffffffffffff16815260200160007bffffffffffffffffffffffffffffffffffffffffffffffffffffffff1916815260200160008152602001611ed9611edf565b81525090565b604051806040016040528060608152602001600081525090565b5b80821115611f12576000816000905550600101611efa565b5090565b5b80821115611f365760008181611f2d9190611f3a565b50600101611f17565b5090565b508054611f4690612984565b6000825580601f10611f585750611f77565b601f016020900490600052602060002090810190611f769190611ef9565b5b50565b6000604051905090565b600080fd5b600080fd5b6000819050919050565b611fa181611f8e565b8114611fac57600080fd5b50565b600081359050611fbe81611f98565b92915050565b600060208284031215611fda57611fd9611f84565b5b6000611fe884828501611faf565b91505092915050565b611ffa81611f8e565b82525050565b600081519050919050565b600082825260208201905092915050565b60005b8381101561203a57808201518184015260208101905061201f565b83811115612049576000848401525b50505050565b6000601f19601f8301169050919050565b600061206b82612000565b612075818561200b565b935061208581856020860161201c565b61208e8161204f565b840191505092915050565b600073ffffffffffffffffffffffffffffffffffffffff82169050919050565b60006120c482612099565b9050919050565b6120d4816120b9565b82525050565b600081519050919050565b600082825260208201905092915050565b6000819050602082019050919050565b60006121128383612060565b905092915050565b6000602082019050919050565b6000612132826120da565b61213c81856120e5565b93508360208202850161214e856120f6565b8060005b8581101561218a578484038952815161216b8582612106565b94506121768361211a565b925060208a01995050600181019050612152565b50829750879550505050505092915050565b6000610120830160008301516121b56000860182611ff1565b5060208301516121c86020860182611ff1565b50604083015184820360408601526121e08282612060565b915050606083015184820360608601526121fa8282612060565b915050608083015184820360808601526122148282612060565b91505060a083015161222960a08601826120cb565b5060c083015161223c60c0860182611ff1565b5060e083015184820360e08601526122548282612060565b9150506101008301518482036101008601526122708282612127565b9150508091505092915050565b60006020820190508181036000830152612297818461219c565b905092915050565b600080fd5b7f4e487b7100000000000000000000000000000000000000000000000000000000600052604160045260246000fd5b6122dc8261204f565b810181811067ffffffffffffffff821117156122fb576122fa6122a4565b5b80604052505050565b600061230e611f7a565b905061231a82826122d3565b919050565b600067ffffffffffffffff82111561233a576123396122a4565b5b602082029050602081019050919050565b600080fd5b600080fd5b600067ffffffffffffffff8211156123705761236f6122a4565b5b6123798261204f565b9050602081019050919050565b82818337600083830152505050565b60006123a86123a384612355565b612304565b9050828152602081018484840111156123c4576123c3612350565b5b6123cf848285612386565b509392505050565b600082601f8301126123ec576123eb61229f565b5b81356123fc848260208601612395565b91505092915050565b60006124186124138461231f565b612304565b9050808382526020820190506020840283018581111561243b5761243a61234b565b5b835b8181101561248257803567ffffffffffffffff8111156124605761245f61229f565b5b80860161246d89826123d7565b8552602085019450505060208101905061243d565b5050509392505050565b600082601f8301126124a1576124a061229f565b5b81356124b1848260208601612405565b91505092915050565b600080604083850312156124d1576124d0611f84565b5b600083013567ffffffffffffffff8111156124ef576124ee611f89565b5b6124fb8582860161248c565b925050602083013567ffffffffffffffff81111561251c5761251b611f89565b5b6125288582860161248c565b9150509250929050565b61253b81611f8e565b82525050565b60006020820190506125566000830184612532565b92915050565b60008060008060008060c0878903121561257957612578611f84565b5b600061258789828a01611faf565b965050602087013567ffffffffffffffff8111156125a8576125a7611f89565b5b6125b489828a016123d7565b955050604087013567ffffffffffffffff8111156125d5576125d4611f89565b5b6125e189828a016123d7565b945050606087013567ffffffffffffffff81111561260257612601611f89565b5b61260e89828a016123d7565b935050608087013567ffffffffffffffff81111561262f5761262e611f89565b5b61263b89828a016123d7565b92505060a087013567ffffffffffffffff81111561265c5761265b611f89565b5b61266889828a0161248c565b9150509295509295509295565b6000819050919050565b61268881612675565b811461269357600080fd5b50565b6000813590506126a58161267f565b92915050565b600080604083850312156126c2576126c1611f84565b5b60006126d085828601612696565b92505060206126e185828601611faf565b9150509250929050565b6000806000806080858703121561270557612704611f84565b5b600085013567ffffffffffffffff81111561272357612722611f89565b5b61272f8782880161248c565b945050602085013567ffffffffffffffff8111156127505761274f611f89565b5b61275c8782880161248c565b935050604061276d87828801611faf565b925050606061277e87828801611faf565b91505092959194509250565b61279381612675565b82525050565b60006020820190506127ae600083018461278a565b92915050565b600080604083850312156127cb576127ca611f84565b5b600083013567ffffffffffffffff8111156127e9576127e8611f89565b5b6127f5858286016123d7565b925050602083013567ffffffffffffffff81111561281657612815611f89565b5b612822858286016123d7565b9150509250929050565b60008115159050919050565b6128418161282c565b82525050565b600060208201905061285c6000830184612838565b92915050565b600082825260208201905092915050565b600061287e82612000565b6128888185612862565b935061289881856020860161201c565b6128a18161204f565b840191505092915050565b6128b5816120b9565b82525050565b6000610100820190506128d1600083018b612532565b6128de602083018a612532565b81810360408301526128f08189612873565b905081810360608301526129048188612873565b905081810360808301526129188187612873565b905061292760a08301866128ac565b61293460c0830185612532565b81810360e08301526129468184612873565b90509998505050505050505050565b7f4e487b7100000000000000000000000000000000000000000000000000000000600052602260045260246000fd5b6000600282049050600182168061299c57607f821691505b602082108114156129b0576129af612955565b5b50919050565b7f4e487b7100000000000000000000000000000000000000000000000000000000600052603260045260246000fd5b7f4e487b7100000000000000000000000000000000000000000000000000000000600052601160045260246000fd5b6000612a1f82611f8e565b91507fffffffffffffffffffffffffffffffffffffffffffffffffffffffffffffffff821415612a5257612a516129e5565b5b600182019050919050565b6000612a6882611f8e565b9150612a7383611f8e565b9250827fffffffffffffffffffffffffffffffffffffffffffffffffffffffffffffffff03821115612aa857612aa76129e5565b5b828201905092915050565b6000612abe82611f8e565b9150612ac983611f8e565b925082821015612adc57612adb6129e5565b5b828203905092915050565b6000612af282611f8e565b9150612afd83611f8e565b9250817fffffffffffffffffffffffffffffffffffffffffffffffffffffffffffffffff0483118215151615612b3657612b356129e5565b5b828202905092915050565b7f4e487b7100000000000000000000000000000000000000000000000000000000600052601260045260246000fd5b6000612b7b82611f8e565b9150612b8683611f8e565b925082612b9657612b95612b41565b5b828204905092915050565b7f436f646546696c65204861736820697320656d70747900000000000000000000600082015250565b6000612bd7601683612862565b9150612be282612ba1565b602082019050919050565b60006020820190508181036000830152612c0681612bca565b9050919050565b7f436f646546696c65206465736372697074696f6e20697320656d707479000000600082015250565b6000612c43601d83612862565b9150612c4e82612c0d565b602082019050919050565b60006020820190508181036000830152612c7281612c36565b9050919050565b7f436f646546696c65206e616d6520697320656d70747900000000000000000000600082015250565b6000612caf601683612862565b9150612cba82612c79565b602082019050919050565b60006020820190508181036000830152612cde81612ca2565b9050919050565b7f436f646546696c652073697a6520697320300000000000000000000000000000600082015250565b6000612d1b601283612862565b9150612d2682612ce5565b602082019050919050565b60006020820190508181036000830152612d4a81612d0e565b9050919050565b600082825260208201905092915050565b6000612d6d826120da565b612d778185612d51565b935083602082028501612d89856120f6565b8060005b85811015612dc55784840389528151612da68582612106565b9450612db18361211a565b925060208a01995050600181019050612d8d565b50829750879550505050505092915050565b600061012082019050612ded600083018c612532565b612dfa602083018b612532565b8181036040830152612e0c818a612873565b90508181036060830152612e208189612873565b90508181036080830152612e348188612873565b9050612e4360a08301876128ac565b612e5060c0830186612532565b81810360e0830152612e628185612873565b9050818103610100830152612e778184612d62565b90509a9950505050505050505050565b7f536f75726365206d75737420626520746865206f7261636c65206f662074686560008201527f2072657175657374000000000000000000000000000000000000000000000000602082015250565b6000612ee3602883612862565b9150612eee82612e87565b604082019050919050565b60006020820190508181036000830152612f1281612ed6565b9050919050565b600081905092915050565b6000612f2f82612000565b612f398185612f19565b9350612f4981856020860161201c565b80840191505092915050565b6000612f618284612f24565b915081905092915050565b60007fffffffff0000000000000000000000000000000000000000000000000000000082169050919050565b612fa181612f6c565b82525050565b600081519050919050565b600082825260208201905092915050565b6000612fce82612fa7565b612fd88185612fb2565b9350612fe881856020860161201c565b612ff18161204f565b840191505092915050565b600061010082019050613012600083018b6128ac565b61301f602083018a612532565b61302c604083018961278a565b61303960608301886128ac565b6130466080830187612f98565b61305360a0830186612532565b61306060c0830185612532565b81810360e08301526130728184612fc3565b90509998505050505050505050565b6000819050919050565b600061309682613081565b91506130a183613081565b9250827f8000000000000000000000000000000000000000000000000000000000000000018212600084121516156130dc576130db6129e5565b5b827f7fffffffffffffffffffffffffffffffffffffffffffffffffffffffffffffff018213600084121615613114576131136129e5565b5b828203905092915050565b6000819050919050565b600061314461313f61313a84612099565b61311f565b612099565b9050919050565b600061315682613129565b9050919050565b60006131688261314b565b9050919050565b60008160601b9050919050565b60006131878261316f565b9050919050565b60006131998261317c565b9050919050565b6131b16131ac8261315d565b61318e565b82525050565b6000819050919050565b6131d26131cd82611f8e565b6131b7565b82525050565b60006131e482856131a0565b6014820191506131f482846131c1565b6020820191508190509392505050565b600060608201905061321960008301866128ac565b6132266020830185612532565b81810360408301526132388184612fc3565b9050949350505050565b61324b8161282c565b811461325657600080fd5b50565b60008151905061326881613242565b92915050565b60006020828403121561328457613283611f84565b5b600061329284828501613259565b91505092915050565b7f756e61626c6520746f207472616e73666572416e6443616c6c20746f206f726160008201527f636c650000000000000000000000000000000000000000000000000000000000602082015250565b60006132f7602383612862565b91506133028261329b565b604082019050919050565b60006020820190508181036000830152613326816132ea565b9050919050565b600061333882611f8e565b915061334383611f8e565b92508261335357613352612b41565b5b828206905092915050565b60008160011c9050919050565b6000808291508390505b60018511156133b557808604811115613391576133906129e5565b5b60018516156133a05780820291505b80810290506133ae8561335e565b9450613375565b94509492505050565b6000826133ce576001905061348a565b816133dc576000905061348a565b81600181146133f257600281146133fc5761342b565b600191505061348a565b60ff84111561340e5761340d6129e5565b5b8360020a915084821115613425576134246129e5565b5b5061348a565b5060208310610133831016604e8410600b84101617156134605782820a90508381111561345b5761345a6129e5565b5b61348a565b61346d848484600161336b565b92509050818404811115613484576134836129e5565b5b81810290505b9392505050565b600061349c82611f8e565b91506134a783611f8e565b92506134d47fffffffffffffffffffffffffffffffffffffffffffffffffffffffffffffffff84846133be565b90509291505056fe68747470733a2f2f6d696e2d6170692e63727970746f636f6d706172652e636f6d2f646174612f70726963656d756c746966756c6c3f6673796d733d455448267473796d733d555344a2646970667358221220e51126084d7cbebfb57c799090c50ad9575ca8dc59d42842919258aa1d93837c64736f6c634300080b0033",
  "immutableReferences": {},
  "source": "// SPDX-License-Identifier: MIT\npragma solidity >=0.4.22 <0.9.0;\npragma experimental ABIEncoderV2;\n// import \"./usingOraclize.sol\";\n// import \"./provableAPI.sol\";\nimport \"@chainlink/contracts/src/v0.8/ChainlinkClient.sol\";\n// import \"@openzeppelin/contracts-ethereum-package/contracts/GSN/GSNRecipient.sol\";\n\n\ncontract PlagiarismContract is ChainlinkClient {\n\n  using Chainlink for Chainlink.Request;\n\n  address private oracle;\n    bytes32 private jobId;\n    uint256 private fee;\n\n  struct CodeFile{\n    uint fileId;\n    uint fileSize;\n    string fileIPFSHash;\n    string fileName;\n    string fileDescription;\n    address codeAuthor;\n    uint timeUploaded;    \n    string codeFingerPrint;\n    string [] hashSet;\n  }\n\n  uint public fileCount = 0;\n  mapping(uint=>CodeFile) public filesMap;\n\n\n  event CodeFileUploadEvent(\n    uint fileId,\n    uint fileSize,\n    string fileIPFSHash,\n    string fileName,\n    string fileDescription,\n    address codeAuthor,\n    uint timeUploaded ,\n    string codeFingerPrint,\n    string [] hashSet\n  ) ;\n\n  event PlagiarismResult(\n    bool plagiarisedResult\n  );\n\n  event LogNewProvableQuery(string _res);\n\n  constructor() {\n    setPublicChainlinkToken();\n        oracle = 0x19f7f3bF88CB208B0C422CC2b8E2bd23ee461DD1;\n        jobId = \"9b32442f55d74362b26c608c6e9bb80c\";\n        fee = 0.0001 * 10 ** 18; // (Varies by network and job)\n  }\n\n  // function TestOraclizeCall() { \n  //   OAR= OraclizeAddrResolverI(0x71d61a4c458d43f6834da6217e7fd00e3101421f);\n  // }\n  // function __callback(bytes32 _myid, string _result) {\n  //   require (msg.sender == oraclize_cbAddress());\n  //   Log(_result);\n  //   price = parseInt(_result, 2);\n  // }\n  // function update() payable {\n  //   oraclize_query(\"URL\",\"json(https://min-api.cryptocompare.com/data/price?fsym=ETH&tsyms=USD).USD\");\n  // }\n\n  uint256 public volume;\n  function Test() public returns (bytes32 requestId){\n    Chainlink.Request memory request = buildChainlinkRequest(jobId, address(this), this.fulfill.selector);\n        \n        // Set the URL to perform the GET request on\n        request.add(\"get\", \"https://min-api.cryptocompare.com/data/pricemultifull?fsyms=ETH&tsyms=USD\");\n        \n        // Set the path to find the desired data in the API response, where the response format is:\n        // {\"RAW\":\n        //   {\"ETH\":\n        //    {\"USD\":\n        //     {\n        //      \"VOLUME24HOUR\": xxx.xxx,\n        //     }\n        //    }\n        //   }\n        //  }\n        request.add(\"path\", \"RAW.ETH.USD.VOLUME24HOUR\");\n        \n        // Multiply the result by 1000000000000000000 to remove decimals\n        int timesAmount = 10**18;\n        request.addInt(\"times\", timesAmount);\n        \n        // Sends the request\n        return sendChainlinkRequestTo(oracle, request, fee);\n  }\n  function fulfill(bytes32 _requestId, uint256 _volume) public recordChainlinkFulfillment(_requestId)\n    {\n        volume = _volume;\n    }\n\n  function uploadFile(uint _fileSize, string memory _fileIPFSHash, string memory _fileName,string memory _fileDescription, string memory _codeFingerPrint, string [] memory _hashSet) public {\n    require(bytes(_fileIPFSHash).length > 0, \"CodeFile Hash is empty\");\n\n    require(bytes(_fileDescription).length > 0, \"CodeFile description is empty\");\n\n    require(bytes(_fileName).length > 0, \"CodeFile name is empty\");\n\n    require(_fileSize>0, \"CodeFile size is 0\");\n\n    // if (provable_getPrice(\"computation\") > address(this).balance) {\n    //   emit LogNewProvableQuery(\"Provable query was NOT sent, please add some ETH to cover for the query fee\");\n    // } else {\n      // emit LogNewProvableQuery(\"Provable query was sent, standing by for the answer\");\n      // provable_query(\"URL\", \"json(http://localhost:8000/hashset)\",'{\"codeFingerprint\":_codeFingerPrint}');\n      // emit LogNewProvableQuery(m);\n    // }\n\n    if(checkIfPlagiarised(_hashSet)){\n      emit PlagiarismResult(true);\n    }\n    else{\n      fileCount++;\n\n      filesMap[fileCount] = CodeFile(fileCount,_fileSize,_fileIPFSHash, _fileName, _fileDescription,msg.sender,block.timestamp,_codeFingerPrint,_hashSet);\n\n      emit CodeFileUploadEvent(fileCount,_fileSize,_fileIPFSHash, _fileName, _fileDescription,msg.sender,block.timestamp,_codeFingerPrint,_hashSet);\n    }\n  }\n\n    function getFileByIndex(uint _fileIndex)\n        public\n        view\n        returns (CodeFile memory records)\n    {\n        return filesMap[_fileIndex];\n    }\n\n    function getFileHashSet(uint _fileIndex) private\n        view\n        returns (string [] memory )\n    {\n        return filesMap[_fileIndex].hashSet;\n    }\n\n    function checkIfPlagiarised( string [] memory _hashSet)private view returns(bool){\n      uint similarityScore = getMaximumSimilarityScore(_hashSet);\n      \n      uint thresholdSimilarity=0;\n      if(similarityScore>thresholdSimilarity)\n        return true;\n      else\n        return false;\n    }\n\n    function getMaximumSimilarityScore( string [] memory _hashSet) private view returns (uint){\n      uint maxSimilarity=0;\n      uint similarity=0;\n      for(uint i=1;i<=fileCount;i++){\n        string [] memory existingFilehashSet=getFileHashSet(i);\n        for(uint j=1;j<=existingFilehashSet.length;j++){\n          //TODO\n          // uint similarity=getSimilarity();\n          similarity=calculateSimilarityScore(existingFilehashSet,_hashSet);\n          if(similarity>maxSimilarity){\n            maxSimilarity=similarity;\n          }\n        }\n      }\n      return maxSimilarity;\n    }\n\nfunction compareStrings(string memory a, string memory b) public pure returns (bool) {\n        return (keccak256(abi.encodePacked((a))) == keccak256(abi.encodePacked((b))));\n    }\n    function getCommonElementsCount(string[] memory list1, string[] memory list2,uint setLength1,uint setLength2) public pure returns (uint){\n\n        uint commonElementsCount=0;\n        for(uint i=0;i< setLength1;i++){\n            for(uint j=0;j<setLength2;j++){\n                if(compareStrings(list1[i],list2[j])){\n                    commonElementsCount++;\n                    break;\n                }\n            }\n        }\n        return commonElementsCount;\n    }\n\n    function isPresent(string[] memory l1,string memory ele)private pure returns (bool){\n        for(uint i=0;i<l1.length;i++){\n          if(compareStrings(l1[i],ele)){\n            return true;\n          }\n        }\n        return false;\n    }\n    function calculateSimilarityScore(string[] memory l1, string[] memory l2) public pure returns(uint){\n\n\n      string[] memory list1 = new string[](l1.length);   \n      string[] memory list2 = new string[](l2.length);   \n\n      uint setLength1=0;\n      uint setLength2=0;\n\n        for(uint i=0;i<l1.length;i++){\n            if (!isPresent(list1,l1[i])) {\n              list1[setLength1]=l1[i];\n              setLength1++;\n            }\n        } \n  \n        for(uint i=0;i<l2.length;i++){\n            if (!isPresent(list2,l2[i])) {\n              list2[setLength2]=l2[i];\n              setLength2++;\n            }\n        } \n\n        uint commonElementsCount = getCommonElementsCount(list1,list2,setLength1,setLength2);\n        uint unionCount=setLength1+setLength2-commonElementsCount;        \n        \n        return commonElementsCount*100/unionCount;\n    } \n}",
  "sourcePath": "/home/deep/Desktop/Projects/MP/truffle-react/contracts/PlagiarismContract.sol",
  "compiler": {
    "name": "solc",
    "version": "0.8.11+commit.d7f03943.Emscripten.clang"
  },
  "schemaVersion": "3.4.4",
  "updatedAt": "2022-02-02T18:59:06.060Z",
  "devdoc": {
    "kind": "dev",
    "methods": {},
    "version": 1
  },
  "userdoc": {
    "kind": "user",
    "methods": {},
    "version": 1
  }
}