{
  "contractName": "PlagiarismContract",
  "abi": [
    {
      "inputs": [],
      "payable": false,
      "stateMutability": "nonpayable",
      "type": "constructor"
    },
    {
      "anonymous": false,
      "inputs": [
        {
          "indexed": false,
          "internalType": "uint256",
          "name": "fileId",
          "type": "uint256"
        },
        {
          "indexed": false,
          "internalType": "uint256",
          "name": "fileSize",
          "type": "uint256"
        },
        {
          "indexed": false,
          "internalType": "string",
          "name": "fileIPFSHash",
          "type": "string"
        },
        {
          "indexed": false,
          "internalType": "string",
          "name": "fileName",
          "type": "string"
        },
        {
          "indexed": false,
          "internalType": "string",
          "name": "fileDescription",
          "type": "string"
        },
        {
          "indexed": false,
          "internalType": "address",
          "name": "codeAuthor",
          "type": "address"
        },
        {
          "indexed": false,
          "internalType": "uint256",
          "name": "timeUploaded",
          "type": "uint256"
        },
        {
          "indexed": false,
          "internalType": "string",
          "name": "codeFingerPrint",
          "type": "string"
        },
        {
          "indexed": false,
          "internalType": "string[]",
          "name": "hashSet",
          "type": "string[]"
        }
      ],
      "name": "CodeFileUploadEvent",
      "type": "event"
    },
    {
      "anonymous": false,
      "inputs": [
        {
          "indexed": false,
          "internalType": "bool",
          "name": "plagiarisedResult",
          "type": "bool"
        }
      ],
      "name": "PlagiarismResult",
      "type": "event"
    },
    {
      "constant": true,
      "inputs": [],
      "name": "fileCount",
      "outputs": [
        {
          "internalType": "uint256",
          "name": "",
          "type": "uint256"
        }
      ],
      "payable": false,
      "stateMutability": "view",
      "type": "function"
    },
    {
      "constant": true,
      "inputs": [
        {
          "internalType": "uint256",
          "name": "",
          "type": "uint256"
        }
      ],
      "name": "filesMap",
      "outputs": [
        {
          "internalType": "uint256",
          "name": "fileId",
          "type": "uint256"
        },
        {
          "internalType": "uint256",
          "name": "fileSize",
          "type": "uint256"
        },
        {
          "internalType": "string",
          "name": "fileIPFSHash",
          "type": "string"
        },
        {
          "internalType": "string",
          "name": "fileName",
          "type": "string"
        },
        {
          "internalType": "string",
          "name": "fileDescription",
          "type": "string"
        },
        {
          "internalType": "address",
          "name": "codeAuthor",
          "type": "address"
        },
        {
          "internalType": "uint256",
          "name": "timeUploaded",
          "type": "uint256"
        },
        {
          "internalType": "string",
          "name": "codeFingerPrint",
          "type": "string"
        }
      ],
      "payable": false,
      "stateMutability": "view",
      "type": "function"
    },
    {
      "constant": false,
      "inputs": [
        {
          "internalType": "uint256",
          "name": "_fileSize",
          "type": "uint256"
        },
        {
          "internalType": "string",
          "name": "_fileIPFSHash",
          "type": "string"
        },
        {
          "internalType": "string",
          "name": "_fileName",
          "type": "string"
        },
        {
          "internalType": "string",
          "name": "_fileDescription",
          "type": "string"
        },
        {
          "internalType": "string",
          "name": "_codeFingerPrint",
          "type": "string"
        },
        {
          "internalType": "string[]",
          "name": "_hashSet",
          "type": "string[]"
        }
      ],
      "name": "uploadFile",
      "outputs": [],
      "payable": false,
      "stateMutability": "nonpayable",
      "type": "function"
    },
    {
      "constant": true,
      "inputs": [
        {
          "internalType": "uint256",
          "name": "_fileIndex",
          "type": "uint256"
        }
      ],
      "name": "getFileByIndex",
      "outputs": [
        {
          "components": [
            {
              "internalType": "uint256",
              "name": "fileId",
              "type": "uint256"
            },
            {
              "internalType": "uint256",
              "name": "fileSize",
              "type": "uint256"
            },
            {
              "internalType": "string",
              "name": "fileIPFSHash",
              "type": "string"
            },
            {
              "internalType": "string",
              "name": "fileName",
              "type": "string"
            },
            {
              "internalType": "string",
              "name": "fileDescription",
              "type": "string"
            },
            {
              "internalType": "address",
              "name": "codeAuthor",
              "type": "address"
            },
            {
              "internalType": "uint256",
              "name": "timeUploaded",
              "type": "uint256"
            },
            {
              "internalType": "string",
              "name": "codeFingerPrint",
              "type": "string"
            },
            {
              "internalType": "string[]",
              "name": "hashSet",
              "type": "string[]"
            }
          ],
          "internalType": "struct PlagiarismContract.CodeFile",
          "name": "records",
          "type": "tuple"
        }
      ],
      "payable": false,
      "stateMutability": "view",
      "type": "function"
    },
    {
      "constant": true,
      "inputs": [
        {
          "internalType": "string",
          "name": "a",
          "type": "string"
        },
        {
          "internalType": "string",
          "name": "b",
          "type": "string"
        }
      ],
      "name": "compareStrings",
      "outputs": [
        {
          "internalType": "bool",
          "name": "",
          "type": "bool"
        }
      ],
      "payable": false,
      "stateMutability": "pure",
      "type": "function"
    },
    {
      "constant": true,
      "inputs": [
        {
          "internalType": "string[]",
          "name": "list1",
          "type": "string[]"
        },
        {
          "internalType": "string[]",
          "name": "list2",
          "type": "string[]"
        },
        {
          "internalType": "uint256",
          "name": "setLength1",
          "type": "uint256"
        },
        {
          "internalType": "uint256",
          "name": "setLength2",
          "type": "uint256"
        }
      ],
      "name": "getCommonElementsCount",
      "outputs": [
        {
          "internalType": "uint256",
          "name": "",
          "type": "uint256"
        }
      ],
      "payable": false,
      "stateMutability": "pure",
      "type": "function"
    },
    {
      "constant": true,
      "inputs": [
        {
          "internalType": "string[]",
          "name": "l1",
          "type": "string[]"
        },
        {
          "internalType": "string[]",
          "name": "l2",
          "type": "string[]"
        }
      ],
      "name": "calculateSimilarityScore",
      "outputs": [
        {
          "internalType": "uint256",
          "name": "",
          "type": "uint256"
        }
      ],
      "payable": false,
      "stateMutability": "pure",
      "type": "function"
    }
  ],
  "bytecode": "0x60806040526000805534801561001457600080fd5b50611eaf806100246000396000f3fe608060405234801561001057600080fd5b506004361061007d5760003560e01c8063439535191161005b57806343953519146100fe578063790ad0db1461011c578063bed34bba1461014c578063c93bcd911461017c5761007d565b8063097694e1146100825780631320b2e5146100b2578063254f7d2d146100e2575b600080fd5b61009c600480360361009791908101906114aa565b6101b3565b6040516100a99190611a9b565b60405180910390f35b6100cc60048036036100c7919081019061133f565b6105c6565b6040516100d99190611abd565b60405180910390f35b6100fc60048036036100f791908101906114d3565b61075e565b005b610106610a81565b6040516101139190611abd565b60405180910390f35b610136600480360361013191908101906113ab565b610a87565b6040516101439190611abd565b60405180910390f35b6101666004803603610161919081019061143e565b610b14565b6040516101739190611a00565b60405180910390f35b610196600480360361019191908101906114aa565b610b6d565b6040516101aa989796959493929190611b88565b60405180910390f35b6101bb611033565b60016000838152602001908152602001600020604051806101200160405290816000820154815260200160018201548152602001600282018054600181600116156101000203166002900480601f0160208091040260200160405190810160405280929190818152602001828054600181600116156101000203166002900480156102875780601f1061025c57610100808354040283529160200191610287565b820191906000526020600020905b81548152906001019060200180831161026a57829003601f168201915b50505050508152602001600382018054600181600116156101000203166002900480601f0160208091040260200160405190810160405280929190818152602001828054600181600116156101000203166002900480156103295780601f106102fe57610100808354040283529160200191610329565b820191906000526020600020905b81548152906001019060200180831161030c57829003601f168201915b50505050508152602001600482018054600181600116156101000203166002900480601f0160208091040260200160405190810160405280929190818152602001828054600181600116156101000203166002900480156103cb5780601f106103a0576101008083540402835291602001916103cb565b820191906000526020600020905b8154815290600101906020018083116103ae57829003601f168201915b505050505081526020016005820160009054906101000a900473ffffffffffffffffffffffffffffffffffffffff1673ffffffffffffffffffffffffffffffffffffffff1673ffffffffffffffffffffffffffffffffffffffff16815260200160068201548152602001600782018054600181600116156101000203166002900480601f0160208091040260200160405190810160405280929190818152602001828054600181600116156101000203166002900480156104cd5780601f106104a2576101008083540402835291602001916104cd565b820191906000526020600020905b8154815290600101906020018083116104b057829003601f168201915b5050505050815260200160088201805480602002602001604051908101604052809291908181526020016000905b828210156105b7578382906000526020600020018054600181600116156101000203166002900480601f0160208091040260200160405190810160405280929190818152602001828054600181600116156101000203166002900480156105a35780601f10610578576101008083540402835291602001916105a3565b820191906000526020600020905b81548152906001019060200180831161058657829003601f168201915b5050505050815260200190600101906104fb565b50505050815250509050919050565b6000606083516040519080825280602002602001820160405280156105ff57816020015b60608152602001906001900390816105ea5790505b5090506060835160405190808252806020026020018201604052801561063957816020015b60608152602001906001900390816106245790505b5090506000809050600080905060008090505b87518110156106b7576106728589838151811061066557fe5b6020026020010151610e35565b6106aa5787818151811061068257fe5b602002602001015185848151811061069657fe5b602002602001018190525082806001019350505b808060010191505061064c565b5060008090505b8651811015610729576106e4848883815181106106d757fe5b6020026020010151610e35565b61071c578681815181106106f457fe5b602002602001015184838151811061070857fe5b602002602001018190525081806001019250505b80806001019150506106be565b50600061073885858585610a87565b905060008183850103905080606483028161074f57fe5b04965050505050505092915050565b60008551116107a2576040517f08c379a000000000000000000000000000000000000000000000000000000000815260040161079990611a3b565b60405180910390fd5b60008351116107e6576040517f08c379a00000000000000000000000000000000000000000000000000000000081526004016107dd90611a7b565b60405180910390fd5b600084511161082a576040517f08c379a000000000000000000000000000000000000000000000000000000000815260040161082190611a5b565b60405180910390fd5b6000861161086d576040517f08c379a000000000000000000000000000000000000000000000000000000000815260040161086490611a1b565b60405180910390fd5b61087681610e8b565b156108b8577f711784307b11c5f98f3bc25170dfd6d229d797a0891cb2dd54b1fd406e60fc6d60016040516108ab9190611a00565b60405180910390a1610a79565b600080815480929190600101919050555060405180610120016040528060005481526020018781526020018681526020018581526020018481526020013373ffffffffffffffffffffffffffffffffffffffff16815260200142815260200183815260200182815250600160008054815260200190815260200160002060008201518160000155602082015181600101556040820151816002019080519060200190610965929190611095565b506060820151816003019080519060200190610982929190611095565b50608082015181600401908051906020019061099f929190611095565b5060a08201518160050160006101000a81548173ffffffffffffffffffffffffffffffffffffffff021916908373ffffffffffffffffffffffffffffffffffffffff16021790555060c0820151816006015560e0820151816007019080519060200190610a0d929190611095565b50610100820151816008019080519060200190610a2b929190611115565b509050507f13a353a011afea10f3f02988cf68745c8d65c39e4d9ba5ed33ea73114c76d85b6000548787878733428989604051610a7099989796959493929190611ad8565b60405180910390a15b505050505050565b60005481565b6000806000905060008090505b84811015610b075760008090505b84811015610af957610ada888381518110610ab957fe5b6020026020010151888381518110610acd57fe5b6020026020010151610b14565b15610aec578280600101935050610af9565b8080600101915050610aa2565b508080600101915050610a94565b5080915050949350505050565b600081604051602001610b2791906119e9565b6040516020818303038152906040528051906020012083604051602001610b4e91906119e9565b6040516020818303038152906040528051906020012014905092915050565b6001602052806000526040600020600091509050806000015490806001015490806002018054600181600116156101000203166002900480601f016020809104026020016040519081016040528092919081815260200182805460018160011615610100020316600290048015610c255780601f10610bfa57610100808354040283529160200191610c25565b820191906000526020600020905b815481529060010190602001808311610c0857829003601f168201915b505050505090806003018054600181600116156101000203166002900480601f016020809104026020016040519081016040528092919081815260200182805460018160011615610100020316600290048015610cc35780601f10610c9857610100808354040283529160200191610cc3565b820191906000526020600020905b815481529060010190602001808311610ca657829003601f168201915b505050505090806004018054600181600116156101000203166002900480601f016020809104026020016040519081016040528092919081815260200182805460018160011615610100020316600290048015610d615780601f10610d3657610100808354040283529160200191610d61565b820191906000526020600020905b815481529060010190602001808311610d4457829003601f168201915b5050505050908060050160009054906101000a900473ffffffffffffffffffffffffffffffffffffffff1690806006015490806007018054600181600116156101000203166002900480601f016020809104026020016040519081016040528092919081815260200182805460018160011615610100020316600290048015610e2b5780601f10610e0057610100808354040283529160200191610e2b565b820191906000526020600020905b815481529060010190602001808311610e0e57829003601f168201915b5050505050905088565b600080600090505b8351811015610e7f57610e63848281518110610e5557fe5b602002602001015184610b14565b15610e72576001915050610e85565b8080600101915050610e3d565b50600090505b92915050565b600080610e9783610ebd565b9050600080905080821115610eb157600192505050610eb8565b6000925050505b919050565b6000806000905060008090506000600190505b6000548111610f29576060610ee482610f34565b90506000600190505b81518111610f1a57610eff82886105c6565b935084841115610f0d578394505b8080600101915050610eed565b50508080600101915050610ed0565b508192505050919050565b606060016000838152602001908152602001600020600801805480602002602001604051908101604052809291908181526020016000905b82821015611028578382906000526020600020018054600181600116156101000203166002900480601f0160208091040260200160405190810160405280929190818152602001828054600181600116156101000203166002900480156110145780601f10610fe957610100808354040283529160200191611014565b820191906000526020600020905b815481529060010190602001808311610ff757829003601f168201915b505050505081526020019060010190610f6c565b505050509050919050565b6040518061012001604052806000815260200160008152602001606081526020016060815260200160608152602001600073ffffffffffffffffffffffffffffffffffffffff1681526020016000815260200160608152602001606081525090565b828054600181600116156101000203166002900490600052602060002090601f016020900481019282601f106110d657805160ff1916838001178555611104565b82800160010185558215611104579182015b828111156111035782518255916020019190600101906110e8565b5b5090506111119190611175565b5090565b828054828255906000526020600020908101928215611164579160200282015b82811115611163578251829080519060200190611153929190611095565b5091602001919060010190611135565b5b509050611171919061119a565b5090565b61119791905b8082111561119357600081600090555060010161117b565b5090565b90565b6111c391905b808211156111bf57600081816111b691906111c6565b506001016111a0565b5090565b90565b50805460018160011615610100020316600290046000825580601f106111ec575061120b565b601f01602090049060005260206000209081019061120a9190611175565b5b50565b600082601f83011261121f57600080fd5b813561123261122d82611c4f565b611c22565b9150818183526020840193506020810190508360005b83811015611278578135860161125e8882611282565b845260208401935060208301925050600181019050611248565b5050505092915050565b600082601f83011261129357600080fd5b81356112a66112a182611c77565b611c22565b915080825260208301602083018583830111156112c257600080fd5b6112cd838284611e02565b50505092915050565b600082601f8301126112e757600080fd5b81356112fa6112f582611ca3565b611c22565b9150808252602083016020830185838301111561131657600080fd5b611321838284611e02565b50505092915050565b60008135905061133981611e55565b92915050565b6000806040838503121561135257600080fd5b600083013567ffffffffffffffff81111561136c57600080fd5b6113788582860161120e565b925050602083013567ffffffffffffffff81111561139557600080fd5b6113a18582860161120e565b9150509250929050565b600080600080608085870312156113c157600080fd5b600085013567ffffffffffffffff8111156113db57600080fd5b6113e78782880161120e565b945050602085013567ffffffffffffffff81111561140457600080fd5b6114108782880161120e565b93505060406114218782880161132a565b92505060606114328782880161132a565b91505092959194509250565b6000806040838503121561145157600080fd5b600083013567ffffffffffffffff81111561146b57600080fd5b611477858286016112d6565b925050602083013567ffffffffffffffff81111561149457600080fd5b6114a0858286016112d6565b9150509250929050565b6000602082840312156114bc57600080fd5b60006114ca8482850161132a565b91505092915050565b60008060008060008060c087890312156114ec57600080fd5b60006114fa89828a0161132a565b965050602087013567ffffffffffffffff81111561151757600080fd5b61152389828a016112d6565b955050604087013567ffffffffffffffff81111561154057600080fd5b61154c89828a016112d6565b945050606087013567ffffffffffffffff81111561156957600080fd5b61157589828a016112d6565b935050608087013567ffffffffffffffff81111561159257600080fd5b61159e89828a016112d6565b92505060a087013567ffffffffffffffff8111156115bb57600080fd5b6115c789828a0161120e565b9150509295509295509295565b60006115e08383611778565b905092915050565b6115f181611dcc565b82525050565b61160081611d84565b82525050565b61160f81611d84565b82525050565b600061162082611cfa565b61162a8185611d46565b93508360208202850161163c85611cdf565b8060005b85811015611678578484038952815161165985826115d4565b945061166483611d28565b925060208a01995050600181019050611640565b50829750879550505050505092915050565b600061169582611cef565b61169f8185611d35565b9350836020820285016116b185611ccf565b8060005b858110156116ed57848403895281516116ce85826115d4565b94506116d983611d1b565b925060208a019950506001810190506116b5565b50829750879550505050505092915050565b61170881611d96565b82525050565b600061171982611d10565b6117238185611d68565b9350611733818560208601611e11565b61173c81611e44565b840191505092915050565b600061175282611d10565b61175c8185611d79565b935061176c818560208601611e11565b80840191505092915050565b600061178382611d05565b61178d8185611d57565b935061179d818560208601611e11565b6117a681611e44565b840191505092915050565b60006117bc82611d05565b6117c68185611d68565b93506117d6818560208601611e11565b6117df81611e44565b840191505092915050565b60006117f7601283611d68565b91507f436f646546696c652073697a65206973203000000000000000000000000000006000830152602082019050919050565b6000611837601683611d68565b91507f436f646546696c65204861736820697320656d707479000000000000000000006000830152602082019050919050565b6000611877601683611d68565b91507f436f646546696c65206e616d6520697320656d707479000000000000000000006000830152602082019050919050565b60006118b7601d83611d68565b91507f436f646546696c65206465736372697074696f6e20697320656d7074790000006000830152602082019050919050565b60006101208301600083015161190360008601826119cb565b50602083015161191660208601826119cb565b506040830151848203604086015261192e8282611778565b915050606083015184820360608601526119488282611778565b915050608083015184820360808601526119628282611778565b91505060a083015161197760a08601826115f7565b5060c083015161198a60c08601826119cb565b5060e083015184820360e08601526119a28282611778565b9150506101008301518482036101008601526119be828261168a565b9150508091505092915050565b6119d481611dc2565b82525050565b6119e381611dc2565b82525050565b60006119f58284611747565b915081905092915050565b6000602082019050611a1560008301846116ff565b92915050565b60006020820190508181036000830152611a34816117ea565b9050919050565b60006020820190508181036000830152611a548161182a565b9050919050565b60006020820190508181036000830152611a748161186a565b9050919050565b60006020820190508181036000830152611a94816118aa565b9050919050565b60006020820190508181036000830152611ab581846118ea565b905092915050565b6000602082019050611ad260008301846119da565b92915050565b600061012082019050611aee600083018c6119da565b611afb602083018b6119da565b8181036040830152611b0d818a61170e565b90508181036060830152611b21818961170e565b90508181036080830152611b35818861170e565b9050611b4460a08301876115e8565b611b5160c08301866119da565b81810360e0830152611b63818561170e565b9050818103610100830152611b788184611615565b90509a9950505050505050505050565b600061010082019050611b9e600083018b6119da565b611bab602083018a6119da565b8181036040830152611bbd81896117b1565b90508181036060830152611bd181886117b1565b90508181036080830152611be581876117b1565b9050611bf460a0830186611606565b611c0160c08301856119da565b81810360e0830152611c1381846117b1565b90509998505050505050505050565b6000604051905081810181811067ffffffffffffffff82111715611c4557600080fd5b8060405250919050565b600067ffffffffffffffff821115611c6657600080fd5b602082029050602081019050919050565b600067ffffffffffffffff821115611c8e57600080fd5b601f19601f8301169050602081019050919050565b600067ffffffffffffffff821115611cba57600080fd5b601f19601f8301169050602081019050919050565b6000819050602082019050919050565b6000819050602082019050919050565b600081519050919050565b600081519050919050565b600081519050919050565b600081519050919050565b6000602082019050919050565b6000602082019050919050565b600082825260208201905092915050565b600082825260208201905092915050565b600082825260208201905092915050565b600082825260208201905092915050565b600081905092915050565b6000611d8f82611da2565b9050919050565b60008115159050919050565b600073ffffffffffffffffffffffffffffffffffffffff82169050919050565b6000819050919050565b6000611dd782611dde565b9050919050565b6000611de982611df0565b9050919050565b6000611dfb82611da2565b9050919050565b82818337600083830152505050565b60005b83811015611e2f578082015181840152602081019050611e14565b83811115611e3e576000848401525b50505050565b6000601f19601f8301169050919050565b611e5e81611dc2565b8114611e6957600080fd5b5056fea365627a7a723158205075b40a2587b759f1e0d9441afa76d9aa1d7d145b45c3c0fef4cf55a4d7a63c6c6578706572696d656e74616cf564736f6c63430005100040",
  "source": "// SPDX-License-Identifier: MIT\npragma solidity >=0.4.22 <0.9.0;\npragma experimental ABIEncoderV2;\n\n// import \"@openzeppelin/contracts-ethereum-package/contracts/GSN/GSNRecipient.sol\";\n\n\ncontract PlagiarismContract  {\n\n  struct CodeFile{\n    uint fileId;\n    uint fileSize;\n    string fileIPFSHash;\n    string fileName;\n    string fileDescription;\n    address codeAuthor;\n    uint timeUploaded;    \n    string codeFingerPrint;\n    string [] hashSet;\n  }\n\n  uint public fileCount = 0;\n  mapping(uint=>CodeFile) public filesMap;\n\n\n  event CodeFileUploadEvent(\n    uint fileId,\n    uint fileSize,\n    string fileIPFSHash,\n    string fileName,\n    string fileDescription,\n    address codeAuthor,\n    uint timeUploaded ,\n    string codeFingerPrint,\n    string [] hashSet\n  ) ;\n\n  event PlagiarismResult(\n    bool plagiarisedResult\n  );\n  constructor() public {\n  }\n\n  function uploadFile(uint _fileSize, string memory _fileIPFSHash, string memory _fileName,string memory _fileDescription, string memory _codeFingerPrint, string [] memory _hashSet) public {\n    require(bytes(_fileIPFSHash).length > 0, \"CodeFile Hash is empty\");\n\n    require(bytes(_fileDescription).length > 0, \"CodeFile description is empty\");\n\n    require(bytes(_fileName).length > 0, \"CodeFile name is empty\");\n\n    require(_fileSize>0, \"CodeFile size is 0\");\n\n    if(checkIfPlagiarised(_hashSet)){\n      emit PlagiarismResult(true);\n    }\n    else{\n      fileCount++;\n\n      filesMap[fileCount] = CodeFile(fileCount,_fileSize,_fileIPFSHash, _fileName, _fileDescription,msg.sender,block.timestamp,_codeFingerPrint,_hashSet);\n\n      emit CodeFileUploadEvent(fileCount,_fileSize,_fileIPFSHash, _fileName, _fileDescription,msg.sender,block.timestamp,_codeFingerPrint,_hashSet);\n    }\n  }\n\n    function getFileByIndex(uint _fileIndex)\n        public\n        view\n        returns (CodeFile memory records)\n    {\n        return filesMap[_fileIndex];\n    }\n\n    function getFileHashSet(uint _fileIndex) private\n        view\n        returns (string [] memory )\n    {\n        return filesMap[_fileIndex].hashSet;\n    }\n\n    function checkIfPlagiarised( string [] memory _hashSet)private  returns(bool){\n      uint similarityScore = getMaximumSimilarityScore(_hashSet);\n      \n      uint thresholdSimilarity=0;\n      if(similarityScore>thresholdSimilarity)\n        return true;\n      else\n        return false;\n    }\n\n    function getMaximumSimilarityScore( string [] memory _hashSet) private view returns (uint){\n      uint maxSimilarity=0;\n      uint similarity=0;\n      for(uint i=1;i<=fileCount;i++){\n        string [] memory existingFilehashSet=getFileHashSet(i);\n        for(uint j=1;j<=existingFilehashSet.length;j++){\n          //TODO\n          // uint similarity=getSimilarity();\n          similarity=calculateSimilarityScore(existingFilehashSet,_hashSet);\n          if(similarity>maxSimilarity){\n            maxSimilarity=similarity;\n          }\n        }\n      }\n      return maxSimilarity;\n    }\n\nfunction compareStrings(string memory a, string memory b) public pure returns (bool) {\n        return (keccak256(abi.encodePacked((a))) == keccak256(abi.encodePacked((b))));\n    }\n    function getCommonElementsCount(string[] memory list1, string[] memory list2,uint setLength1,uint setLength2) public pure returns (uint){\n\n        uint commonElementsCount=0;\n        for(uint i=0;i< setLength1;i++){\n            for(uint j=0;j<setLength2;j++){\n                if(compareStrings(list1[i],list2[j])){\n                    commonElementsCount++;\n                    break;\n                }\n            }\n        }\n        return commonElementsCount;\n    }\n\n    function isPresent(string[] memory l1,string memory ele)private pure returns (bool){\n        for(uint i=0;i<l1.length;i++){\n          if(compareStrings(l1[i],ele)){\n            return true;\n          }\n        }\n        return false;\n    }\n    function calculateSimilarityScore(string[] memory l1, string[] memory l2) public pure returns(uint){\n\n\n      string[] memory list1 = new string[](l1.length);   \n      string[] memory list2 = new string[](l2.length);   \n\n      uint setLength1=0;\n      uint setLength2=0;\n\n        for(uint i=0;i<l1.length;i++){\n            if (!isPresent(list1,l1[i])) {\n              list1[setLength1]=l1[i];\n              setLength1++;\n            }\n        } \n  \n        for(uint i=0;i<l2.length;i++){\n            if (!isPresent(list2,l2[i])) {\n              list2[setLength2]=l2[i];\n              setLength2++;\n            }\n        } \n\n        uint commonElementsCount = getCommonElementsCount(list1,list2,setLength1,setLength2);\n        uint unionCount=setLength1+setLength2-commonElementsCount;        \n        \n        return commonElementsCount*100/unionCount;\n    } \n}",
  "sourcePath": "/home/deep/Desktop/Projects/MP/truffle-react/contracts/PlagiarismContract.sol",
  "compiler": {
    "name": "solc",
    "version": "0.5.16+commit.9c3226ce.Emscripten.clang"
  },
  "schemaVersion": "3.4.4",
  "updatedAt": "2022-01-25T14:33:01.357Z",
  "networkType": "ethereum",
  "devdoc": {
    "methods": {}
  },
  "userdoc": {
    "methods": {}
  }
}