{
  "contractName": "PlagiarismContract",
  "abi": [
    {
      "anonymous": false,
      "inputs": [
        {
          "indexed": false,
          "internalType": "uint256",
          "name": "timeUploaded",
          "type": "uint256"
        },
        {
          "indexed": false,
          "internalType": "string",
          "name": "fileName",
          "type": "string"
        },
        {
          "indexed": false,
          "internalType": "uint256",
          "name": "language",
          "type": "uint256"
        }
      ],
      "name": "CheckingPlagiarism",
      "type": "event"
    },
    {
      "anonymous": false,
      "inputs": [
        {
          "indexed": false,
          "internalType": "uint256",
          "name": "fileId",
          "type": "uint256"
        },
        {
          "indexed": false,
          "internalType": "uint256",
          "name": "fileSize",
          "type": "uint256"
        },
        {
          "indexed": false,
          "internalType": "string",
          "name": "fileIPFSCID",
          "type": "string"
        },
        {
          "indexed": false,
          "internalType": "string",
          "name": "fileName",
          "type": "string"
        },
        {
          "indexed": false,
          "internalType": "string",
          "name": "fileDescription",
          "type": "string"
        },
        {
          "indexed": false,
          "internalType": "address",
          "name": "codeAuthor",
          "type": "address"
        },
        {
          "indexed": false,
          "internalType": "uint256",
          "name": "timeUploaded",
          "type": "uint256"
        },
        {
          "indexed": false,
          "internalType": "string",
          "name": "codeFingerPrint",
          "type": "string"
        },
        {
          "indexed": false,
          "internalType": "bytes16[]",
          "name": "hashSet",
          "type": "bytes16[]"
        },
        {
          "indexed": false,
          "internalType": "uint256",
          "name": "hashSetLength",
          "type": "uint256"
        },
        {
          "indexed": false,
          "internalType": "uint256",
          "name": "language",
          "type": "uint256"
        }
      ],
      "name": "CodeFileUploadEvent",
      "type": "event"
    },
    {
      "anonymous": false,
      "inputs": [
        {
          "indexed": false,
          "internalType": "uint256",
          "name": "timeUploaded",
          "type": "uint256"
        },
        {
          "indexed": false,
          "internalType": "string",
          "name": "fileName",
          "type": "string"
        },
        {
          "indexed": false,
          "internalType": "uint256",
          "name": "language",
          "type": "uint256"
        }
      ],
      "name": "CodeSubmitted",
      "type": "event"
    },
    {
      "anonymous": false,
      "inputs": [
        {
          "components": [
            {
              "internalType": "uint256",
              "name": "fileId",
              "type": "uint256"
            },
            {
              "internalType": "uint256",
              "name": "fileSize",
              "type": "uint256"
            },
            {
              "internalType": "string",
              "name": "fileIPFSCID",
              "type": "string"
            },
            {
              "internalType": "string",
              "name": "fileName",
              "type": "string"
            },
            {
              "internalType": "string",
              "name": "fileDescription",
              "type": "string"
            },
            {
              "internalType": "address",
              "name": "codeAuthor",
              "type": "address"
            },
            {
              "internalType": "uint256",
              "name": "timeUploaded",
              "type": "uint256"
            },
            {
              "internalType": "string",
              "name": "codeFingerPrint",
              "type": "string"
            },
            {
              "internalType": "bytes16[]",
              "name": "hashSet",
              "type": "bytes16[]"
            },
            {
              "internalType": "uint256",
              "name": "hashSetLength",
              "type": "uint256"
            },
            {
              "internalType": "uint256",
              "name": "language",
              "type": "uint256"
            }
          ],
          "indexed": false,
          "internalType": "struct PlagiarismContract.CodeFile[]",
          "name": "codefiles",
          "type": "tuple[]"
        }
      ],
      "name": "GetFilesEvent",
      "type": "event"
    },
    {
      "anonymous": false,
      "inputs": [
        {
          "indexed": false,
          "internalType": "bool",
          "name": "plagiarisedResult",
          "type": "bool"
        },
        {
          "indexed": false,
          "internalType": "uint256",
          "name": "timeUploaded",
          "type": "uint256"
        }
      ],
      "name": "PlagiarismResult",
      "type": "event"
    },
    {
      "inputs": [
        {
          "internalType": "uint256",
          "name": "",
          "type": "uint256"
        }
      ],
      "name": "fileCountByLanguage",
      "outputs": [
        {
          "internalType": "uint256",
          "name": "",
          "type": "uint256"
        }
      ],
      "stateMutability": "view",
      "type": "function",
      "constant": true
    },
    {
      "inputs": [
        {
          "internalType": "uint256",
          "name": "",
          "type": "uint256"
        },
        {
          "internalType": "uint256",
          "name": "",
          "type": "uint256"
        }
      ],
      "name": "filesMapByLanguage",
      "outputs": [
        {
          "internalType": "uint256",
          "name": "fileId",
          "type": "uint256"
        },
        {
          "internalType": "uint256",
          "name": "fileSize",
          "type": "uint256"
        },
        {
          "internalType": "string",
          "name": "fileIPFSCID",
          "type": "string"
        },
        {
          "internalType": "string",
          "name": "fileName",
          "type": "string"
        },
        {
          "internalType": "string",
          "name": "fileDescription",
          "type": "string"
        },
        {
          "internalType": "address",
          "name": "codeAuthor",
          "type": "address"
        },
        {
          "internalType": "uint256",
          "name": "timeUploaded",
          "type": "uint256"
        },
        {
          "internalType": "string",
          "name": "codeFingerPrint",
          "type": "string"
        },
        {
          "internalType": "uint256",
          "name": "hashSetLength",
          "type": "uint256"
        },
        {
          "internalType": "uint256",
          "name": "language",
          "type": "uint256"
        }
      ],
      "stateMutability": "view",
      "type": "function",
      "constant": true
    },
    {
      "inputs": [
        {
          "internalType": "string",
          "name": "",
          "type": "string"
        },
        {
          "internalType": "address",
          "name": "",
          "type": "address"
        }
      ],
      "name": "hasPermissionsMap",
      "outputs": [
        {
          "internalType": "bool",
          "name": "",
          "type": "bool"
        }
      ],
      "stateMutability": "view",
      "type": "function",
      "constant": true
    },
    {
      "inputs": [
        {
          "internalType": "uint256",
          "name": "",
          "type": "uint256"
        }
      ],
      "name": "threshold",
      "outputs": [
        {
          "internalType": "uint256",
          "name": "",
          "type": "uint256"
        }
      ],
      "stateMutability": "view",
      "type": "function",
      "constant": true
    },
    {
      "inputs": [],
      "name": "totalFileCount",
      "outputs": [
        {
          "internalType": "uint256",
          "name": "",
          "type": "uint256"
        }
      ],
      "stateMutability": "view",
      "type": "function",
      "constant": true
    },
    {
      "inputs": [
        {
          "internalType": "address",
          "name": "",
          "type": "address"
        },
        {
          "internalType": "uint256",
          "name": "",
          "type": "uint256"
        },
        {
          "internalType": "uint256",
          "name": "",
          "type": "uint256"
        }
      ],
      "name": "userFilesIndexByLanguage",
      "outputs": [
        {
          "internalType": "uint256",
          "name": "",
          "type": "uint256"
        }
      ],
      "stateMutability": "view",
      "type": "function",
      "constant": true
    },
    {
      "inputs": [
        {
          "internalType": "string",
          "name": "cid",
          "type": "string"
        },
        {
          "internalType": "address",
          "name": "userAddress",
          "type": "address"
        }
      ],
      "name": "doesUserHavePermission",
      "outputs": [
        {
          "internalType": "bool",
          "name": "",
          "type": "bool"
        }
      ],
      "stateMutability": "view",
      "type": "function",
      "constant": true
    },
    {
      "inputs": [
        {
          "internalType": "string",
          "name": "cid",
          "type": "string"
        }
      ],
      "name": "addPermission",
      "outputs": [],
      "stateMutability": "nonpayable",
      "type": "function"
    },
    {
      "inputs": [
        {
          "internalType": "string",
          "name": "cid",
          "type": "string"
        }
      ],
      "name": "removePermission",
      "outputs": [],
      "stateMutability": "nonpayable",
      "type": "function"
    },
    {
      "inputs": [],
      "name": "getFileCount",
      "outputs": [
        {
          "internalType": "uint256",
          "name": "",
          "type": "uint256"
        }
      ],
      "stateMutability": "view",
      "type": "function",
      "constant": true
    },
    {
      "inputs": [],
      "name": "getFilesUploadedByUser",
      "outputs": [
        {
          "components": [
            {
              "internalType": "uint256",
              "name": "fileId",
              "type": "uint256"
            },
            {
              "internalType": "uint256",
              "name": "fileSize",
              "type": "uint256"
            },
            {
              "internalType": "string",
              "name": "fileIPFSCID",
              "type": "string"
            },
            {
              "internalType": "string",
              "name": "fileName",
              "type": "string"
            },
            {
              "internalType": "string",
              "name": "fileDescription",
              "type": "string"
            },
            {
              "internalType": "address",
              "name": "codeAuthor",
              "type": "address"
            },
            {
              "internalType": "uint256",
              "name": "timeUploaded",
              "type": "uint256"
            },
            {
              "internalType": "string",
              "name": "codeFingerPrint",
              "type": "string"
            },
            {
              "internalType": "bytes16[]",
              "name": "hashSet",
              "type": "bytes16[]"
            },
            {
              "internalType": "uint256",
              "name": "hashSetLength",
              "type": "uint256"
            },
            {
              "internalType": "uint256",
              "name": "language",
              "type": "uint256"
            }
          ],
          "internalType": "struct PlagiarismContract.CodeFile[]",
          "name": "",
          "type": "tuple[]"
        }
      ],
      "stateMutability": "view",
      "type": "function",
      "constant": true
    },
    {
      "inputs": [
        {
          "internalType": "uint256",
          "name": "_fileSize",
          "type": "uint256"
        },
        {
          "internalType": "string",
          "name": "_fileIPFSCID",
          "type": "string"
        },
        {
          "internalType": "string",
          "name": "_fileName",
          "type": "string"
        },
        {
          "internalType": "string",
          "name": "_fileDescription",
          "type": "string"
        },
        {
          "internalType": "string",
          "name": "_codeFingerPrint",
          "type": "string"
        },
        {
          "internalType": "bytes16[]",
          "name": "_hashSet",
          "type": "bytes16[]"
        },
        {
          "internalType": "uint256",
          "name": "hashSetLength",
          "type": "uint256"
        },
        {
          "internalType": "uint256",
          "name": "language",
          "type": "uint256"
        }
      ],
      "name": "uploadFile",
      "outputs": [],
      "stateMutability": "nonpayable",
      "type": "function"
    },
    {
      "inputs": [
        {
          "internalType": "uint256",
          "name": "_fileIndex",
          "type": "uint256"
        },
        {
          "internalType": "uint256",
          "name": "language",
          "type": "uint256"
        }
      ],
      "name": "getFileByIndex",
      "outputs": [
        {
          "components": [
            {
              "internalType": "uint256",
              "name": "fileId",
              "type": "uint256"
            },
            {
              "internalType": "uint256",
              "name": "fileSize",
              "type": "uint256"
            },
            {
              "internalType": "string",
              "name": "fileIPFSCID",
              "type": "string"
            },
            {
              "internalType": "string",
              "name": "fileName",
              "type": "string"
            },
            {
              "internalType": "string",
              "name": "fileDescription",
              "type": "string"
            },
            {
              "internalType": "address",
              "name": "codeAuthor",
              "type": "address"
            },
            {
              "internalType": "uint256",
              "name": "timeUploaded",
              "type": "uint256"
            },
            {
              "internalType": "string",
              "name": "codeFingerPrint",
              "type": "string"
            },
            {
              "internalType": "bytes16[]",
              "name": "hashSet",
              "type": "bytes16[]"
            },
            {
              "internalType": "uint256",
              "name": "hashSetLength",
              "type": "uint256"
            },
            {
              "internalType": "uint256",
              "name": "language",
              "type": "uint256"
            }
          ],
          "internalType": "struct PlagiarismContract.CodeFile",
          "name": "records",
          "type": "tuple"
        }
      ],
      "stateMutability": "view",
      "type": "function",
      "constant": true
    },
    {
      "inputs": [
        {
          "internalType": "string",
          "name": "_fileName",
          "type": "string"
        },
        {
          "internalType": "bytes16[]",
          "name": "_hashSet",
          "type": "bytes16[]"
        },
        {
          "internalType": "uint256",
          "name": "hashSetLength",
          "type": "uint256"
        },
        {
          "internalType": "uint256",
          "name": "language",
          "type": "uint256"
        }
      ],
      "name": "checkIfPlagiarised",
      "outputs": [
        {
          "internalType": "bool",
          "name": "",
          "type": "bool"
        }
      ],
      "stateMutability": "nonpayable",
      "type": "function"
    },
    {
      "inputs": [
        {
          "internalType": "bytes16[]",
          "name": "list1",
          "type": "bytes16[]"
        },
        {
          "internalType": "bytes16[]",
          "name": "list2",
          "type": "bytes16[]"
        },
        {
          "internalType": "uint256",
          "name": "setLength1",
          "type": "uint256"
        },
        {
          "internalType": "uint256",
          "name": "setLength2",
          "type": "uint256"
        }
      ],
      "name": "getCommonElementsCount",
      "outputs": [
        {
          "internalType": "uint256",
          "name": "",
          "type": "uint256"
        }
      ],
      "stateMutability": "pure",
      "type": "function",
      "constant": true
    },
    {
      "inputs": [
        {
          "internalType": "bytes16[]",
          "name": "l1",
          "type": "bytes16[]"
        },
        {
          "internalType": "bytes16[]",
          "name": "l2",
          "type": "bytes16[]"
        },
        {
          "internalType": "uint256",
          "name": "l1OriLength",
          "type": "uint256"
        },
        {
          "internalType": "uint256",
          "name": "l2OriLength",
          "type": "uint256"
        }
      ],
      "name": "calculateSimilarityScore",
      "outputs": [
        {
          "internalType": "uint256",
          "name": "",
          "type": "uint256"
        }
      ],
      "stateMutability": "pure",
      "type": "function",
      "constant": true
    }
  ],
  "bytecode": "0x60806040526040518060600160405280600060ff168152602001600060ff168152602001600060ff1681525060009060036200003d92919062000091565b5060006001556040518060600160405280601e60ff168152602001601e60ff168152602001601e60ff1681525060029060036200007c92919062000091565b503480156200008a57600080fd5b5062000107565b828054828255906000526020600020908101928215620000d5579160200282015b82811115620000d4578251829060ff16905591602001919060010190620000b2565b5b509050620000e49190620000e8565b5090565b5b8082111562000103576000816000905550600101620000e9565b5090565b612a3680620001176000396000f3fe608060405234801561001057600080fd5b50600436106101005760003560e01c806397f42b1a11610097578063bab50cc911610066578063bab50cc914610302578063ca749bec14610320578063d11e44d61461033c578063ee7e64f71461036c57610100565b806397f42b1a146102425780639e199566146102725780639ecefadc146102a2578063a89796cc146102d257610100565b806351887b71116100d357806351887b71146101b15780635836e03d146101cf57806360ff2aac146101eb5780637f9d4b4a1461022457610100565b80630641e449146101055780630d665ad11461013557806331eb7a1a146101655780634217649f14610195575b600080fd5b61011f600480360381019061011a9190611925565b61039c565b60405161012c9190611961565b60405180910390f35b61014f600480360381019061014a9190611b2d565b6103c0565b60405161015c9190611961565b60405180910390f35b61017f600480360381019061017a9190611925565b610412565b60405161018c9190611961565b60405180910390f35b6101af60048036038101906101aa9190611c81565b610436565b005b6101b96104ad565b6040516101c6919061202d565b60405180910390f35b6101e960048036038101906101e49190611c81565b61087b565b005b6102056004803603810190610200919061204f565b6108f2565b60405161021b9a999897969594939291906120e8565b60405180910390f35b61022c610b93565b6040516102399190611961565b60405180910390f35b61025c600480360381019061025791906121cc565b610b99565b6040516102699190611961565b60405180910390f35b61028c6004803603810190610287919061221f565b610bd7565b6040516102999190612296565b60405180910390f35b6102bc60048036038101906102b79190611b2d565b610c1c565b6040516102c99190611961565b60405180910390f35b6102ec60048036038101906102e7919061221f565b610ce1565b6040516102f99190612296565b60405180910390f35b61030a610d54565b6040516103179190611961565b60405180910390f35b61033a600480360381019061033591906122b1565b610d5e565b005b610356600480360381019061035191906123f3565b61118e565b6040516103639190612296565b60405180910390f35b6103866004803603810190610381919061204f565b61127d565b604051610393919061259d565b60405180910390f35b600081815481106103ac57600080fd5b906000526020600020016000915090505481565b6000806103d1868688518851610c1c565b905060008184866103e291906125ee565b6103ec9190612644565b9050806064836103fc9190612678565b6104069190612701565b92505050949350505050565b6002818154811061042257600080fd5b906000526020600020016000915090505481565b6000600682604051610448919061276e565b908152602001604051809103902060003373ffffffffffffffffffffffffffffffffffffffff1673ffffffffffffffffffffffffffffffffffffffff16815260200190815260200160002060006101000a81548160ff02191690831515021790555050565b60606000600460003373ffffffffffffffffffffffffffffffffffffffff1673ffffffffffffffffffffffffffffffffffffffff16815260200190815260200160002060008081526020019081526020016000208054905090506000600460003373ffffffffffffffffffffffffffffffffffffffff1673ffffffffffffffffffffffffffffffffffffffff1681526020019081526020016000206000600181526020019081526020016000208054905090506000600460003373ffffffffffffffffffffffffffffffffffffffff1673ffffffffffffffffffffffffffffffffffffffff16815260200190815260200160002060006002815260200190815260200160002080549050905060008184846105c891906125ee565b6105d291906125ee565b67ffffffffffffffff8111156105eb576105ea611992565b5b60405190808252806020026020018201604052801561062457816020015b610611611703565b8152602001906001900390816106095790505b5090506000805b858110156106e9576106aa600460003373ffffffffffffffffffffffffffffffffffffffff1673ffffffffffffffffffffffffffffffffffffffff1681526020019081526020016000206000808152602001908152602001600020828154811061069857610697612785565b5b9060005260206000200154600061127d565b8383815181106106bd576106bc612785565b5b602002602001018190525081806106d3906127b4565b92505080806106e1906127b4565b91505061062b565b5060005b848110156107ac5761076d600460003373ffffffffffffffffffffffffffffffffffffffff1673ffffffffffffffffffffffffffffffffffffffff168152602001908152602001600020600060018152602001908152602001600020828154811061075b5761075a612785565b5b9060005260206000200154600161127d565b8383815181106107805761077f612785565b5b60200260200101819052508180610796906127b4565b92505080806107a4906127b4565b9150506106ed565b5060005b8381101561086f57610830600460003373ffffffffffffffffffffffffffffffffffffffff1673ffffffffffffffffffffffffffffffffffffffff168152602001908152602001600020600060028152602001908152602001600020828154811061081e5761081d612785565b5b9060005260206000200154600261127d565b83838151811061084357610842612785565b5b60200260200101819052508180610859906127b4565b9250508080610867906127b4565b9150506107b0565b50819550505050505090565b600160068260405161088d919061276e565b908152602001604051809103902060003373ffffffffffffffffffffffffffffffffffffffff1673ffffffffffffffffffffffffffffffffffffffff16815260200190815260200160002060006101000a81548160ff02191690831515021790555050565b60036020528160005260406000206020528060005260406000206000915091505080600001549080600101549080600201805461092e9061282b565b80601f016020809104026020016040519081016040528092919081815260200182805461095a9061282b565b80156109a75780601f1061097c576101008083540402835291602001916109a7565b820191906000526020600020905b81548152906001019060200180831161098a57829003601f168201915b5050505050908060030180546109bc9061282b565b80601f01602080910402602001604051908101604052809291908181526020018280546109e89061282b565b8015610a355780601f10610a0a57610100808354040283529160200191610a35565b820191906000526020600020905b815481529060010190602001808311610a1857829003601f168201915b505050505090806004018054610a4a9061282b565b80601f0160208091040260200160405190810160405280929190818152602001828054610a769061282b565b8015610ac35780601f10610a9857610100808354040283529160200191610ac3565b820191906000526020600020905b815481529060010190602001808311610aa657829003601f168201915b5050505050908060050160009054906101000a900473ffffffffffffffffffffffffffffffffffffffff1690806006015490806007018054610b049061282b565b80601f0160208091040260200160405190810160405280929190818152602001828054610b309061282b565b8015610b7d5780601f10610b5257610100808354040283529160200191610b7d565b820191906000526020600020905b815481529060010190602001808311610b6057829003601f168201915b50505050509080600901549080600a015490508a565b60015481565b60046020528260005260406000206020528160005260406000208181548110610bc157600080fd5b9060005260206000200160009250925050505481565b6006828051602081018201805184825260208301602085012081835280955050505050506020528060005260406000206000915091509054906101000a900460ff1681565b6000806000905060005b84811015610cd45760005b84811015610cc057868181518110610c4c57610c4b612785565b5b60200260200101516fffffffffffffffffffffffffffffffff1916888381518110610c7a57610c79612785565b5b60200260200101516fffffffffffffffffffffffffffffffff191603610cad578280610ca5906127b4565b935050610cc0565b8080610cb8906127b4565b915050610c31565b508080610ccc906127b4565b915050610c26565b5080915050949350505050565b6000600683604051610cf3919061276e565b908152602001604051809103902060008373ffffffffffffffffffffffffffffffffffffffff1673ffffffffffffffffffffffffffffffffffffffff16815260200190815260200160002060009054906101000a900460ff16905092915050565b6000600154905090565b7f90a4de5c450d2bbdd8a9564fb9646ea0df44cf5dbb8e4bed1c6f806b7b37e57e428783604051610d919392919061285c565b60405180910390a160011515600588604051610dad919061276e565b908152602001604051809103902060009054906101000a900460ff16151503610e0f577f33baf730752a6c778112e3ee4c2e8bd128e07d02117675aa7c7feec6dd8b51db600142604051610e0292919061289a565b60405180910390a1611184565b610e1b8684848461118e565b15610e5f577f33baf730752a6c778112e3ee4c2e8bd128e07d02117675aa7c7feec6dd8b51db600142604051610e5292919061289a565b60405180910390a1611183565b610e688761087b565b60008181548110610e7c57610e7b612785565b5b906000526020600020016000815480929190610e97906127b4565b919050555060016000815480929190610eaf906127b4565b91905055506001600588604051610ec6919061276e565b908152602001604051809103902060006101000a81548160ff02191690831515021790555060405180610160016040528060015481526020018981526020018881526020018781526020018681526020013373ffffffffffffffffffffffffffffffffffffffff16815260200142815260200185815260200184815260200183815260200182815250600360008381526020019081526020016000206000808481548110610f7757610f76612785565b5b9060005260206000200154815260200190815260200160002060008201518160000155602082015181600101556040820151816002019080519060200190610fc0929190611773565b506060820151816003019080519060200190610fdd929190611773565b506080820151816004019080519060200190610ffa929190611773565b5060a08201518160050160006101000a81548173ffffffffffffffffffffffffffffffffffffffff021916908373ffffffffffffffffffffffffffffffffffffffff16021790555060c0820151816006015560e0820151816007019080519060200190611068929190611773565b506101008201518160080190805190602001906110869291906117f9565b50610120820151816009015561014082015181600a0155905050600460003373ffffffffffffffffffffffffffffffffffffffff1673ffffffffffffffffffffffffffffffffffffffff16815260200190815260200160002060008281526020019081526020016000206000828154811061110457611103612785565b5b906000526020600020015490806001815401808255809150506001900390600052602060002001600090919091909150557f3f57d78cc64cf92f6e3395a2500653142d55d8ccce3c2822cc104fc2f7aa7fbb6001548989898933428b8b8b8b60405161117a9b9a99989796959493929190612932565b60405180910390a15b5b5050505050505050565b600080600090507f07ecc4d2c84ccebeededec1ffd783fb95395d34ea2aec93c939cd704166d409b4287856040516111c89392919061285c565b60405180910390a16000600190505b600084815481106111eb576111ea612785565b5b9060005260206000200154811161126e576000611208828661161b565b9050600061121683876116d1565b9050611224888389846103c0565b93506002868154811061123a57611239612785565b5b9060005260206000200154841115611259576001945050505050611275565b50508080611266906127b4565b9150506111d7565b5060009150505b949350505050565b611285611703565b6003600083815260200190815260200160002060008481526020019081526020016000206040518061016001604052908160008201548152602001600182015481526020016002820180546112d99061282b565b80601f01602080910402602001604051908101604052809291908181526020018280546113059061282b565b80156113525780601f1061132757610100808354040283529160200191611352565b820191906000526020600020905b81548152906001019060200180831161133557829003601f168201915b5050505050815260200160038201805461136b9061282b565b80601f01602080910402602001604051908101604052809291908181526020018280546113979061282b565b80156113e45780601f106113b9576101008083540402835291602001916113e4565b820191906000526020600020905b8154815290600101906020018083116113c757829003601f168201915b505050505081526020016004820180546113fd9061282b565b80601f01602080910402602001604051908101604052809291908181526020018280546114299061282b565b80156114765780601f1061144b57610100808354040283529160200191611476565b820191906000526020600020905b81548152906001019060200180831161145957829003601f168201915b505050505081526020016005820160009054906101000a900473ffffffffffffffffffffffffffffffffffffffff1673ffffffffffffffffffffffffffffffffffffffff1673ffffffffffffffffffffffffffffffffffffffff168152602001600682015481526020016007820180546114ef9061282b565b80601f016020809104026020016040519081016040528092919081815260200182805461151b9061282b565b80156115685780601f1061153d57610100808354040283529160200191611568565b820191906000526020600020905b81548152906001019060200180831161154b57829003601f168201915b50505050508152602001600882018054806020026020016040519081016040528092919081815260200182805480156115f657602002820191906000526020600020906000905b82829054906101000a900460801b6fffffffffffffffffffffffffffffffff191681526020019060100190602082600f010492830192600103820291508084116115af5790505b5050505050815260200160098201548152602001600a82015481525050905092915050565b60606003600083815260200190815260200160002060008481526020019081526020016000206008018054806020026020016040519081016040528092919081815260200182805480156116c457602002820191906000526020600020906000905b82829054906101000a900460801b6fffffffffffffffffffffffffffffffff191681526020019060100190602082600f0104928301926001038202915080841161167d5790505b5050505050905092915050565b600060036000838152602001908152602001600020600084815260200190815260200160002060090154905092915050565b6040518061016001604052806000815260200160008152602001606081526020016060815260200160608152602001600073ffffffffffffffffffffffffffffffffffffffff16815260200160008152602001606081526020016060815260200160008152602001600081525090565b82805461177f9061282b565b90600052602060002090601f0160209004810192826117a157600085556117e8565b82601f106117ba57805160ff19168380011785556117e8565b828001600101855582156117e8579182015b828111156117e75782518255916020019190600101906117cc565b5b5090506117f591906118be565b5090565b828054828255906000526020600020906001016002900481019282156118ad5791602002820160005b8382111561186f57835183826101000a8154816fffffffffffffffffffffffffffffffff021916908360801c02179055509260200192601001602081600f01049283019260010302611822565b80156118ab5782816101000a8154906fffffffffffffffffffffffffffffffff0219169055601001602081600f0104928301926001030261186f565b505b5090506118ba91906118be565b5090565b5b808211156118d75760008160009055506001016118bf565b5090565b6000604051905090565b600080fd5b600080fd5b6000819050919050565b611902816118ef565b811461190d57600080fd5b50565b60008135905061191f816118f9565b92915050565b60006020828403121561193b5761193a6118e5565b5b600061194984828501611910565b91505092915050565b61195b816118ef565b82525050565b60006020820190506119766000830184611952565b92915050565b600080fd5b6000601f19601f8301169050919050565b7f4e487b7100000000000000000000000000000000000000000000000000000000600052604160045260246000fd5b6119ca82611981565b810181811067ffffffffffffffff821117156119e9576119e8611992565b5b80604052505050565b60006119fc6118db565b9050611a0882826119c1565b919050565b600067ffffffffffffffff821115611a2857611a27611992565b5b602082029050602081019050919050565b600080fd5b60007fffffffffffffffffffffffffffffffff0000000000000000000000000000000082169050919050565b611a7381611a3e565b8114611a7e57600080fd5b50565b600081359050611a9081611a6a565b92915050565b6000611aa9611aa484611a0d565b6119f2565b90508083825260208201905060208402830185811115611acc57611acb611a39565b5b835b81811015611af55780611ae18882611a81565b845260208401935050602081019050611ace565b5050509392505050565b600082601f830112611b1457611b1361197c565b5b8135611b24848260208601611a96565b91505092915050565b60008060008060808587031215611b4757611b466118e5565b5b600085013567ffffffffffffffff811115611b6557611b646118ea565b5b611b7187828801611aff565b945050602085013567ffffffffffffffff811115611b9257611b916118ea565b5b611b9e87828801611aff565b9350506040611baf87828801611910565b9250506060611bc087828801611910565b91505092959194509250565b600080fd5b600067ffffffffffffffff821115611bec57611beb611992565b5b611bf582611981565b9050602081019050919050565b82818337600083830152505050565b6000611c24611c1f84611bd1565b6119f2565b905082815260208101848484011115611c4057611c3f611bcc565b5b611c4b848285611c02565b509392505050565b600082601f830112611c6857611c6761197c565b5b8135611c78848260208601611c11565b91505092915050565b600060208284031215611c9757611c966118e5565b5b600082013567ffffffffffffffff811115611cb557611cb46118ea565b5b611cc184828501611c53565b91505092915050565b600081519050919050565b600082825260208201905092915050565b6000819050602082019050919050565b611cff816118ef565b82525050565b600081519050919050565b600082825260208201905092915050565b60005b83811015611d3f578082015181840152602081019050611d24565b83811115611d4e576000848401525b50505050565b6000611d5f82611d05565b611d698185611d10565b9350611d79818560208601611d21565b611d8281611981565b840191505092915050565b600073ffffffffffffffffffffffffffffffffffffffff82169050919050565b6000611db882611d8d565b9050919050565b611dc881611dad565b82525050565b600081519050919050565b600082825260208201905092915050565b6000819050602082019050919050565b611e0381611a3e565b82525050565b6000611e158383611dfa565b60208301905092915050565b6000602082019050919050565b6000611e3982611dce565b611e438185611dd9565b9350611e4e83611dea565b8060005b83811015611e7f578151611e668882611e09565b9750611e7183611e21565b925050600181019050611e52565b5085935050505092915050565b600061016083016000830151611ea56000860182611cf6565b506020830151611eb86020860182611cf6565b5060408301518482036040860152611ed08282611d54565b91505060608301518482036060860152611eea8282611d54565b91505060808301518482036080860152611f048282611d54565b91505060a0830151611f1960a0860182611dbf565b5060c0830151611f2c60c0860182611cf6565b5060e083015184820360e0860152611f448282611d54565b915050610100830151848203610100860152611f608282611e2e565b915050610120830151611f77610120860182611cf6565b50610140830151611f8c610140860182611cf6565b508091505092915050565b6000611fa38383611e8c565b905092915050565b6000602082019050919050565b6000611fc382611cca565b611fcd8185611cd5565b935083602082028501611fdf85611ce6565b8060005b8581101561201b5784840389528151611ffc8582611f97565b945061200783611fab565b925060208a01995050600181019050611fe3565b50829750879550505050505092915050565b600060208201905081810360008301526120478184611fb8565b905092915050565b60008060408385031215612066576120656118e5565b5b600061207485828601611910565b925050602061208585828601611910565b9150509250929050565b600082825260208201905092915050565b60006120ab82611d05565b6120b5818561208f565b93506120c5818560208601611d21565b6120ce81611981565b840191505092915050565b6120e281611dad565b82525050565b6000610140820190506120fe600083018d611952565b61210b602083018c611952565b818103604083015261211d818b6120a0565b90508181036060830152612131818a6120a0565b9050818103608083015261214581896120a0565b905061215460a08301886120d9565b61216160c0830187611952565b81810360e083015261217381866120a0565b9050612183610100830185611952565b612191610120830184611952565b9b9a5050505050505050505050565b6121a981611dad565b81146121b457600080fd5b50565b6000813590506121c6816121a0565b92915050565b6000806000606084860312156121e5576121e46118e5565b5b60006121f3868287016121b7565b935050602061220486828701611910565b925050604061221586828701611910565b9150509250925092565b60008060408385031215612236576122356118e5565b5b600083013567ffffffffffffffff811115612254576122536118ea565b5b61226085828601611c53565b9250506020612271858286016121b7565b9150509250929050565b60008115159050919050565b6122908161227b565b82525050565b60006020820190506122ab6000830184612287565b92915050565b600080600080600080600080610100898b0312156122d2576122d16118e5565b5b60006122e08b828c01611910565b985050602089013567ffffffffffffffff811115612301576123006118ea565b5b61230d8b828c01611c53565b975050604089013567ffffffffffffffff81111561232e5761232d6118ea565b5b61233a8b828c01611c53565b965050606089013567ffffffffffffffff81111561235b5761235a6118ea565b5b6123678b828c01611c53565b955050608089013567ffffffffffffffff811115612388576123876118ea565b5b6123948b828c01611c53565b94505060a089013567ffffffffffffffff8111156123b5576123b46118ea565b5b6123c18b828c01611aff565b93505060c06123d28b828c01611910565b92505060e06123e38b828c01611910565b9150509295985092959890939650565b6000806000806080858703121561240d5761240c6118e5565b5b600085013567ffffffffffffffff81111561242b5761242a6118ea565b5b61243787828801611c53565b945050602085013567ffffffffffffffff811115612458576124576118ea565b5b61246487828801611aff565b935050604061247587828801611910565b925050606061248687828801611910565b91505092959194509250565b6000610160830160008301516124ab6000860182611cf6565b5060208301516124be6020860182611cf6565b50604083015184820360408601526124d68282611d54565b915050606083015184820360608601526124f08282611d54565b9150506080830151848203608086015261250a8282611d54565b91505060a083015161251f60a0860182611dbf565b5060c083015161253260c0860182611cf6565b5060e083015184820360e086015261254a8282611d54565b9150506101008301518482036101008601526125668282611e2e565b91505061012083015161257d610120860182611cf6565b50610140830151612592610140860182611cf6565b508091505092915050565b600060208201905081810360008301526125b78184612492565b905092915050565b7f4e487b7100000000000000000000000000000000000000000000000000000000600052601160045260246000fd5b60006125f9826118ef565b9150612604836118ef565b9250827fffffffffffffffffffffffffffffffffffffffffffffffffffffffffffffffff03821115612639576126386125bf565b5b828201905092915050565b600061264f826118ef565b915061265a836118ef565b92508282101561266d5761266c6125bf565b5b828203905092915050565b6000612683826118ef565b915061268e836118ef565b9250817fffffffffffffffffffffffffffffffffffffffffffffffffffffffffffffffff04831182151516156126c7576126c66125bf565b5b828202905092915050565b7f4e487b7100000000000000000000000000000000000000000000000000000000600052601260045260246000fd5b600061270c826118ef565b9150612717836118ef565b925082612727576127266126d2565b5b828204905092915050565b600081905092915050565b600061274882611d05565b6127528185612732565b9350612762818560208601611d21565b80840191505092915050565b600061277a828461273d565b915081905092915050565b7f4e487b7100000000000000000000000000000000000000000000000000000000600052603260045260246000fd5b60006127bf826118ef565b91507fffffffffffffffffffffffffffffffffffffffffffffffffffffffffffffffff82036127f1576127f06125bf565b5b600182019050919050565b7f4e487b7100000000000000000000000000000000000000000000000000000000600052602260045260246000fd5b6000600282049050600182168061284357607f821691505b602082108103612856576128556127fc565b5b50919050565b60006060820190506128716000830186611952565b818103602083015261288381856120a0565b90506128926040830184611952565b949350505050565b60006040820190506128af6000830185612287565b6128bc6020830184611952565b9392505050565b600082825260208201905092915050565b60006128df82611dce565b6128e981856128c3565b93506128f483611dea565b8060005b8381101561292557815161290c8882611e09565b975061291783611e21565b9250506001810190506128f8565b5085935050505092915050565b600061016082019050612948600083018e611952565b612955602083018d611952565b8181036040830152612967818c6120a0565b9050818103606083015261297b818b6120a0565b9050818103608083015261298f818a6120a0565b905061299e60a08301896120d9565b6129ab60c0830188611952565b81810360e08301526129bd81876120a0565b90508181036101008301526129d281866128d4565b90506129e2610120830185611952565b6129f0610140830184611952565b9c9b50505050505050505050505056fea2646970667358221220020f18ca43428b349b11b8ed69bbda4096a65eae517918779c56f9f9800158f964736f6c634300080d0033",
  "immutableReferences": {},
  "source": "// SPDX-License-Identifier: MIT\npragma solidity >=0.4.22 <0.9.0;\n\n\n\n\ncontract PlagiarismContract \n{\n/**\nlanguages\n0: CPP\n1: Java\n2: JavaScript\n */\n\n  struct CodeFile{\n    uint fileId;\n    uint fileSize;\n    string fileIPFSCID;\n    string fileName;\n    string fileDescription;\n    address codeAuthor;\n    uint timeUploaded;    \n    string codeFingerPrint;\n    bytes16 [] hashSet;\n    uint hashSetLength;\n    uint language;\n  }\n  uint[] public fileCountByLanguage = [0,0,0];\n  uint public totalFileCount=0;\n\n\n  //TODO: Use actual threshold\n  uint[] public threshold=[30,30,30];\n\n\n  mapping(uint=>mapping(uint=>CodeFile)) public filesMapByLanguage;\n\n  mapping(address=>mapping(uint=>uint[])) public userFilesIndexByLanguage;\n\n  mapping(string=>bool)IPFSCIDsMap;\n\n  event CodeSubmitted(\n    uint timeUploaded ,\n    string fileName,\n    uint language\n  ) ;\n\n\n  event CodeFileUploadEvent(\n    uint fileId,\n    uint fileSize,\n    string fileIPFSCID,\n    string fileName,\n    string fileDescription,\n    address codeAuthor,\n    uint timeUploaded ,\n    string codeFingerPrint,\n    bytes16 [] hashSet,\n    uint hashSetLength,\n    uint language\n  ) ;\n\n  event GetFilesEvent(\n    CodeFile[] codefiles\n  );\n\n  event PlagiarismResult(\n    bool plagiarisedResult,\n    uint timeUploaded\n  );\n\n   event CheckingPlagiarism(\n  \n    uint timeUploaded,\n  string fileName,\n    uint language\n  );\n\n  mapping(string=>mapping(address=>bool)) public hasPermissionsMap;\n\n    function doesUserHavePermission(string memory cid, address userAddress)\n        public\n        view\n        returns (bool)\n    {\n        return hasPermissionsMap[cid][userAddress];\n    }\n\n    function addPermission(string memory cid)\n        public\n    {\n        hasPermissionsMap[cid][msg.sender]=true;\n    }\n\n    function removePermission(string memory cid)\n        public\n    {\n        hasPermissionsMap[cid][msg.sender]=false;\n    }\n\n//getUploaded files\n// different maps for different langiages\n// map to check if same file\n//reject if any file has higher similarity score than threshold\n\n  function getFileCount()public view returns(uint){\n    return totalFileCount;\n  }\n\n  function getFilesUploadedByUser()public view returns (CodeFile[] memory){\n    uint javaFileCount=userFilesIndexByLanguage[msg.sender][0].length;\n    uint cppFileCount=userFilesIndexByLanguage[msg.sender][1].length;\n    uint javaScriptFileCount=userFilesIndexByLanguage[msg.sender][2].length;\n\n    CodeFile[] memory listOfFiles = new CodeFile[](cppFileCount+javaFileCount+javaScriptFileCount);   \n\n    uint currentCount=0;\n    for(uint i=0;i<javaFileCount;i++){\n      listOfFiles[currentCount]=getFileByIndex(userFilesIndexByLanguage[msg.sender][0][i],0);\n      currentCount++;\n    }\n    for(uint i=0;i<cppFileCount;i++){\n      listOfFiles[currentCount]=getFileByIndex(userFilesIndexByLanguage[msg.sender][1][i],1);\n      currentCount++;\n    }    \n    for(uint i=0;i<javaScriptFileCount;i++){\n      listOfFiles[currentCount]=getFileByIndex(userFilesIndexByLanguage[msg.sender][2][i],2);\n      currentCount++;\n    }\n    return listOfFiles;\n\n  }\n  function uploadFile(uint _fileSize, string memory  _fileIPFSCID, string memory  _fileName,string memory  _fileDescription, string memory  _codeFingerPrint, bytes16 [] memory _hashSet, uint hashSetLength, uint language) public {\n\n    // Returns if same file is uploaded\n    emit CodeSubmitted(block.timestamp,_fileName,language);\n    if(IPFSCIDsMap[_fileIPFSCID]==true){\n      emit PlagiarismResult(true,block.timestamp);\n    }\n    else if(checkIfPlagiarised(_fileName,_hashSet,hashSetLength,language)){\n      emit PlagiarismResult(true,block.timestamp);\n    }\n    else\n    {\n      addPermission(_fileIPFSCID);\n      fileCountByLanguage[language]++;\n      totalFileCount++;\n      IPFSCIDsMap[_fileIPFSCID]=true;\n      filesMapByLanguage[language][fileCountByLanguage[language]] = CodeFile(totalFileCount,_fileSize,_fileIPFSCID, _fileName, _fileDescription,msg.sender,block.timestamp,_codeFingerPrint,_hashSet,hashSetLength,language);\n      userFilesIndexByLanguage[msg.sender][language].push(fileCountByLanguage[language]);\n      emit CodeFileUploadEvent(totalFileCount,_fileSize,_fileIPFSCID, _fileName, _fileDescription,msg.sender,block.timestamp,_codeFingerPrint,_hashSet,hashSetLength,language);\n    }\n  }\n\n    function getFileByIndex(uint _fileIndex,uint language)\n        public\n        view\n        returns (CodeFile memory records)\n    {\n        return filesMapByLanguage[language][_fileIndex];\n    }\n\n    function getFileHashSet(uint _fileIndex, uint language) private\n        view\n        returns (bytes16 [] memory )\n    {\n        return filesMapByLanguage[language][_fileIndex].hashSet;\n    }\n\n    function getFileHashSetLength(uint _fileIndex,uint language) private\n        view\n        returns (uint )\n    {\n        return filesMapByLanguage[language][_fileIndex].hashSetLength;\n    }\n    function checkIfPlagiarised( string memory  _fileName, bytes16 [] memory _hashSet, uint hashSetLength,uint language)public returns(bool){\n\n      uint similarity=0;\n\n    emit CheckingPlagiarism(block.timestamp,_fileName,language);\n      for(uint i=1;i<=fileCountByLanguage[language];i++){\n        bytes16 [] memory existingFilehashSet=getFileHashSet(i,language);\n        uint existingFilehashSetLength=getFileHashSetLength(i,language);\n        similarity=calculateSimilarityScore(_hashSet,existingFilehashSet,hashSetLength,existingFilehashSetLength);\n        if(similarity>threshold[language]){\n          return true;\n        }\n      }\n      \n      return false;\n    }\n\n    // function getMaximumSimilarityScore( bytes16 [] memory _hashSet, uint oriHashSetLength,uint language) public view returns (uint){\n    //   uint similarity=0;\n\n    //   for(uint i=1;i<=fileCountByLanguage[language];i++){\n    //     bytes16 [] memory existingFilehashSet=getFileHashSet(i,language);\n    //     uint existingFilehashSetLength=getFileHashSetLength(i,language);\n    //     similarity=calculateSimilarityScore(_hashSet,existingFilehashSet,oriHashSetLength,existingFilehashSetLength);\n    //     if(similarity>threshold){\n    //       break;\n    //     }\n    //   }\n    //   return similarity;\n    // }\n\n \n    \n    function getCommonElementsCount(bytes16[] memory list1, bytes16[] memory list2,uint setLength1,uint setLength2) public pure returns (uint){\n\n        uint commonElementsCount=0;\n        for(uint i=0;i< setLength1;i++){\n            for(uint j=0;j<setLength2;j++){\n                if(list1[i]==list2[j]){\n                    commonElementsCount++;\n                    break;\n                }\n            }\n        }\n        return commonElementsCount;\n    }\n\n    function calculateSimilarityScore(bytes16[] memory l1, bytes16[] memory l2, uint l1OriLength, uint l2OriLength) public pure returns(uint){\n\n      uint commonElementsCount = getCommonElementsCount(l1,l2,l1.length,l2.length);\n      uint unionCount=l1OriLength+l2OriLength-commonElementsCount;        \n      \n      return commonElementsCount*100/unionCount;\n    } \n}",
  "sourcePath": "/home/deep/Desktop/Projects/MP/truffle-react/contracts/PlagiarismContract.sol",
  "compiler": {
    "name": "solc",
    "version": "0.8.13+commit.abaa5c0e.Emscripten.clang"
  },
  "schemaVersion": "3.4.4",
  "updatedAt": "2022-03-23T19:06:08.174Z",
  "networkType": "ethereum",
  "devdoc": {
    "kind": "dev",
    "methods": {},
    "version": 1
  },
  "userdoc": {
    "kind": "user",
    "methods": {},
    "version": 1
  }
}