{
  "contractName": "PlagiarismContract",
  "abi": [
    {
      "inputs": [],
      "payable": false,
      "stateMutability": "nonpayable",
      "type": "constructor"
    },
    {
      "anonymous": false,
      "inputs": [
        {
          "indexed": false,
          "internalType": "uint256",
          "name": "fileId",
          "type": "uint256"
        },
        {
          "indexed": false,
          "internalType": "uint256",
          "name": "fileSize",
          "type": "uint256"
        },
        {
          "indexed": false,
          "internalType": "string",
          "name": "fileIPFSHash",
          "type": "string"
        },
        {
          "indexed": false,
          "internalType": "string",
          "name": "fileName",
          "type": "string"
        },
        {
          "indexed": false,
          "internalType": "string",
          "name": "fileDescription",
          "type": "string"
        },
        {
          "indexed": false,
          "internalType": "address",
          "name": "codeAuthor",
          "type": "address"
        },
        {
          "indexed": false,
          "internalType": "uint256",
          "name": "timeUploaded",
          "type": "uint256"
        },
        {
          "indexed": false,
          "internalType": "string",
          "name": "codeFingerPrint",
          "type": "string"
        },
        {
          "indexed": false,
          "internalType": "string[]",
          "name": "hashSet",
          "type": "string[]"
        }
      ],
      "name": "CodeFileUploadEvent",
      "type": "event"
    },
    {
      "anonymous": false,
      "inputs": [
        {
          "indexed": false,
          "internalType": "bool",
          "name": "plagiarisedResult",
          "type": "bool"
        }
      ],
      "name": "PlagiarismResult",
      "type": "event"
    },
    {
      "constant": true,
      "inputs": [],
      "name": "fileCount",
      "outputs": [
        {
          "internalType": "uint256",
          "name": "",
          "type": "uint256"
        }
      ],
      "payable": false,
      "stateMutability": "view",
      "type": "function"
    },
    {
      "constant": true,
      "inputs": [
        {
          "internalType": "uint256",
          "name": "",
          "type": "uint256"
        }
      ],
      "name": "filesMap",
      "outputs": [
        {
          "internalType": "uint256",
          "name": "fileId",
          "type": "uint256"
        },
        {
          "internalType": "uint256",
          "name": "fileSize",
          "type": "uint256"
        },
        {
          "internalType": "string",
          "name": "fileIPFSHash",
          "type": "string"
        },
        {
          "internalType": "string",
          "name": "fileName",
          "type": "string"
        },
        {
          "internalType": "string",
          "name": "fileDescription",
          "type": "string"
        },
        {
          "internalType": "address",
          "name": "codeAuthor",
          "type": "address"
        },
        {
          "internalType": "uint256",
          "name": "timeUploaded",
          "type": "uint256"
        },
        {
          "internalType": "string",
          "name": "codeFingerPrint",
          "type": "string"
        }
      ],
      "payable": false,
      "stateMutability": "view",
      "type": "function"
    },
    {
      "constant": false,
      "inputs": [
        {
          "internalType": "uint256",
          "name": "_fileSize",
          "type": "uint256"
        },
        {
          "internalType": "string",
          "name": "_fileIPFSHash",
          "type": "string"
        },
        {
          "internalType": "string",
          "name": "_fileName",
          "type": "string"
        },
        {
          "internalType": "string",
          "name": "_fileDescription",
          "type": "string"
        },
        {
          "internalType": "string",
          "name": "_codeFingerPrint",
          "type": "string"
        },
        {
          "internalType": "string[]",
          "name": "_hashSet",
          "type": "string[]"
        }
      ],
      "name": "uploadFile",
      "outputs": [],
      "payable": false,
      "stateMutability": "nonpayable",
      "type": "function"
    },
    {
      "constant": true,
      "inputs": [
        {
          "internalType": "uint256",
          "name": "_fileIndex",
          "type": "uint256"
        }
      ],
      "name": "getFileByIndex",
      "outputs": [
        {
          "components": [
            {
              "internalType": "uint256",
              "name": "fileId",
              "type": "uint256"
            },
            {
              "internalType": "uint256",
              "name": "fileSize",
              "type": "uint256"
            },
            {
              "internalType": "string",
              "name": "fileIPFSHash",
              "type": "string"
            },
            {
              "internalType": "string",
              "name": "fileName",
              "type": "string"
            },
            {
              "internalType": "string",
              "name": "fileDescription",
              "type": "string"
            },
            {
              "internalType": "address",
              "name": "codeAuthor",
              "type": "address"
            },
            {
              "internalType": "uint256",
              "name": "timeUploaded",
              "type": "uint256"
            },
            {
              "internalType": "string",
              "name": "codeFingerPrint",
              "type": "string"
            },
            {
              "internalType": "string[]",
              "name": "hashSet",
              "type": "string[]"
            }
          ],
          "internalType": "struct PlagiarismContract.CodeFile",
          "name": "records",
          "type": "tuple"
        }
      ],
      "payable": false,
      "stateMutability": "view",
      "type": "function"
    },
    {
      "constant": false,
      "inputs": [
        {
          "internalType": "string[]",
          "name": "_hashSet1",
          "type": "string[]"
        },
        {
          "internalType": "string[]",
          "name": "_hashSet2",
          "type": "string[]"
        }
      ],
      "name": "testJaccards",
      "outputs": [
        {
          "internalType": "uint256",
          "name": "",
          "type": "uint256"
        }
      ],
      "payable": false,
      "stateMutability": "nonpayable",
      "type": "function"
    },
    {
      "constant": true,
      "inputs": [
        {
          "internalType": "string",
          "name": "a",
          "type": "string"
        },
        {
          "internalType": "string",
          "name": "b",
          "type": "string"
        }
      ],
      "name": "compareStrings",
      "outputs": [
        {
          "internalType": "bool",
          "name": "",
          "type": "bool"
        }
      ],
      "payable": false,
      "stateMutability": "pure",
      "type": "function"
    },
    {
      "constant": true,
      "inputs": [
        {
          "internalType": "string[]",
          "name": "list1",
          "type": "string[]"
        },
        {
          "internalType": "string[]",
          "name": "list2",
          "type": "string[]"
        },
        {
          "internalType": "uint256",
          "name": "setLength1",
          "type": "uint256"
        },
        {
          "internalType": "uint256",
          "name": "setLength2",
          "type": "uint256"
        }
      ],
      "name": "getCommonElementsCount",
      "outputs": [
        {
          "internalType": "uint256",
          "name": "",
          "type": "uint256"
        }
      ],
      "payable": false,
      "stateMutability": "pure",
      "type": "function"
    },
    {
      "constant": true,
      "inputs": [
        {
          "internalType": "string[]",
          "name": "l1",
          "type": "string[]"
        },
        {
          "internalType": "string[]",
          "name": "l2",
          "type": "string[]"
        }
      ],
      "name": "calculateSimilarityScore",
      "outputs": [
        {
          "internalType": "uint256",
          "name": "",
          "type": "uint256"
        }
      ],
      "payable": false,
      "stateMutability": "pure",
      "type": "function"
    }
  ],
  "bytecode": "0x60806040526000805534801561001457600080fd5b50611ee6806100246000396000f3fe608060405234801561001057600080fd5b50600436106100885760003560e01c80634ed620091161005b5780634ed6200914610127578063790ad0db14610157578063bed34bba14610187578063c93bcd91146101b757610088565b8063097694e11461008d5780631320b2e5146100bd578063254f7d2d146100ed5780634395351914610109575b600080fd5b6100a760048036036100a291908101906114e1565b6101ee565b6040516100b49190611ad2565b60405180910390f35b6100d760048036036100d29190810190611376565b610601565b6040516100e49190611af4565b60405180910390f35b6101076004803603610102919081019061150a565b610799565b005b610111610abc565b60405161011e9190611af4565b60405180910390f35b610141600480360361013c9190810190611376565b610ac2565b60405161014e9190611af4565b60405180910390f35b610171600480360361016c91908101906113e2565b610aca565b60405161017e9190611af4565b60405180910390f35b6101a1600480360361019c9190810190611475565b610b57565b6040516101ae9190611a37565b60405180910390f35b6101d160048036036101cc91908101906114e1565b610bb0565b6040516101e5989796959493929190611bbf565b60405180910390f35b6101f661106a565b60016000838152602001908152602001600020604051806101200160405290816000820154815260200160018201548152602001600282018054600181600116156101000203166002900480601f0160208091040260200160405190810160405280929190818152602001828054600181600116156101000203166002900480156102c25780601f10610297576101008083540402835291602001916102c2565b820191906000526020600020905b8154815290600101906020018083116102a557829003601f168201915b50505050508152602001600382018054600181600116156101000203166002900480601f0160208091040260200160405190810160405280929190818152602001828054600181600116156101000203166002900480156103645780601f1061033957610100808354040283529160200191610364565b820191906000526020600020905b81548152906001019060200180831161034757829003601f168201915b50505050508152602001600482018054600181600116156101000203166002900480601f0160208091040260200160405190810160405280929190818152602001828054600181600116156101000203166002900480156104065780601f106103db57610100808354040283529160200191610406565b820191906000526020600020905b8154815290600101906020018083116103e957829003601f168201915b505050505081526020016005820160009054906101000a900473ffffffffffffffffffffffffffffffffffffffff1673ffffffffffffffffffffffffffffffffffffffff1673ffffffffffffffffffffffffffffffffffffffff16815260200160068201548152602001600782018054600181600116156101000203166002900480601f0160208091040260200160405190810160405280929190818152602001828054600181600116156101000203166002900480156105085780601f106104dd57610100808354040283529160200191610508565b820191906000526020600020905b8154815290600101906020018083116104eb57829003601f168201915b5050505050815260200160088201805480602002602001604051908101604052809291908181526020016000905b828210156105f2578382906000526020600020018054600181600116156101000203166002900480601f0160208091040260200160405190810160405280929190818152602001828054600181600116156101000203166002900480156105de5780601f106105b3576101008083540402835291602001916105de565b820191906000526020600020905b8154815290600101906020018083116105c157829003601f168201915b505050505081526020019060010190610536565b50505050815250509050919050565b60006060835160405190808252806020026020018201604052801561063a57816020015b60608152602001906001900390816106255790505b5090506060835160405190808252806020026020018201604052801561067457816020015b606081526020019060019003908161065f5790505b5090506000809050600080905060008090505b87518110156106f2576106ad858983815181106106a057fe5b6020026020010151610e78565b6106e5578781815181106106bd57fe5b60200260200101518584815181106106d157fe5b602002602001018190525082806001019350505b8080600101915050610687565b5060008090505b86518110156107645761071f8488838151811061071257fe5b6020026020010151610e78565b6107575786818151811061072f57fe5b602002602001015184838151811061074357fe5b602002602001018190525081806001019250505b80806001019150506106f9565b50600061077385868585610aca565b905060008183850103905080606483028161078a57fe5b04965050505050505092915050565b60008551116107dd576040517f08c379a00000000000000000000000000000000000000000000000000000000081526004016107d490611a72565b60405180910390fd5b6000835111610821576040517f08c379a000000000000000000000000000000000000000000000000000000000815260040161081890611ab2565b60405180910390fd5b6000845111610865576040517f08c379a000000000000000000000000000000000000000000000000000000000815260040161085c90611a92565b60405180910390fd5b600086116108a8576040517f08c379a000000000000000000000000000000000000000000000000000000000815260040161089f90611a52565b60405180910390fd5b6108b181610ece565b156108f3577f711784307b11c5f98f3bc25170dfd6d229d797a0891cb2dd54b1fd406e60fc6d60016040516108e69190611a37565b60405180910390a1610ab4565b600080815480929190600101919050555060405180610120016040528060005481526020018781526020018681526020018581526020018481526020013373ffffffffffffffffffffffffffffffffffffffff168152602001428152602001838152602001828152506001600080548152602001908152602001600020600082015181600001556020820151816001015560408201518160020190805190602001906109a09291906110cc565b5060608201518160030190805190602001906109bd9291906110cc565b5060808201518160040190805190602001906109da9291906110cc565b5060a08201518160050160006101000a81548173ffffffffffffffffffffffffffffffffffffffff021916908373ffffffffffffffffffffffffffffffffffffffff16021790555060c0820151816006015560e0820151816007019080519060200190610a489291906110cc565b50610100820151816008019080519060200190610a6692919061114c565b509050507f13a353a011afea10f3f02988cf68745c8d65c39e4d9ba5ed33ea73114c76d85b6000548787878733428989604051610aab99989796959493929190611b0f565b60405180910390a15b505050505050565b60005481565b600092915050565b6000806000905060008090505b84811015610b4a5760008090505b84811015610b3c57610b1d888381518110610afc57fe5b6020026020010151888381518110610b1057fe5b6020026020010151610b57565b15610b2f578280600101935050610b3c565b8080600101915050610ae5565b508080600101915050610ad7565b5080915050949350505050565b600081604051602001610b6a9190611a20565b6040516020818303038152906040528051906020012083604051602001610b919190611a20565b6040516020818303038152906040528051906020012014905092915050565b6001602052806000526040600020600091509050806000015490806001015490806002018054600181600116156101000203166002900480601f016020809104026020016040519081016040528092919081815260200182805460018160011615610100020316600290048015610c685780601f10610c3d57610100808354040283529160200191610c68565b820191906000526020600020905b815481529060010190602001808311610c4b57829003601f168201915b505050505090806003018054600181600116156101000203166002900480601f016020809104026020016040519081016040528092919081815260200182805460018160011615610100020316600290048015610d065780601f10610cdb57610100808354040283529160200191610d06565b820191906000526020600020905b815481529060010190602001808311610ce957829003601f168201915b505050505090806004018054600181600116156101000203166002900480601f016020809104026020016040519081016040528092919081815260200182805460018160011615610100020316600290048015610da45780601f10610d7957610100808354040283529160200191610da4565b820191906000526020600020905b815481529060010190602001808311610d8757829003601f168201915b5050505050908060050160009054906101000a900473ffffffffffffffffffffffffffffffffffffffff1690806006015490806007018054600181600116156101000203166002900480601f016020809104026020016040519081016040528092919081815260200182805460018160011615610100020316600290048015610e6e5780601f10610e4357610100808354040283529160200191610e6e565b820191906000526020600020905b815481529060010190602001808311610e5157829003601f168201915b5050505050905088565b600080600090505b8351811015610ec257610ea6848281518110610e9857fe5b602002602001015184610b57565b15610eb5576001915050610ec8565b8080600101915050610e80565b50600090505b92915050565b600080610eda83610f00565b9050600080905080821115610ef457600192505050610efb565b6000925050505b919050565b6000806000905060008090506000600190505b6000548111610f60576060610f2782610f6b565b90506000600190505b81518111610f515784841115610f44578394505b8080600101915050610f30565b50508080600101915050610f13565b508192505050919050565b606060016000838152602001908152602001600020600801805480602002602001604051908101604052809291908181526020016000905b8282101561105f578382906000526020600020018054600181600116156101000203166002900480601f01602080910402602001604051908101604052809291908181526020018280546001816001161561010002031660029004801561104b5780601f106110205761010080835404028352916020019161104b565b820191906000526020600020905b81548152906001019060200180831161102e57829003601f168201915b505050505081526020019060010190610fa3565b505050509050919050565b6040518061012001604052806000815260200160008152602001606081526020016060815260200160608152602001600073ffffffffffffffffffffffffffffffffffffffff1681526020016000815260200160608152602001606081525090565b828054600181600116156101000203166002900490600052602060002090601f016020900481019282601f1061110d57805160ff191683800117855561113b565b8280016001018555821561113b579182015b8281111561113a57825182559160200191906001019061111f565b5b50905061114891906111ac565b5090565b82805482825590600052602060002090810192821561119b579160200282015b8281111561119a57825182908051906020019061118a9291906110cc565b509160200191906001019061116c565b5b5090506111a891906111d1565b5090565b6111ce91905b808211156111ca5760008160009055506001016111b2565b5090565b90565b6111fa91905b808211156111f657600081816111ed91906111fd565b506001016111d7565b5090565b90565b50805460018160011615610100020316600290046000825580601f106112235750611242565b601f01602090049060005260206000209081019061124191906111ac565b5b50565b600082601f83011261125657600080fd5b813561126961126482611c86565b611c59565b9150818183526020840193506020810190508360005b838110156112af578135860161129588826112b9565b84526020840193506020830192505060018101905061127f565b5050505092915050565b600082601f8301126112ca57600080fd5b81356112dd6112d882611cae565b611c59565b915080825260208301602083018583830111156112f957600080fd5b611304838284611e39565b50505092915050565b600082601f83011261131e57600080fd5b813561133161132c82611cda565b611c59565b9150808252602083016020830185838301111561134d57600080fd5b611358838284611e39565b50505092915050565b60008135905061137081611e8c565b92915050565b6000806040838503121561138957600080fd5b600083013567ffffffffffffffff8111156113a357600080fd5b6113af85828601611245565b925050602083013567ffffffffffffffff8111156113cc57600080fd5b6113d885828601611245565b9150509250929050565b600080600080608085870312156113f857600080fd5b600085013567ffffffffffffffff81111561141257600080fd5b61141e87828801611245565b945050602085013567ffffffffffffffff81111561143b57600080fd5b61144787828801611245565b935050604061145887828801611361565b925050606061146987828801611361565b91505092959194509250565b6000806040838503121561148857600080fd5b600083013567ffffffffffffffff8111156114a257600080fd5b6114ae8582860161130d565b925050602083013567ffffffffffffffff8111156114cb57600080fd5b6114d78582860161130d565b9150509250929050565b6000602082840312156114f357600080fd5b600061150184828501611361565b91505092915050565b60008060008060008060c0878903121561152357600080fd5b600061153189828a01611361565b965050602087013567ffffffffffffffff81111561154e57600080fd5b61155a89828a0161130d565b955050604087013567ffffffffffffffff81111561157757600080fd5b61158389828a0161130d565b945050606087013567ffffffffffffffff8111156115a057600080fd5b6115ac89828a0161130d565b935050608087013567ffffffffffffffff8111156115c957600080fd5b6115d589828a0161130d565b92505060a087013567ffffffffffffffff8111156115f257600080fd5b6115fe89828a01611245565b9150509295509295509295565b600061161783836117af565b905092915050565b61162881611e03565b82525050565b61163781611dbb565b82525050565b61164681611dbb565b82525050565b600061165782611d31565b6116618185611d7d565b93508360208202850161167385611d16565b8060005b858110156116af5784840389528151611690858261160b565b945061169b83611d5f565b925060208a01995050600181019050611677565b50829750879550505050505092915050565b60006116cc82611d26565b6116d68185611d6c565b9350836020820285016116e885611d06565b8060005b858110156117245784840389528151611705858261160b565b945061171083611d52565b925060208a019950506001810190506116ec565b50829750879550505050505092915050565b61173f81611dcd565b82525050565b600061175082611d47565b61175a8185611d9f565b935061176a818560208601611e48565b61177381611e7b565b840191505092915050565b600061178982611d47565b6117938185611db0565b93506117a3818560208601611e48565b80840191505092915050565b60006117ba82611d3c565b6117c48185611d8e565b93506117d4818560208601611e48565b6117dd81611e7b565b840191505092915050565b60006117f382611d3c565b6117fd8185611d9f565b935061180d818560208601611e48565b61181681611e7b565b840191505092915050565b600061182e601283611d9f565b91507f436f646546696c652073697a65206973203000000000000000000000000000006000830152602082019050919050565b600061186e601683611d9f565b91507f436f646546696c65204861736820697320656d707479000000000000000000006000830152602082019050919050565b60006118ae601683611d9f565b91507f436f646546696c65206e616d6520697320656d707479000000000000000000006000830152602082019050919050565b60006118ee601d83611d9f565b91507f436f646546696c65206465736372697074696f6e20697320656d7074790000006000830152602082019050919050565b60006101208301600083015161193a6000860182611a02565b50602083015161194d6020860182611a02565b506040830151848203604086015261196582826117af565b9150506060830151848203606086015261197f82826117af565b9150506080830151848203608086015261199982826117af565b91505060a08301516119ae60a086018261162e565b5060c08301516119c160c0860182611a02565b5060e083015184820360e08601526119d982826117af565b9150506101008301518482036101008601526119f582826116c1565b9150508091505092915050565b611a0b81611df9565b82525050565b611a1a81611df9565b82525050565b6000611a2c828461177e565b915081905092915050565b6000602082019050611a4c6000830184611736565b92915050565b60006020820190508181036000830152611a6b81611821565b9050919050565b60006020820190508181036000830152611a8b81611861565b9050919050565b60006020820190508181036000830152611aab816118a1565b9050919050565b60006020820190508181036000830152611acb816118e1565b9050919050565b60006020820190508181036000830152611aec8184611921565b905092915050565b6000602082019050611b096000830184611a11565b92915050565b600061012082019050611b25600083018c611a11565b611b32602083018b611a11565b8181036040830152611b44818a611745565b90508181036060830152611b588189611745565b90508181036080830152611b6c8188611745565b9050611b7b60a083018761161f565b611b8860c0830186611a11565b81810360e0830152611b9a8185611745565b9050818103610100830152611baf818461164c565b90509a9950505050505050505050565b600061010082019050611bd5600083018b611a11565b611be2602083018a611a11565b8181036040830152611bf481896117e8565b90508181036060830152611c0881886117e8565b90508181036080830152611c1c81876117e8565b9050611c2b60a083018661163d565b611c3860c0830185611a11565b81810360e0830152611c4a81846117e8565b90509998505050505050505050565b6000604051905081810181811067ffffffffffffffff82111715611c7c57600080fd5b8060405250919050565b600067ffffffffffffffff821115611c9d57600080fd5b602082029050602081019050919050565b600067ffffffffffffffff821115611cc557600080fd5b601f19601f8301169050602081019050919050565b600067ffffffffffffffff821115611cf157600080fd5b601f19601f8301169050602081019050919050565b6000819050602082019050919050565b6000819050602082019050919050565b600081519050919050565b600081519050919050565b600081519050919050565b600081519050919050565b6000602082019050919050565b6000602082019050919050565b600082825260208201905092915050565b600082825260208201905092915050565b600082825260208201905092915050565b600082825260208201905092915050565b600081905092915050565b6000611dc682611dd9565b9050919050565b60008115159050919050565b600073ffffffffffffffffffffffffffffffffffffffff82169050919050565b6000819050919050565b6000611e0e82611e15565b9050919050565b6000611e2082611e27565b9050919050565b6000611e3282611dd9565b9050919050565b82818337600083830152505050565b60005b83811015611e66578082015181840152602081019050611e4b565b83811115611e75576000848401525b50505050565b6000601f19601f8301169050919050565b611e9581611df9565b8114611ea057600080fd5b5056fea365627a7a7231582012da555a3d464348fd243f4186476db1c81ef1e8df5f2b8a5a8527000852f3c16c6578706572696d656e74616cf564736f6c63430005100040",
  "source": "// SPDX-License-Identifier: MIT\npragma solidity >=0.4.22 <0.9.0;\npragma experimental ABIEncoderV2;\n\n// import \"@openzeppelin/contracts-ethereum-package/contracts/GSN/GSNRecipient.sol\";\n\n\ncontract PlagiarismContract  {\n\n  struct CodeFile{\n    uint fileId;\n    uint fileSize;\n    string fileIPFSHash;\n    string fileName;\n    string fileDescription;\n    address codeAuthor;\n    uint timeUploaded;    \n    string codeFingerPrint;\n    string [] hashSet;\n  }\n\n  uint public fileCount = 0;\n  mapping(uint=>CodeFile) public filesMap;\n\n\n  event CodeFileUploadEvent(\n    uint fileId,\n    uint fileSize,\n    string fileIPFSHash,\n    string fileName,\n    string fileDescription,\n    address codeAuthor,\n    uint timeUploaded ,\n    string codeFingerPrint,\n    string [] hashSet\n  ) ;\n\n  event PlagiarismResult(\n    bool plagiarisedResult\n  );\n  constructor() public {\n  }\n\n  function uploadFile(uint _fileSize, string memory _fileIPFSHash, string memory _fileName,string memory _fileDescription, string memory _codeFingerPrint, string [] memory _hashSet) public {\n    require(bytes(_fileIPFSHash).length > 0, \"CodeFile Hash is empty\");\n\n    require(bytes(_fileDescription).length > 0, \"CodeFile description is empty\");\n\n    require(bytes(_fileName).length > 0, \"CodeFile name is empty\");\n\n    require(_fileSize>0, \"CodeFile size is 0\");\n\n    if(checkIfPlagiarised(_hashSet)){\n      emit PlagiarismResult(true);\n    }\n    else{\n      fileCount++;\n\n      filesMap[fileCount] = CodeFile(fileCount,_fileSize,_fileIPFSHash, _fileName, _fileDescription,msg.sender,block.timestamp,_codeFingerPrint,_hashSet);\n\n      emit CodeFileUploadEvent(fileCount,_fileSize,_fileIPFSHash, _fileName, _fileDescription,msg.sender,block.timestamp,_codeFingerPrint,_hashSet);\n    }\n  }\n\n    function getFileByIndex(uint _fileIndex)\n        public\n        view\n        returns (CodeFile memory records)\n    {\n        return filesMap[_fileIndex];\n    }\n\n    function getFileHashSet(uint _fileIndex) private\n        view\n        returns (string [] memory )\n    {\n        return filesMap[_fileIndex].hashSet;\n    }\n\n    function checkIfPlagiarised( string [] memory _hashSet)private  returns(bool){\n      uint similarityScore = getMaximumSimilarityScore(_hashSet);\n\n      uint thresholdSimilarity=0;\n      if(similarityScore>thresholdSimilarity)\n        return true;\n      else\n        return false;\n    }\n\n    function getMaximumSimilarityScore( string [] memory _hashSet) private view returns (uint){\n      uint maxSimilarity=0;\n      uint similarity=0;\n      for(uint i=1;i<=fileCount;i++){\n        string [] memory existingFilehashSet=getFileHashSet(i);\n        for(uint j=1;j<=existingFilehashSet.length;j++){\n          //TODO\n          // uint similarity=getSimilarity();\n          if(similarity>maxSimilarity){\n            maxSimilarity=similarity;\n          }\n        }\n      }\n      return maxSimilarity;\n    }\n\n    function testJaccards( string [] memory _hashSet1,string [] memory _hashSet2) public returns (uint){\n      // JaccardsSimilarity js= new JaccardsSimilarity();\n      // uint ans= calculateSimilarityScore(_hashSet1,_hashSet2);\n      // return ans;\n    }\n\n    \n\n// function increase() public {\n//         value += 1;\n//     }\n\n//     function acceptRelayedCall(\n//         address relay,\n//         address from,\n//         bytes calldata encodedFunction,\n//         uint256 transactionFee,\n//         uint256 gasPrice,\n//         uint256 gasLimit,\n//         uint256 nonce,\n//         bytes calldata approvalData,\n//         uint256 maxPossibleCharge\n//     ) external view returns (uint256, bytes memory) {\n//         return _approveRelayedCall();\n//     }\n\n\nfunction compareStrings(string memory a, string memory b) public pure returns (bool) {\n        return (keccak256(abi.encodePacked((a))) == keccak256(abi.encodePacked((b))));\n    }\n    function getCommonElementsCount(string[] memory list1, string[] memory list2,uint setLength1,uint setLength2) public pure returns (uint){\n\n        uint commonElementsCount=0;\n        for(uint i=0;i< setLength1;i++){\n            for(uint j=0;j<setLength2;j++){\n                if(compareStrings(list1[i],list2[j])){\n                    commonElementsCount++;\n                    break;\n                }\n            }\n        }\n        return commonElementsCount;\n    }\n\n    function isPresent(string[] memory l1,string memory ele)private pure returns (bool){\n        for(uint i=0;i<l1.length;i++){\n          if(compareStrings(l1[i],ele)){\n            return true;\n          }\n        }\n        return false;\n    }\n    function calculateSimilarityScore(string[] memory l1, string[] memory l2) public pure returns(uint){\n\n\n      string[] memory list1 = new string[](l1.length);   \n      string[] memory list2 = new string[](l2.length);   \n\n      uint setLength1=0;\n      uint setLength2=0;\n\n        for(uint i=0;i<l1.length;i++){\n            if (!isPresent(list1,l1[i])) {\n              list1[setLength1]=l1[i];\n              setLength1++;\n            }\n        } \n  \n        for(uint i=0;i<l2.length;i++){\n            if (!isPresent(list2,l2[i])) {\n              list2[setLength2]=l2[i];\n              setLength2++;\n            }\n        } \n\n        uint commonElementsCount = getCommonElementsCount(list1,list1,setLength1,setLength2);\n        uint unionCount=setLength1+setLength2-commonElementsCount;        \n        \n        return commonElementsCount*100/unionCount;\n    } \n}",
  "sourcePath": "/home/deep/Desktop/Projects/MP/truffle-react/contracts/PlagiarismContract.sol",
  "compiler": {
    "name": "solc",
    "version": "0.5.16+commit.9c3226ce.Emscripten.clang"
  },
  "schemaVersion": "3.4.4",
  "updatedAt": "2022-01-23T18:17:37.905Z",
  "networkType": "ethereum",
  "devdoc": {
    "methods": {}
  },
  "userdoc": {
    "methods": {}
  }
}