{
  "contractName": "PlagiarismContract",
  "abi": [
    {
      "inputs": [],
      "stateMutability": "nonpayable",
      "type": "constructor"
    },
    {
      "anonymous": false,
      "inputs": [
        {
          "indexed": false,
          "internalType": "uint256",
          "name": "fileId",
          "type": "uint256"
        },
        {
          "indexed": false,
          "internalType": "uint256",
          "name": "fileSize",
          "type": "uint256"
        },
        {
          "indexed": false,
          "internalType": "string",
          "name": "fileIPFSHash",
          "type": "string"
        },
        {
          "indexed": false,
          "internalType": "string",
          "name": "fileName",
          "type": "string"
        },
        {
          "indexed": false,
          "internalType": "string",
          "name": "fileDescription",
          "type": "string"
        },
        {
          "indexed": false,
          "internalType": "address",
          "name": "codeAuthor",
          "type": "address"
        },
        {
          "indexed": false,
          "internalType": "uint256",
          "name": "timeUploaded",
          "type": "uint256"
        },
        {
          "indexed": false,
          "internalType": "string",
          "name": "codeFingerPrint",
          "type": "string"
        },
        {
          "indexed": false,
          "internalType": "string[]",
          "name": "hashSet",
          "type": "string[]"
        }
      ],
      "name": "CodeFileUploadEvent",
      "type": "event"
    },
    {
      "anonymous": false,
      "inputs": [
        {
          "indexed": false,
          "internalType": "bool",
          "name": "plagiarisedResult",
          "type": "bool"
        }
      ],
      "name": "PlagiarismResult",
      "type": "event"
    },
    {
      "inputs": [],
      "name": "fileCount",
      "outputs": [
        {
          "internalType": "uint256",
          "name": "",
          "type": "uint256"
        }
      ],
      "stateMutability": "view",
      "type": "function"
    },
    {
      "inputs": [
        {
          "internalType": "uint256",
          "name": "",
          "type": "uint256"
        }
      ],
      "name": "filesMap",
      "outputs": [
        {
          "internalType": "uint256",
          "name": "fileId",
          "type": "uint256"
        },
        {
          "internalType": "uint256",
          "name": "fileSize",
          "type": "uint256"
        },
        {
          "internalType": "string",
          "name": "fileIPFSHash",
          "type": "string"
        },
        {
          "internalType": "string",
          "name": "fileName",
          "type": "string"
        },
        {
          "internalType": "string",
          "name": "fileDescription",
          "type": "string"
        },
        {
          "internalType": "address",
          "name": "codeAuthor",
          "type": "address"
        },
        {
          "internalType": "uint256",
          "name": "timeUploaded",
          "type": "uint256"
        },
        {
          "internalType": "string",
          "name": "codeFingerPrint",
          "type": "string"
        }
      ],
      "stateMutability": "view",
      "type": "function"
    },
    {
      "inputs": [
        {
          "internalType": "uint256",
          "name": "_fileSize",
          "type": "uint256"
        },
        {
          "internalType": "string",
          "name": "_fileIPFSHash",
          "type": "string"
        },
        {
          "internalType": "string",
          "name": "_fileName",
          "type": "string"
        },
        {
          "internalType": "string",
          "name": "_fileDescription",
          "type": "string"
        },
        {
          "internalType": "string",
          "name": "_codeFingerPrint",
          "type": "string"
        },
        {
          "internalType": "string[]",
          "name": "_hashSet",
          "type": "string[]"
        }
      ],
      "name": "uploadFile",
      "outputs": [],
      "stateMutability": "nonpayable",
      "type": "function"
    },
    {
      "inputs": [
        {
          "internalType": "uint256",
          "name": "_fileIndex",
          "type": "uint256"
        }
      ],
      "name": "getFileByIndex",
      "outputs": [
        {
          "components": [
            {
              "internalType": "uint256",
              "name": "fileId",
              "type": "uint256"
            },
            {
              "internalType": "uint256",
              "name": "fileSize",
              "type": "uint256"
            },
            {
              "internalType": "string",
              "name": "fileIPFSHash",
              "type": "string"
            },
            {
              "internalType": "string",
              "name": "fileName",
              "type": "string"
            },
            {
              "internalType": "string",
              "name": "fileDescription",
              "type": "string"
            },
            {
              "internalType": "address",
              "name": "codeAuthor",
              "type": "address"
            },
            {
              "internalType": "uint256",
              "name": "timeUploaded",
              "type": "uint256"
            },
            {
              "internalType": "string",
              "name": "codeFingerPrint",
              "type": "string"
            },
            {
              "internalType": "string[]",
              "name": "hashSet",
              "type": "string[]"
            }
          ],
          "internalType": "struct PlagiarismContract.CodeFile",
          "name": "records",
          "type": "tuple"
        }
      ],
      "stateMutability": "view",
      "type": "function"
    },
    {
      "inputs": [
        {
          "internalType": "string",
          "name": "a",
          "type": "string"
        },
        {
          "internalType": "string",
          "name": "b",
          "type": "string"
        }
      ],
      "name": "compareStrings",
      "outputs": [
        {
          "internalType": "bool",
          "name": "",
          "type": "bool"
        }
      ],
      "stateMutability": "pure",
      "type": "function"
    },
    {
      "inputs": [
        {
          "internalType": "string[]",
          "name": "list1",
          "type": "string[]"
        },
        {
          "internalType": "string[]",
          "name": "list2",
          "type": "string[]"
        },
        {
          "internalType": "uint256",
          "name": "setLength1",
          "type": "uint256"
        },
        {
          "internalType": "uint256",
          "name": "setLength2",
          "type": "uint256"
        }
      ],
      "name": "getCommonElementsCount",
      "outputs": [
        {
          "internalType": "uint256",
          "name": "",
          "type": "uint256"
        }
      ],
      "stateMutability": "pure",
      "type": "function"
    },
    {
      "inputs": [
        {
          "internalType": "string[]",
          "name": "l1",
          "type": "string[]"
        },
        {
          "internalType": "string[]",
          "name": "l2",
          "type": "string[]"
        }
      ],
      "name": "calculateSimilarityScore",
      "outputs": [
        {
          "internalType": "uint256",
          "name": "",
          "type": "uint256"
        }
      ],
      "stateMutability": "pure",
      "type": "function"
    }
  ],
  "bytecode": "0x60806040526000805534801561001457600080fd5b50612107806100246000396000f3fe608060405234801561001057600080fd5b506004361061007d5760003560e01c8063439535191161005b57806343953519146100fe578063790ad0db1461011c578063bed34bba1461014c578063c93bcd911461017c5761007d565b8063097694e1146100825780631320b2e5146100b2578063254f7d2d146100e2575b600080fd5b61009c6004803603810190610097919061125b565b6101b3565b6040516100a99190611514565b60405180910390f35b6100cc60048036038101906100c79190611751565b610576565b6040516100d991906117d8565b60405180910390f35b6100fc60048036038101906100f791906117f3565b610791565b005b610106610aba565b60405161011391906117d8565b60405180910390f35b6101366004803603810190610131919061190c565b610ac0565b60405161014391906117d8565b60405180910390f35b610166600480360381019061016191906119ab565b610b67565b6040516101739190611a3e565b60405180910390f35b6101966004803603810190610191919061125b565b610bc0565b6040516101aa989796959493929190611ab2565b60405180910390f35b6101bb611048565b600160008381526020019081526020016000206040518061012001604052908160008201548152602001600182015481526020016002820180546101fe90611b7b565b80601f016020809104026020016040519081016040528092919081815260200182805461022a90611b7b565b80156102775780601f1061024c57610100808354040283529160200191610277565b820191906000526020600020905b81548152906001019060200180831161025a57829003601f168201915b5050505050815260200160038201805461029090611b7b565b80601f01602080910402602001604051908101604052809291908181526020018280546102bc90611b7b565b80156103095780601f106102de57610100808354040283529160200191610309565b820191906000526020600020905b8154815290600101906020018083116102ec57829003601f168201915b5050505050815260200160048201805461032290611b7b565b80601f016020809104026020016040519081016040528092919081815260200182805461034e90611b7b565b801561039b5780601f106103705761010080835404028352916020019161039b565b820191906000526020600020905b81548152906001019060200180831161037e57829003601f168201915b505050505081526020016005820160009054906101000a900473ffffffffffffffffffffffffffffffffffffffff1673ffffffffffffffffffffffffffffffffffffffff1673ffffffffffffffffffffffffffffffffffffffff1681526020016006820154815260200160078201805461041490611b7b565b80601f016020809104026020016040519081016040528092919081815260200182805461044090611b7b565b801561048d5780601f106104625761010080835404028352916020019161048d565b820191906000526020600020905b81548152906001019060200180831161047057829003601f168201915b5050505050815260200160088201805480602002602001604051908101604052809291908181526020016000905b828210156105675783829060005260206000200180546104da90611b7b565b80601f016020809104026020016040519081016040528092919081815260200182805461050690611b7b565b80156105535780601f1061052857610100808354040283529160200191610553565b820191906000526020600020905b81548152906001019060200180831161053657829003601f168201915b5050505050815260200190600101906104bb565b50505050815250509050919050565b600080835167ffffffffffffffff8111156105945761059361153b565b5b6040519080825280602002602001820160405280156105c757816020015b60608152602001906001900390816105b25790505b5090506000835167ffffffffffffffff8111156105e7576105e661153b565b5b60405190808252806020026020018201604052801561061a57816020015b60608152602001906001900390816106055790505b50905060008060005b87518110156106af576106508589838151811061064357610642611bad565b5b6020026020010151610e48565b61069c5787818151811061066757610666611bad565b5b602002602001015185848151811061068257610681611bad565b5b6020026020010181905250828061069890611c0b565b9350505b80806106a790611c0b565b915050610623565b5060005b865181101561073f576106e0848883815181106106d3576106d2611bad565b5b6020026020010151610e48565b61072c578681815181106106f7576106f6611bad565b5b602002602001015184838151811061071257610711611bad565b5b6020026020010181905250818061072890611c0b565b9250505b808061073790611c0b565b9150506106b3565b50600061074e85858585610ac0565b9050600081838561075f9190611c54565b6107699190611caa565b9050806064836107799190611cde565b6107839190611d67565b965050505050505092915050565b60008551116107d5576040517f08c379a00000000000000000000000000000000000000000000000000000000081526004016107cc90611de4565b60405180910390fd5b6000835111610819576040517f08c379a000000000000000000000000000000000000000000000000000000000815260040161081090611e50565b60405180910390fd5b600084511161085d576040517f08c379a000000000000000000000000000000000000000000000000000000000815260040161085490611ebc565b60405180910390fd5b600086116108a0576040517f08c379a000000000000000000000000000000000000000000000000000000000815260040161089790611f28565b60405180910390fd5b6108a981610eab565b156108eb577f711784307b11c5f98f3bc25170dfd6d229d797a0891cb2dd54b1fd406e60fc6d60016040516108de9190611a3e565b60405180910390a1610ab2565b6000808154809291906108fd90611c0b565b919050555060405180610120016040528060005481526020018781526020018681526020018581526020018481526020013373ffffffffffffffffffffffffffffffffffffffff1681526020014281526020018381526020018281525060016000805481526020019081526020016000206000820151816000015560208201518160010155604082015181600201908051906020019061099e9291906110aa565b5060608201518160030190805190602001906109bb9291906110aa565b5060808201518160040190805190602001906109d89291906110aa565b5060a08201518160050160006101000a81548173ffffffffffffffffffffffffffffffffffffffff021916908373ffffffffffffffffffffffffffffffffffffffff16021790555060c0820151816006015560e0820151816007019080519060200190610a469291906110aa565b50610100820151816008019080519060200190610a64929190611130565b509050507f13a353a011afea10f3f02988cf68745c8d65c39e4d9ba5ed33ea73114c76d85b6000548787878733428989604051610aa999989796959493929190611fce565b60405180910390a15b505050505050565b60005481565b6000806000905060005b84811015610b5a5760005b84811015610b4657610b1b888381518110610af357610af2611bad565b5b6020026020010151888381518110610b0e57610b0d611bad565b5b6020026020010151610b67565b15610b33578280610b2b90611c0b565b935050610b46565b8080610b3e90611c0b565b915050610ad5565b508080610b5290611c0b565b915050610aca565b5080915050949350505050565b600081604051602001610b7a91906120ba565b6040516020818303038152906040528051906020012083604051602001610ba191906120ba565b6040516020818303038152906040528051906020012014905092915050565b6001602052806000526040600020600091509050806000015490806001015490806002018054610bef90611b7b565b80601f0160208091040260200160405190810160405280929190818152602001828054610c1b90611b7b565b8015610c685780601f10610c3d57610100808354040283529160200191610c68565b820191906000526020600020905b815481529060010190602001808311610c4b57829003601f168201915b505050505090806003018054610c7d90611b7b565b80601f0160208091040260200160405190810160405280929190818152602001828054610ca990611b7b565b8015610cf65780601f10610ccb57610100808354040283529160200191610cf6565b820191906000526020600020905b815481529060010190602001808311610cd957829003601f168201915b505050505090806004018054610d0b90611b7b565b80601f0160208091040260200160405190810160405280929190818152602001828054610d3790611b7b565b8015610d845780601f10610d5957610100808354040283529160200191610d84565b820191906000526020600020905b815481529060010190602001808311610d6757829003601f168201915b5050505050908060050160009054906101000a900473ffffffffffffffffffffffffffffffffffffffff1690806006015490806007018054610dc590611b7b565b80601f0160208091040260200160405190810160405280929190818152602001828054610df190611b7b565b8015610e3e5780601f10610e1357610100808354040283529160200191610e3e565b820191906000526020600020905b815481529060010190602001808311610e2157829003601f168201915b5050505050905088565b600080600090505b8351811015610e9f57610e7d848281518110610e6f57610e6e611bad565b5b602002602001015184610b67565b15610e8c576001915050610ea5565b8080610e9790611c0b565b915050610e50565b50600090505b92915050565b600080610eb783610eda565b9050600080821115610ece57600192505050610ed5565b6000925050505b919050565b60008060009050600080600190505b6000548111610f4e576000610efd82610f59565b90506000600190505b81518111610f3957610f188288610576565b935084841115610f26578394505b8080610f3190611c0b565b915050610f06565b50508080610f4690611c0b565b915050610ee9565b508192505050919050565b606060016000838152602001908152602001600020600801805480602002602001604051908101604052809291908181526020016000905b8282101561103d578382906000526020600020018054610fb090611b7b565b80601f0160208091040260200160405190810160405280929190818152602001828054610fdc90611b7b565b80156110295780601f10610ffe57610100808354040283529160200191611029565b820191906000526020600020905b81548152906001019060200180831161100c57829003601f168201915b505050505081526020019060010190610f91565b505050509050919050565b6040518061012001604052806000815260200160008152602001606081526020016060815260200160608152602001600073ffffffffffffffffffffffffffffffffffffffff1681526020016000815260200160608152602001606081525090565b8280546110b690611b7b565b90600052602060002090601f0160209004810192826110d8576000855561111f565b82601f106110f157805160ff191683800117855561111f565b8280016001018555821561111f579182015b8281111561111e578251825591602001919060010190611103565b5b50905061112c9190611190565b5090565b82805482825590600052602060002090810192821561117f579160200282015b8281111561117e57825182908051906020019061116e9291906110aa565b5091602001919060010190611150565b5b50905061118c91906111ad565b5090565b5b808211156111a9576000816000905550600101611191565b5090565b5b808211156111cd57600081816111c491906111d1565b506001016111ae565b5090565b5080546111dd90611b7b565b6000825580601f106111ef575061120e565b601f01602090049060005260206000209081019061120d9190611190565b5b50565b6000604051905090565b600080fd5b600080fd5b6000819050919050565b61123881611225565b811461124357600080fd5b50565b6000813590506112558161122f565b92915050565b6000602082840312156112715761127061121b565b5b600061127f84828501611246565b91505092915050565b61129181611225565b82525050565b600081519050919050565b600082825260208201905092915050565b60005b838110156112d15780820151818401526020810190506112b6565b838111156112e0576000848401525b50505050565b6000601f19601f8301169050919050565b600061130282611297565b61130c81856112a2565b935061131c8185602086016112b3565b611325816112e6565b840191505092915050565b600073ffffffffffffffffffffffffffffffffffffffff82169050919050565b600061135b82611330565b9050919050565b61136b81611350565b82525050565b600081519050919050565b600082825260208201905092915050565b6000819050602082019050919050565b60006113a983836112f7565b905092915050565b6000602082019050919050565b60006113c982611371565b6113d3818561137c565b9350836020820285016113e58561138d565b8060005b858110156114215784840389528151611402858261139d565b945061140d836113b1565b925060208a019950506001810190506113e9565b50829750879550505050505092915050565b60006101208301600083015161144c6000860182611288565b50602083015161145f6020860182611288565b506040830151848203604086015261147782826112f7565b9150506060830151848203606086015261149182826112f7565b915050608083015184820360808601526114ab82826112f7565b91505060a08301516114c060a0860182611362565b5060c08301516114d360c0860182611288565b5060e083015184820360e08601526114eb82826112f7565b91505061010083015184820361010086015261150782826113be565b9150508091505092915050565b6000602082019050818103600083015261152e8184611433565b905092915050565b600080fd5b7f4e487b7100000000000000000000000000000000000000000000000000000000600052604160045260246000fd5b611573826112e6565b810181811067ffffffffffffffff821117156115925761159161153b565b5b80604052505050565b60006115a5611211565b90506115b1828261156a565b919050565b600067ffffffffffffffff8211156115d1576115d061153b565b5b602082029050602081019050919050565b600080fd5b600080fd5b600067ffffffffffffffff8211156116075761160661153b565b5b611610826112e6565b9050602081019050919050565b82818337600083830152505050565b600061163f61163a846115ec565b61159b565b90508281526020810184848401111561165b5761165a6115e7565b5b61166684828561161d565b509392505050565b600082601f83011261168357611682611536565b5b813561169384826020860161162c565b91505092915050565b60006116af6116aa846115b6565b61159b565b905080838252602082019050602084028301858111156116d2576116d16115e2565b5b835b8181101561171957803567ffffffffffffffff8111156116f7576116f6611536565b5b808601611704898261166e565b855260208501945050506020810190506116d4565b5050509392505050565b600082601f83011261173857611737611536565b5b813561174884826020860161169c565b91505092915050565b600080604083850312156117685761176761121b565b5b600083013567ffffffffffffffff81111561178657611785611220565b5b61179285828601611723565b925050602083013567ffffffffffffffff8111156117b3576117b2611220565b5b6117bf85828601611723565b9150509250929050565b6117d281611225565b82525050565b60006020820190506117ed60008301846117c9565b92915050565b60008060008060008060c087890312156118105761180f61121b565b5b600061181e89828a01611246565b965050602087013567ffffffffffffffff81111561183f5761183e611220565b5b61184b89828a0161166e565b955050604087013567ffffffffffffffff81111561186c5761186b611220565b5b61187889828a0161166e565b945050606087013567ffffffffffffffff81111561189957611898611220565b5b6118a589828a0161166e565b935050608087013567ffffffffffffffff8111156118c6576118c5611220565b5b6118d289828a0161166e565b92505060a087013567ffffffffffffffff8111156118f3576118f2611220565b5b6118ff89828a01611723565b9150509295509295509295565b600080600080608085870312156119265761192561121b565b5b600085013567ffffffffffffffff81111561194457611943611220565b5b61195087828801611723565b945050602085013567ffffffffffffffff81111561197157611970611220565b5b61197d87828801611723565b935050604061198e87828801611246565b925050606061199f87828801611246565b91505092959194509250565b600080604083850312156119c2576119c161121b565b5b600083013567ffffffffffffffff8111156119e0576119df611220565b5b6119ec8582860161166e565b925050602083013567ffffffffffffffff811115611a0d57611a0c611220565b5b611a198582860161166e565b9150509250929050565b60008115159050919050565b611a3881611a23565b82525050565b6000602082019050611a536000830184611a2f565b92915050565b600082825260208201905092915050565b6000611a7582611297565b611a7f8185611a59565b9350611a8f8185602086016112b3565b611a98816112e6565b840191505092915050565b611aac81611350565b82525050565b600061010082019050611ac8600083018b6117c9565b611ad5602083018a6117c9565b8181036040830152611ae78189611a6a565b90508181036060830152611afb8188611a6a565b90508181036080830152611b0f8187611a6a565b9050611b1e60a0830186611aa3565b611b2b60c08301856117c9565b81810360e0830152611b3d8184611a6a565b90509998505050505050505050565b7f4e487b7100000000000000000000000000000000000000000000000000000000600052602260045260246000fd5b60006002820490506001821680611b9357607f821691505b60208210811415611ba757611ba6611b4c565b5b50919050565b7f4e487b7100000000000000000000000000000000000000000000000000000000600052603260045260246000fd5b7f4e487b7100000000000000000000000000000000000000000000000000000000600052601160045260246000fd5b6000611c1682611225565b91507fffffffffffffffffffffffffffffffffffffffffffffffffffffffffffffffff821415611c4957611c48611bdc565b5b600182019050919050565b6000611c5f82611225565b9150611c6a83611225565b9250827fffffffffffffffffffffffffffffffffffffffffffffffffffffffffffffffff03821115611c9f57611c9e611bdc565b5b828201905092915050565b6000611cb582611225565b9150611cc083611225565b925082821015611cd357611cd2611bdc565b5b828203905092915050565b6000611ce982611225565b9150611cf483611225565b9250817fffffffffffffffffffffffffffffffffffffffffffffffffffffffffffffffff0483118215151615611d2d57611d2c611bdc565b5b828202905092915050565b7f4e487b7100000000000000000000000000000000000000000000000000000000600052601260045260246000fd5b6000611d7282611225565b9150611d7d83611225565b925082611d8d57611d8c611d38565b5b828204905092915050565b7f436f646546696c65204861736820697320656d70747900000000000000000000600082015250565b6000611dce601683611a59565b9150611dd982611d98565b602082019050919050565b60006020820190508181036000830152611dfd81611dc1565b9050919050565b7f436f646546696c65206465736372697074696f6e20697320656d707479000000600082015250565b6000611e3a601d83611a59565b9150611e4582611e04565b602082019050919050565b60006020820190508181036000830152611e6981611e2d565b9050919050565b7f436f646546696c65206e616d6520697320656d70747900000000000000000000600082015250565b6000611ea6601683611a59565b9150611eb182611e70565b602082019050919050565b60006020820190508181036000830152611ed581611e99565b9050919050565b7f436f646546696c652073697a6520697320300000000000000000000000000000600082015250565b6000611f12601283611a59565b9150611f1d82611edc565b602082019050919050565b60006020820190508181036000830152611f4181611f05565b9050919050565b600082825260208201905092915050565b6000611f6482611371565b611f6e8185611f48565b935083602082028501611f808561138d565b8060005b85811015611fbc5784840389528151611f9d858261139d565b9450611fa8836113b1565b925060208a01995050600181019050611f84565b50829750879550505050505092915050565b600061012082019050611fe4600083018c6117c9565b611ff1602083018b6117c9565b8181036040830152612003818a611a6a565b905081810360608301526120178189611a6a565b9050818103608083015261202b8188611a6a565b905061203a60a0830187611aa3565b61204760c08301866117c9565b81810360e08301526120598185611a6a565b905081810361010083015261206e8184611f59565b90509a9950505050505050505050565b600081905092915050565b600061209482611297565b61209e818561207e565b93506120ae8185602086016112b3565b80840191505092915050565b60006120c68284612089565b91508190509291505056fea2646970667358221220e316a284564fd1ca8681fb98d4c07f902c86f328f4a296ce630afcae321d4cc864736f6c634300080b0033",
  "immutableReferences": {},
  "source": "// SPDX-License-Identifier: MIT\npragma solidity >=0.4.22 <0.9.0;\npragma experimental ABIEncoderV2;\n// import \"./usingOraclize.sol\";\n// import \"./provableAPI.sol\";\n// import \"@chainlink/contracts/src/v0.8/ChainlinkClient.sol\";\n// import \"@openzeppelin/contracts-ethereum-package/contracts/GSN/GSNRecipient.sol\";\n\n\n// contract PlagiarismContract is ChainlinkClient {\ncontract PlagiarismContract{\n\n  // using Chainlink for Chainlink.Request;\n\n  // address private oracle;\n  //   bytes32 private jobId;\n  //   uint256 private fee;\n\n  struct CodeFile{\n    uint fileId;\n    uint fileSize;\n    string fileIPFSHash;\n    string fileName;\n    string fileDescription;\n    address codeAuthor;\n    uint timeUploaded;    \n    string codeFingerPrint;\n    string [] hashSet;\n  }\n\n  uint public fileCount = 0;\n  mapping(uint=>CodeFile) public filesMap;\n\n\n  event CodeFileUploadEvent(\n    uint fileId,\n    uint fileSize,\n    string fileIPFSHash,\n    string fileName,\n    string fileDescription,\n    address codeAuthor,\n    uint timeUploaded ,\n    string codeFingerPrint,\n    string [] hashSet\n  ) ;\n\n  event PlagiarismResult(\n    bool plagiarisedResult\n  );\n\n  // event LogNewProvableQuery(string _res);\n\n  constructor() {\n    // setPublicChainlinkToken();\n    //     oracle = 0x19f7f3bF88CB208B0C422CC2b8E2bd23ee461DD1;\n    //     jobId = \"9b32442f55d74362b26c608c6e9bb80c\";\n    //     fee = 0.0001 * 10 ** 18; // (Varies by network and job)\n  }\n\n  // function TestOraclizeCall() { \n  //   OAR= OraclizeAddrResolverI(0x71d61a4c458d43f6834da6217e7fd00e3101421f);\n  // }\n  // function __callback(bytes32 _myid, string _result) {\n  //   require (msg.sender == oraclize_cbAddress());\n  //   Log(_result);\n  //   price = parseInt(_result, 2);\n  // }\n  // function update() payable {\n  //   oraclize_query(\"URL\",\"json(https://min-api.cryptocompare.com/data/price?fsym=ETH&tsyms=USD).USD\");\n  // }\n\n  // uint256 public volume;\n  // function Test() public returns (bytes32 requestId){\n  //   Chainlink.Request memory request = buildChainlinkRequest(jobId, address(this), this.fulfill.selector);\n        \n  //       // Set the URL to perform the GET request on\n  //       request.add(\"get\", \"https://min-api.cryptocompare.com/data/pricemultifull?fsyms=ETH&tsyms=USD\");\n        \n  //       // Set the path to find the desired data in the API response, where the response format is:\n  //       // {\"RAW\":\n  //       //   {\"ETH\":\n  //       //    {\"USD\":\n  //       //     {\n  //       //      \"VOLUME24HOUR\": xxx.xxx,\n  //       //     }\n  //       //    }\n  //       //   }\n  //       //  }\n  //       request.add(\"path\", \"RAW.ETH.USD.VOLUME24HOUR\");\n        \n  //       // Multiply the result by 1000000000000000000 to remove decimals\n  //       int timesAmount = 10**18;\n  //       request.addInt(\"times\", timesAmount);\n        \n  //       // Sends the request\n  //       return sendChainlinkRequestTo(oracle, request, fee);\n  // }\n  // function fulfill(bytes32 _requestId, uint256 _volume) public recordChainlinkFulfillment(_requestId)\n  //   {\n  //       volume = _volume;\n  //   }\n\n  function uploadFile(uint _fileSize, string memory _fileIPFSHash, string memory _fileName,string memory _fileDescription, string memory _codeFingerPrint, string [] memory _hashSet) public {\n    require(bytes(_fileIPFSHash).length > 0, \"CodeFile Hash is empty\");\n\n    require(bytes(_fileDescription).length > 0, \"CodeFile description is empty\");\n\n    require(bytes(_fileName).length > 0, \"CodeFile name is empty\");\n\n    require(_fileSize>0, \"CodeFile size is 0\");\n\n    // if (provable_getPrice(\"computation\") > address(this).balance) {\n    //   emit LogNewProvableQuery(\"Provable query was NOT sent, please add some ETH to cover for the query fee\");\n    // } else {\n      // emit LogNewProvableQuery(\"Provable query was sent, standing by for the answer\");\n      // provable_query(\"URL\", \"json(http://localhost:8000/hashset)\",'{\"codeFingerprint\":_codeFingerPrint}');\n      // emit LogNewProvableQuery(m);\n    // }\n\n    if(checkIfPlagiarised(_hashSet)){\n      emit PlagiarismResult(true);\n    }\n    else{\n      fileCount++;\n\n      filesMap[fileCount] = CodeFile(fileCount,_fileSize,_fileIPFSHash, _fileName, _fileDescription,msg.sender,block.timestamp,_codeFingerPrint,_hashSet);\n\n      emit CodeFileUploadEvent(fileCount,_fileSize,_fileIPFSHash, _fileName, _fileDescription,msg.sender,block.timestamp,_codeFingerPrint,_hashSet);\n    }\n  }\n\n    function getFileByIndex(uint _fileIndex)\n        public\n        view\n        returns (CodeFile memory records)\n    {\n        return filesMap[_fileIndex];\n    }\n\n    function getFileHashSet(uint _fileIndex) private\n        view\n        returns (string [] memory )\n    {\n        return filesMap[_fileIndex].hashSet;\n    }\n\n    function checkIfPlagiarised( string [] memory _hashSet)private view returns(bool){\n      uint similarityScore = getMaximumSimilarityScore(_hashSet);\n      \n      uint thresholdSimilarity=0;\n      if(similarityScore>thresholdSimilarity)\n        return true;\n      else\n        return false;\n    }\n\n    function getMaximumSimilarityScore( string [] memory _hashSet) private view returns (uint){\n      uint maxSimilarity=0;\n      uint similarity=0;\n      for(uint i=1;i<=fileCount;i++){\n        string [] memory existingFilehashSet=getFileHashSet(i);\n        for(uint j=1;j<=existingFilehashSet.length;j++){\n          //TODO\n          // uint similarity=getSimilarity();\n          similarity=calculateSimilarityScore(existingFilehashSet,_hashSet);\n          if(similarity>maxSimilarity){\n            maxSimilarity=similarity;\n          }\n        }\n      }\n      return maxSimilarity;\n    }\n\nfunction compareStrings(string memory a, string memory b) public pure returns (bool) {\n        return (keccak256(abi.encodePacked((a))) == keccak256(abi.encodePacked((b))));\n    }\n    function getCommonElementsCount(string[] memory list1, string[] memory list2,uint setLength1,uint setLength2) public pure returns (uint){\n\n        uint commonElementsCount=0;\n        for(uint i=0;i< setLength1;i++){\n            for(uint j=0;j<setLength2;j++){\n                if(compareStrings(list1[i],list2[j])){\n                    commonElementsCount++;\n                    break;\n                }\n            }\n        }\n        return commonElementsCount;\n    }\n\n    function isPresent(string[] memory l1,string memory ele)private pure returns (bool){\n        for(uint i=0;i<l1.length;i++){\n          if(compareStrings(l1[i],ele)){\n            return true;\n          }\n        }\n        return false;\n    }\n    function calculateSimilarityScore(string[] memory l1, string[] memory l2) public pure returns(uint){\n\n\n      string[] memory list1 = new string[](l1.length);   \n      string[] memory list2 = new string[](l2.length);   \n\n      uint setLength1=0;\n      uint setLength2=0;\n\n        for(uint i=0;i<l1.length;i++){\n            if (!isPresent(list1,l1[i])) {\n              list1[setLength1]=l1[i];\n              setLength1++;\n            }\n        } \n  \n        for(uint i=0;i<l2.length;i++){\n            if (!isPresent(list2,l2[i])) {\n              list2[setLength2]=l2[i];\n              setLength2++;\n            }\n        } \n\n        uint commonElementsCount = getCommonElementsCount(list1,list2,setLength1,setLength2);\n        uint unionCount=setLength1+setLength2-commonElementsCount;        \n        \n        return commonElementsCount*100/unionCount;\n    } \n}",
  "sourcePath": "/home/deep/Desktop/Projects/MP/truffle-react/contracts/PlagiarismContract.sol",
  "compiler": {
    "name": "solc",
    "version": "0.8.11+commit.d7f03943.Emscripten.clang"
  },
  "schemaVersion": "3.4.4",
  "updatedAt": "2022-02-04T14:35:31.417Z",
  "devdoc": {
    "kind": "dev",
    "methods": {},
    "version": 1
  },
  "userdoc": {
    "kind": "user",
    "methods": {},
    "version": 1
  }
}