{
  "contractName": "TestGas",
  "abi": [
    {
      "anonymous": false,
      "inputs": [
        {
          "indexed": false,
          "internalType": "uint256",
          "name": "fileId",
          "type": "uint256"
        },
        {
          "indexed": false,
          "internalType": "uint256",
          "name": "fileSize",
          "type": "uint256"
        },
        {
          "indexed": false,
          "internalType": "string",
          "name": "fileIPFSHash",
          "type": "string"
        },
        {
          "indexed": false,
          "internalType": "string",
          "name": "fileName",
          "type": "string"
        },
        {
          "indexed": false,
          "internalType": "string",
          "name": "fileDescription",
          "type": "string"
        },
        {
          "indexed": false,
          "internalType": "address",
          "name": "codeAuthor",
          "type": "address"
        },
        {
          "indexed": false,
          "internalType": "uint256",
          "name": "timeUploaded",
          "type": "uint256"
        },
        {
          "indexed": false,
          "internalType": "string",
          "name": "codeFingerPrint",
          "type": "string"
        },
        {
          "indexed": false,
          "internalType": "bytes16[]",
          "name": "hashSet",
          "type": "bytes16[]"
        },
        {
          "indexed": false,
          "internalType": "uint256",
          "name": "hashSetLength",
          "type": "uint256"
        }
      ],
      "name": "CodeFileUploadEvent",
      "type": "event"
    },
    {
      "anonymous": false,
      "inputs": [
        {
          "indexed": false,
          "internalType": "bool",
          "name": "plagiarisedResult",
          "type": "bool"
        }
      ],
      "name": "PlagiarismResult",
      "type": "event"
    },
    {
      "inputs": [],
      "name": "fileCount",
      "outputs": [
        {
          "internalType": "uint256",
          "name": "",
          "type": "uint256"
        }
      ],
      "stateMutability": "view",
      "type": "function",
      "constant": true
    },
    {
      "inputs": [
        {
          "internalType": "uint256",
          "name": "",
          "type": "uint256"
        }
      ],
      "name": "filesMap",
      "outputs": [
        {
          "internalType": "uint256",
          "name": "fileId",
          "type": "uint256"
        },
        {
          "internalType": "uint256",
          "name": "fileSize",
          "type": "uint256"
        },
        {
          "internalType": "string",
          "name": "fileIPFSHash",
          "type": "string"
        },
        {
          "internalType": "string",
          "name": "fileName",
          "type": "string"
        },
        {
          "internalType": "string",
          "name": "fileDescription",
          "type": "string"
        },
        {
          "internalType": "address",
          "name": "codeAuthor",
          "type": "address"
        },
        {
          "internalType": "uint256",
          "name": "timeUploaded",
          "type": "uint256"
        },
        {
          "internalType": "string",
          "name": "codeFingerPrint",
          "type": "string"
        },
        {
          "internalType": "uint256",
          "name": "hashSetLength",
          "type": "uint256"
        }
      ],
      "stateMutability": "view",
      "type": "function",
      "constant": true
    },
    {
      "inputs": [
        {
          "internalType": "uint256",
          "name": "_fileSize",
          "type": "uint256"
        },
        {
          "internalType": "string",
          "name": "_fileIPFSHash",
          "type": "string"
        },
        {
          "internalType": "string",
          "name": "_fileName",
          "type": "string"
        },
        {
          "internalType": "string",
          "name": "_fileDescription",
          "type": "string"
        },
        {
          "internalType": "string",
          "name": "_codeFingerPrint",
          "type": "string"
        },
        {
          "internalType": "bytes16[]",
          "name": "_hashSet",
          "type": "bytes16[]"
        },
        {
          "internalType": "uint256",
          "name": "hashSetLength",
          "type": "uint256"
        }
      ],
      "name": "uploadFile",
      "outputs": [],
      "stateMutability": "nonpayable",
      "type": "function"
    },
    {
      "inputs": [
        {
          "internalType": "uint256",
          "name": "_fileIndex",
          "type": "uint256"
        }
      ],
      "name": "getFileByIndex",
      "outputs": [
        {
          "components": [
            {
              "internalType": "uint256",
              "name": "fileId",
              "type": "uint256"
            },
            {
              "internalType": "uint256",
              "name": "fileSize",
              "type": "uint256"
            },
            {
              "internalType": "string",
              "name": "fileIPFSHash",
              "type": "string"
            },
            {
              "internalType": "string",
              "name": "fileName",
              "type": "string"
            },
            {
              "internalType": "string",
              "name": "fileDescription",
              "type": "string"
            },
            {
              "internalType": "address",
              "name": "codeAuthor",
              "type": "address"
            },
            {
              "internalType": "uint256",
              "name": "timeUploaded",
              "type": "uint256"
            },
            {
              "internalType": "string",
              "name": "codeFingerPrint",
              "type": "string"
            },
            {
              "internalType": "bytes16[]",
              "name": "hashSet",
              "type": "bytes16[]"
            },
            {
              "internalType": "uint256",
              "name": "hashSetLength",
              "type": "uint256"
            }
          ],
          "internalType": "struct TestGas.CodeFile",
          "name": "records",
          "type": "tuple"
        }
      ],
      "stateMutability": "view",
      "type": "function",
      "constant": true
    },
    {
      "inputs": [
        {
          "internalType": "bytes16[]",
          "name": "_hashSet",
          "type": "bytes16[]"
        },
        {
          "internalType": "uint256",
          "name": "hashSetLength",
          "type": "uint256"
        }
      ],
      "name": "checkIfPlagiarised",
      "outputs": [
        {
          "internalType": "bool",
          "name": "",
          "type": "bool"
        }
      ],
      "stateMutability": "view",
      "type": "function",
      "constant": true
    },
    {
      "inputs": [
        {
          "internalType": "bytes16[]",
          "name": "list1",
          "type": "bytes16[]"
        },
        {
          "internalType": "bytes16[]",
          "name": "list2",
          "type": "bytes16[]"
        },
        {
          "internalType": "uint256",
          "name": "setLength1",
          "type": "uint256"
        },
        {
          "internalType": "uint256",
          "name": "setLength2",
          "type": "uint256"
        }
      ],
      "name": "getCommonElementsCount",
      "outputs": [
        {
          "internalType": "uint256",
          "name": "",
          "type": "uint256"
        }
      ],
      "stateMutability": "pure",
      "type": "function",
      "constant": true
    },
    {
      "inputs": [
        {
          "internalType": "bytes16[]",
          "name": "l1",
          "type": "bytes16[]"
        },
        {
          "internalType": "bytes16[]",
          "name": "l2",
          "type": "bytes16[]"
        },
        {
          "internalType": "uint256",
          "name": "l1OriLength",
          "type": "uint256"
        },
        {
          "internalType": "uint256",
          "name": "l2OriLength",
          "type": "uint256"
        }
      ],
      "name": "calculateSimilarityScore",
      "outputs": [
        {
          "internalType": "uint256",
          "name": "",
          "type": "uint256"
        }
      ],
      "stateMutability": "pure",
      "type": "function",
      "constant": true
    }
  ],
  "bytecode": "0x60806040526000805534801561001457600080fd5b50611b22806100246000396000f3fe608060405234801561001057600080fd5b506004361061007d5760003560e01c8063439535191161005b578063439535191461011257806358ae2ae7146101305780639ecefadc1461014c578063c93bcd911461017c5761007d565b8063097694e1146100825780630d665ad1146100b257806331631b64146100e2575b600080fd5b61009c60048036038101906100979190610ea6565b6101b4565b6040516100a9919061119c565b60405180910390f35b6100cc60048036038101906100c79190611332565b610536565b6040516100d991906113e0565b60405180910390f35b6100fc60048036038101906100f791906113fb565b610588565b6040516101099190611472565b60405180910390f35b61011a6105bd565b60405161012791906113e0565b60405180910390f35b61014a60048036038101906101459190611542565b6105c3565b005b61016660048036038101906101619190611332565b6107f2565b60405161017391906113e0565b60405180910390f35b61019660048036038101906101919190610ea6565b610899565b6040516101ab999897969594939291906116c9565b60405180910390f35b6101bc610c8b565b600160008381526020019081526020016000206040518061014001604052908160008201548152602001600182015481526020016002820180546101ff906117a1565b80601f016020809104026020016040519081016040528092919081815260200182805461022b906117a1565b80156102785780601f1061024d57610100808354040283529160200191610278565b820191906000526020600020905b81548152906001019060200180831161025b57829003601f168201915b50505050508152602001600382018054610291906117a1565b80601f01602080910402602001604051908101604052809291908181526020018280546102bd906117a1565b801561030a5780601f106102df5761010080835404028352916020019161030a565b820191906000526020600020905b8154815290600101906020018083116102ed57829003601f168201915b50505050508152602001600482018054610323906117a1565b80601f016020809104026020016040519081016040528092919081815260200182805461034f906117a1565b801561039c5780601f106103715761010080835404028352916020019161039c565b820191906000526020600020905b81548152906001019060200180831161037f57829003601f168201915b505050505081526020016005820160009054906101000a900473ffffffffffffffffffffffffffffffffffffffff1673ffffffffffffffffffffffffffffffffffffffff1673ffffffffffffffffffffffffffffffffffffffff16815260200160068201548152602001600782018054610415906117a1565b80601f0160208091040260200160405190810160405280929190818152602001828054610441906117a1565b801561048e5780601f106104635761010080835404028352916020019161048e565b820191906000526020600020905b81548152906001019060200180831161047157829003601f168201915b505050505081526020016008820180548060200260200160405190810160405280929190818152602001828054801561051c57602002820191906000526020600020906000905b82829054906101000a900460801b6fffffffffffffffffffffffffffffffff191681526020019060100190602082600f010492830192600103820291508084116104d55790505b505050505081526020016009820154815250509050919050565b6000806105478686885188516107f2565b905060008184866105589190611802565b6105629190611858565b905080606483610572919061188c565b61057c9190611915565b92505050949350505050565b6000806105958484610b27565b9050600060149050808211156105b0576001925050506105b7565b6000925050505b92915050565b60005481565b6105cd8282610588565b1561060f577f711784307b11c5f98f3bc25170dfd6d229d797a0891cb2dd54b1fd406e60fc6d60016040516106029190611472565b60405180910390a16107e9565b60008081548092919061062190611946565b919050555060405180610140016040528060005481526020018881526020018781526020018681526020018581526020013373ffffffffffffffffffffffffffffffffffffffff168152602001428152602001848152602001838152602001828152506001600080548152602001908152602001600020600082015181600001556020820151816001015560408201518160020190805190602001906106c8929190610cf4565b5060608201518160030190805190602001906106e5929190610cf4565b506080820151816004019080519060200190610702929190610cf4565b5060a08201518160050160006101000a81548173ffffffffffffffffffffffffffffffffffffffff021916908373ffffffffffffffffffffffffffffffffffffffff16021790555060c0820151816006015560e0820151816007019080519060200190610770929190610cf4565b5061010082015181600801908051906020019061078e929190610d7a565b5061012082015181600901559050507f2cb3b83cdd1534b844c5d0a1492ed9e146aba3d1a63aee4e5bd0d3f8e85212456000548888888833428a8a8a6040516107e09a999897969594939291906119fe565b60405180910390a15b50505050505050565b6000806000905060005b8481101561088c5760005b848110156108785761084d88838151811061082557610824611abd565b5b60200260200101518883815181106108405761083f611abd565b5b6020026020010151610b94565b1561086557828061085d90611946565b935050610878565b808061087090611946565b915050610807565b50808061088490611946565b9150506107fc565b5080915050949350505050565b60016020528060005260406000206000915090508060000154908060010154908060020180546108c8906117a1565b80601f01602080910402602001604051908101604052809291908181526020018280546108f4906117a1565b80156109415780601f1061091657610100808354040283529160200191610941565b820191906000526020600020905b81548152906001019060200180831161092457829003601f168201915b505050505090806003018054610956906117a1565b80601f0160208091040260200160405190810160405280929190818152602001828054610982906117a1565b80156109cf5780601f106109a4576101008083540402835291602001916109cf565b820191906000526020600020905b8154815290600101906020018083116109b257829003601f168201915b5050505050908060040180546109e4906117a1565b80601f0160208091040260200160405190810160405280929190818152602001828054610a10906117a1565b8015610a5d5780601f10610a3257610100808354040283529160200191610a5d565b820191906000526020600020905b815481529060010190602001808311610a4057829003601f168201915b5050505050908060050160009054906101000a900473ffffffffffffffffffffffffffffffffffffffff1690806006015490806007018054610a9e906117a1565b80601f0160208091040260200160405190810160405280929190818152602001828054610aca906117a1565b8015610b175780601f10610aec57610100808354040283529160200191610b17565b820191906000526020600020905b815481529060010190602001808311610afa57829003601f168201915b5050505050908060090154905089565b60008060009050600080600190505b6000548111610b88576000610b4a82610bc7565b90506000610b5783610c6b565b9050610b6588838984610536565b935084841115610b73578394505b50508080610b8090611946565b915050610b36565b50819250505092915050565b6000816fffffffffffffffffffffffffffffffff1916836fffffffffffffffffffffffffffffffff191614905092915050565b606060016000838152602001908152602001600020600801805480602002602001604051908101604052809291908181526020018280548015610c5f57602002820191906000526020600020906000905b82829054906101000a900460801b6fffffffffffffffffffffffffffffffff191681526020019060100190602082600f01049283019260010382029150808411610c185790505b50505050509050919050565b600060016000838152602001908152602001600020600901549050919050565b6040518061014001604052806000815260200160008152602001606081526020016060815260200160608152602001600073ffffffffffffffffffffffffffffffffffffffff168152602001600081526020016060815260200160608152602001600081525090565b828054610d00906117a1565b90600052602060002090601f016020900481019282610d225760008555610d69565b82601f10610d3b57805160ff1916838001178555610d69565b82800160010185558215610d69579182015b82811115610d68578251825591602001919060010190610d4d565b5b509050610d769190610e3f565b5090565b82805482825590600052602060002090600101600290048101928215610e2e5791602002820160005b83821115610df057835183826101000a8154816fffffffffffffffffffffffffffffffff021916908360801c02179055509260200192601001602081600f01049283019260010302610da3565b8015610e2c5782816101000a8154906fffffffffffffffffffffffffffffffff0219169055601001602081600f01049283019260010302610df0565b505b509050610e3b9190610e3f565b5090565b5b80821115610e58576000816000905550600101610e40565b5090565b6000604051905090565b600080fd5b600080fd5b6000819050919050565b610e8381610e70565b8114610e8e57600080fd5b50565b600081359050610ea081610e7a565b92915050565b600060208284031215610ebc57610ebb610e66565b5b6000610eca84828501610e91565b91505092915050565b610edc81610e70565b82525050565b600081519050919050565b600082825260208201905092915050565b60005b83811015610f1c578082015181840152602081019050610f01565b83811115610f2b576000848401525b50505050565b6000601f19601f8301169050919050565b6000610f4d82610ee2565b610f578185610eed565b9350610f67818560208601610efe565b610f7081610f31565b840191505092915050565b600073ffffffffffffffffffffffffffffffffffffffff82169050919050565b6000610fa682610f7b565b9050919050565b610fb681610f9b565b82525050565b600081519050919050565b600082825260208201905092915050565b6000819050602082019050919050565b60007fffffffffffffffffffffffffffffffff0000000000000000000000000000000082169050919050565b61101d81610fe8565b82525050565b600061102f8383611014565b60208301905092915050565b6000602082019050919050565b600061105382610fbc565b61105d8185610fc7565b935061106883610fd8565b8060005b838110156110995781516110808882611023565b975061108b8361103b565b92505060018101905061106c565b5085935050505092915050565b6000610140830160008301516110bf6000860182610ed3565b5060208301516110d26020860182610ed3565b50604083015184820360408601526110ea8282610f42565b915050606083015184820360608601526111048282610f42565b9150506080830151848203608086015261111e8282610f42565b91505060a083015161113360a0860182610fad565b5060c083015161114660c0860182610ed3565b5060e083015184820360e086015261115e8282610f42565b91505061010083015184820361010086015261117a8282611048565b915050610120830151611191610120860182610ed3565b508091505092915050565b600060208201905081810360008301526111b681846110a6565b905092915050565b600080fd5b7f4e487b7100000000000000000000000000000000000000000000000000000000600052604160045260246000fd5b6111fb82610f31565b810181811067ffffffffffffffff8211171561121a576112196111c3565b5b80604052505050565b600061122d610e5c565b905061123982826111f2565b919050565b600067ffffffffffffffff821115611259576112586111c3565b5b602082029050602081019050919050565b600080fd5b61127881610fe8565b811461128357600080fd5b50565b6000813590506112958161126f565b92915050565b60006112ae6112a98461123e565b611223565b905080838252602082019050602084028301858111156112d1576112d061126a565b5b835b818110156112fa57806112e68882611286565b8452602084019350506020810190506112d3565b5050509392505050565b600082601f830112611319576113186111be565b5b813561132984826020860161129b565b91505092915050565b6000806000806080858703121561134c5761134b610e66565b5b600085013567ffffffffffffffff81111561136a57611369610e6b565b5b61137687828801611304565b945050602085013567ffffffffffffffff81111561139757611396610e6b565b5b6113a387828801611304565b93505060406113b487828801610e91565b92505060606113c587828801610e91565b91505092959194509250565b6113da81610e70565b82525050565b60006020820190506113f560008301846113d1565b92915050565b6000806040838503121561141257611411610e66565b5b600083013567ffffffffffffffff8111156114305761142f610e6b565b5b61143c85828601611304565b925050602061144d85828601610e91565b9150509250929050565b60008115159050919050565b61146c81611457565b82525050565b60006020820190506114876000830184611463565b92915050565b600080fd5b600067ffffffffffffffff8211156114ad576114ac6111c3565b5b6114b682610f31565b9050602081019050919050565b82818337600083830152505050565b60006114e56114e084611492565b611223565b9050828152602081018484840111156115015761150061148d565b5b61150c8482856114c3565b509392505050565b600082601f830112611529576115286111be565b5b81356115398482602086016114d2565b91505092915050565b600080600080600080600060e0888a03121561156157611560610e66565b5b600061156f8a828b01610e91565b975050602088013567ffffffffffffffff8111156115905761158f610e6b565b5b61159c8a828b01611514565b965050604088013567ffffffffffffffff8111156115bd576115bc610e6b565b5b6115c98a828b01611514565b955050606088013567ffffffffffffffff8111156115ea576115e9610e6b565b5b6115f68a828b01611514565b945050608088013567ffffffffffffffff81111561161757611616610e6b565b5b6116238a828b01611514565b93505060a088013567ffffffffffffffff81111561164457611643610e6b565b5b6116508a828b01611304565b92505060c06116618a828b01610e91565b91505092959891949750929550565b600082825260208201905092915050565b600061168c82610ee2565b6116968185611670565b93506116a6818560208601610efe565b6116af81610f31565b840191505092915050565b6116c381610f9b565b82525050565b6000610120820190506116df600083018c6113d1565b6116ec602083018b6113d1565b81810360408301526116fe818a611681565b905081810360608301526117128189611681565b905081810360808301526117268188611681565b905061173560a08301876116ba565b61174260c08301866113d1565b81810360e08301526117548185611681565b90506117646101008301846113d1565b9a9950505050505050505050565b7f4e487b7100000000000000000000000000000000000000000000000000000000600052602260045260246000fd5b600060028204905060018216806117b957607f821691505b602082108114156117cd576117cc611772565b5b50919050565b7f4e487b7100000000000000000000000000000000000000000000000000000000600052601160045260246000fd5b600061180d82610e70565b915061181883610e70565b9250827fffffffffffffffffffffffffffffffffffffffffffffffffffffffffffffffff0382111561184d5761184c6117d3565b5b828201905092915050565b600061186382610e70565b915061186e83610e70565b925082821015611881576118806117d3565b5b828203905092915050565b600061189782610e70565b91506118a283610e70565b9250817fffffffffffffffffffffffffffffffffffffffffffffffffffffffffffffffff04831182151516156118db576118da6117d3565b5b828202905092915050565b7f4e487b7100000000000000000000000000000000000000000000000000000000600052601260045260246000fd5b600061192082610e70565b915061192b83610e70565b92508261193b5761193a6118e6565b5b828204905092915050565b600061195182610e70565b91507fffffffffffffffffffffffffffffffffffffffffffffffffffffffffffffffff821415611984576119836117d3565b5b600182019050919050565b600082825260208201905092915050565b60006119ab82610fbc565b6119b5818561198f565b93506119c083610fd8565b8060005b838110156119f15781516119d88882611023565b97506119e38361103b565b9250506001810190506119c4565b5085935050505092915050565b600061014082019050611a14600083018d6113d1565b611a21602083018c6113d1565b8181036040830152611a33818b611681565b90508181036060830152611a47818a611681565b90508181036080830152611a5b8189611681565b9050611a6a60a08301886116ba565b611a7760c08301876113d1565b81810360e0830152611a898186611681565b9050818103610100830152611a9e81856119a0565b9050611aae6101208301846113d1565b9b9a5050505050505050505050565b7f4e487b7100000000000000000000000000000000000000000000000000000000600052603260045260246000fdfea2646970667358221220dbe60b52dd47bdfcd4cf0e28fe0cb10ef5393c242515b2c3be6411d3add600de64736f6c634300080c0033",
  "immutableReferences": {},
  "source": "// SPDX-License-Identifier: MIT\npragma solidity >=0.4.22 <0.9.0;\n// import \"@opengsn/contracts/src/BaseRelayRecipient.sol\";\n\n\n\n\ncontract TestGas// is BaseRelayRecipient \n{\n\n    // function versionRecipient() external override view returns (bytes16 memory) {\n    //     return \"2.0.0\";\n    // }\n\n  struct CodeFile{\n    uint fileId;\n    uint fileSize;\n    string fileIPFSHash;\n    string fileName;\n    string fileDescription;\n    address codeAuthor;\n    uint timeUploaded;    \n    string codeFingerPrint;\n    bytes16 [] hashSet;\n    uint hashSetLength;\n  }\n\n  uint public fileCount = 0;\n  mapping(uint=>CodeFile) public filesMap;\n\n\n  event CodeFileUploadEvent(\n    uint fileId,\n    uint fileSize,\n    string fileIPFSHash,\n    string fileName,\n    string fileDescription,\n    address codeAuthor,\n    uint timeUploaded ,\n    string codeFingerPrint,\n    bytes16 [] hashSet,\n    uint hashSetLength\n  ) ;\n\n  event PlagiarismResult(\n    bool plagiarisedResult\n  );\n\n    // function acceptRelayedCall(\n    //     address relay,\n    //     address from,\n    //     bytes calldata encodedFunction,\n    //     uint256 transactionFee,\n    //     uint256 gasPrice,\n    //     uint256 gasLimit,\n    //     uint256 nonce,\n    //     bytes calldata approvalData,\n    //     uint256 maxPossibleCharge\n    // ) external view returns (uint256, bytes memory) {\n    //     return _approveRelayedCall();\n    // }\n\n    \n  function uploadFile(uint _fileSize, string memory  _fileIPFSHash, string memory  _fileName,string memory  _fileDescription, string memory  _codeFingerPrint, bytes16 [] memory _hashSet, uint hashSetLength) public {\n\n    if(checkIfPlagiarised(_hashSet,hashSetLength)){\n      emit PlagiarismResult(true);\n    }\n    else{\n      fileCount++;\n\n      filesMap[fileCount] = CodeFile(fileCount,_fileSize,_fileIPFSHash, _fileName, _fileDescription,msg.sender/*_msgSender()*/,block.timestamp,_codeFingerPrint,_hashSet,hashSetLength);\n\n      emit CodeFileUploadEvent(fileCount,_fileSize,_fileIPFSHash, _fileName, _fileDescription,msg.sender/*_msgSender()*/,block.timestamp,_codeFingerPrint,_hashSet,hashSetLength);\n    }\n  }\n\n    function getFileByIndex(uint _fileIndex)\n        public\n        view\n        returns (CodeFile memory records)\n    {\n        return filesMap[_fileIndex];\n    }\n\n    function getFileHashSet(uint _fileIndex) private\n        view\n        returns (bytes16 [] memory )\n    {\n        return filesMap[_fileIndex].hashSet;\n    }\n\n    function getFileHashSetLength(uint _fileIndex) private\n        view\n        returns (uint )\n    {\n        return filesMap[_fileIndex].hashSetLength;\n    }\n    function checkIfPlagiarised( bytes16 [] memory _hashSet, uint hashSetLength)public view returns(bool){\n      uint similarityScore = getMaximumSimilarityScore(_hashSet,hashSetLength);\n\n      uint thresholdSimilarity=20;\n      if(similarityScore>thresholdSimilarity)\n        return true;\n      else\n        return false;\n    }\n\n    function getMaximumSimilarityScore( bytes16 [] memory _hashSet, uint oriHashSetLength) private view returns (uint){\n      uint maxSimilarity=0;\n      uint similarity=0;\n      // similarity=calculateSimilarityScore(_hashSet,_hashSet);\n\n      for(uint i=1;i<=fileCount;i++){\n        bytes16 [] memory existingFilehashSet=getFileHashSet(i);\n        uint existingFilehashSetLength=getFileHashSetLength(i);\n        // for(uint j=1;j<=existingFilehashSet.length;j++){\n          similarity=calculateSimilarityScore(_hashSet,existingFilehashSet,oriHashSetLength,existingFilehashSetLength);\n          if(similarity>maxSimilarity){\n            maxSimilarity=similarity;\n          }\n        // }\n      }\n      return maxSimilarity;\n    }\n\n \n    \nfunction comparebytes16s(bytes16  a, bytes16  b) private pure returns (bool) {\n      return a==b;\n        // return (keccak256(abi.encodePacked((a))) == keccak256(abi.encodePacked((b))));\n    }\n    function getCommonElementsCount(bytes16[] memory list1, bytes16[] memory list2,uint setLength1,uint setLength2) public pure returns (uint){\n\n        uint commonElementsCount=0;\n        for(uint i=0;i< setLength1;i++){\n            for(uint j=0;j<setLength2;j++){\n                if(comparebytes16s(list1[i],list2[j])){\n                    commonElementsCount++;\n                    break;\n                }\n            }\n        }\n        return commonElementsCount;\n    }\n\n    function isPresent(bytes16[] memory l1,bytes16 ele)private pure returns (bool){\n        for(uint i=0;i<l1.length;i++){\n          if(comparebytes16s(l1[i],ele)){\n            return true;\n          }\n        }\n        return false;\n    }\n    function calculateSimilarityScore(bytes16[] memory l1, bytes16[] memory l2, uint l1OriLength, uint l2OriLength) public pure returns(uint){\n\n\n      // bytes16[] memory list1 = new bytes16[](l1.length);   \n      // bytes16[] memory list2 = new bytes16[](l2.length);   \n\n      // uint setLength1=0;\n      // uint setLength2=0;\n\n      //   for(uint i=0;i<l1.length;i++){\n      //       if (!isPresent(list1,l1[i])) {\n      //         list1[setLength1]=l1[i];\n      //         setLength1++;\n      //       }\n      //   } \n  \n      //   for(uint i=0;i<l2.length;i++){\n      //       if (!isPresent(list2,l2[i])) {\n      //         list2[setLength2]=l2[i];\n      //         setLength2++;\n      //       }\n      //   } \n\n        // uint commonElementsCount = getCommonElementsCount(list1,list1,setLength1,setLength2);\n        uint commonElementsCount = getCommonElementsCount(l1,l2,l1.length,l2.length);\n        uint unionCount=l1OriLength+l2OriLength-commonElementsCount;        \n        \n        return commonElementsCount*100/unionCount;\n    } \n}",
  "sourcePath": "/home/deep/Desktop/Projects/MP/truffle-react/contracts/TestGas.sol",
  "compiler": {
    "name": "solc",
    "version": "0.8.12+commit.f00d7308.Emscripten.clang"
  },
  "schemaVersion": "3.4.4",
  "updatedAt": "2022-03-10T04:24:46.180Z",
  "networkType": "ethereum",
  "devdoc": {
    "kind": "dev",
    "methods": {},
    "version": 1
  },
  "userdoc": {
    "kind": "user",
    "methods": {},
    "version": 1
  }
}